:020000040800F2
:100000001005002045010008871600088910000827
:1000100073160008130B0008692700080000000091
:1000200000000000000000000000000005190008AA
:10003000170B00080000000021170008191A00081B
:100040005F0100085F0100085F0100085F01000810
:100050005F0100085F010008490B00085F0100080C
:100060005F0100085F0100085F0100085F010008F0
:100070005F0100085F0100085F0100085F010008E0
:100080005F0100085F0100085F0100085F010008D0
:100090005F0100085F0100085F0100085F010008C0
:1000A0005F0100085F0100085F0100085F010008B0
:1000B000D51D0008ED1D0008091E00085F0100089D
:1000C0005F0100085F0100085F0100085F01000890
:1000D0005F010008B1220008052300085F01000845
:1000E000190C00085F0100085F0100085F010008AB
:1000F0005F0100085F0100085F0100085F01000860
:100100005F0100085F0100085F0100085F0100084F
:100110005F0100085F010008251E00085F0100085C
:100120005F0100085F0100085F0100085F0100082F
:10013000DFF80CD000F07AFC00480047514C000872
:10014000100500200648804706480047FEE7FEE706
:10015000FEE7FEE7FEE7FEE7FEE7FEE7FEE7FEE777
:100160001D1A0008310100082DE9F0410024061B8A
:10017000254671F1000605DA01240027D0EB0700BF
:1001800067EB0101161E73F1000605DA0027D2EBBA
:100190000702012567EB030300F01AFB86460E46B3
:1001A00017469C46AC4204D00025D0EB050E65EB0B
:1001B000010624B10020D2EB000760EB030C70466F
:1001C00031463A466346BDE8F081D2B201E000F81C
:1001D000012B491EFBD270470022F6E710B51346EB
:1001E0000A4604461946FFF7F0FF204610BD30B519
:1001F00004460020034600E05B1C934203D2E05C0F
:10020000CD5C401BF8D030BDF0B480EA0102D40FC1
:100210004200B2EB410F02D20246084611464A00A4
:1002200042D0C30DDDB2C1F3C752AD1A202D35DA6D
:10023000C1F3160141F4000204B15242C5F1200697
:1002400002FA06F12A411044B3EBD05F23D0C4B1C7
:10025000012DA0EBC35009DCF0BC4FF0004202EAD4
:10026000C352DBB200F5000000F00DBB400000F10E
:10027000807000EBC350A0F1807040EAD17049005B
:1002800009E0490841EAC071A0EBC35000F5000045
:10029000400800EBC350F0BC00F0ECBA6142012210
:1002A00002EB4101001BF6E7F0BC704781F0004112
:1002B000AAE780F00040A7E780EA010210B502F04B
:1002C0000043400022D04A001FD0010E01EB126112
:1002D000C0F35600C2F3560240F4000042F400029C
:1002E000A0FB022000047F39140400D0401C50EA17
:1002F000124001D44000491EC2B20C0604EBD010DB
:10030000401C4008802A02D003E0002010BD20F0ED
:100310000100002900DA0020184310BD30B480EA43
:10032000010202F0004530F0004221F0004013D0FD
:1003300090B1C30DD40DC2F31601C0F31600E41A38
:1003400041F4000140F400027D34914201D3641C69
:1003500000E04900002C02DA30BC002070474FF466
:1003600000000023914201D3891A034340084FEA59
:100370004101F7D151B1914202D14FF0004105E066
:1003800002D24FF0010101E06FF0010103EBC45014
:10039000284430BC00F06EBA2DE9FE4F804681EA59
:1003A0000300C00F0C46009021F0004123F00045EF
:1003B000B8EB0200A94105D24046214690461C46B2
:1003C0000B46024623F00040104347D0270DC7F3E9
:1003D0000A00C3F30A510290401A019040286BDAD8
:1003E000C3F3130040F4801B0098924620B1002311
:1003F000D2EB030A63EB0B0B01985946C0F14002A4
:10040000504600F016FA06460D4650465946019AE7
:1004100000F01EFA10EB08006141002487EA115237
:1004200084EAE7731A4340D0009A62B3019A012A22
:100430004FEA075215DC001B61EB02014FF000424E
:1004400002EA0752CDE90042001C41F58011324614
:100450002B4600F055FA03B0BDE8F08F4046214628
:10046000F9E7001B61EB0201001C41F58013001845
:100470005B412018A2F5001747EB030140EAD57055
:10048000B6196D4111E06D084FEA360645EAC075B0
:100490004FEA0752001B61EB0201001C41F580117D
:1004A00049084FEA30000019514132462B4603B04B
:1004B000BDE8F04F00F015BA00980122400000237B
:1004C000D0EB020263EBE073009821464FEAE07440
:1004D000B8EB000061EB0401E9E783F000435BE760
:1004E00081F0004158E72DE9FE4F81EA030404F052
:1004F000004421F0004100944FF0000B23F0004332
:1005000050EA01045ED052EA03045BD0C3F30A54FC
:10051000C1F30A552C44A4F2F3340194A0FB025415
:10052000C1F3130141F48011C3F3130343F48013A7
:1005300001FB024400FB034E840A970A44EA8154FB
:1005400047EA8357A4FB076802958D0A05FB0785D8
:100550004FEA932C04FB0C542705029D4FEA0658E2
:1005600047EA1637B5EB08056EEB070C870E920EBF
:1005700047EA811742EA8312A7FB0201B6EB0B019F
:1005800064EB00042B0D43EA0C335E1844EB1C5063
:10059000DA465146E7FB0201C5F313044FEA0B3379
:1005A00043EA14534FEA0432019C43EA0603A4F1E0
:1005B0000C040294009CCDE900B400F0A1F903B052
:1005C000BDE8F08F00200146F9E72DE9F04D81EA02
:1005D000030404F0004B21F0004514464FF0000ADC
:1005E00023F0004150EA050220D054EA01021DD058
:1005F000C5F30A570246C5F31303C1F31300C1F351
:100600000A5640F4801543F48013A7EB0608101B2C
:10061000D64608F2FD3873EB050002D308F1010855
:1006200001E092185B41B8F1000F03DA00200146A7
:10063000BDE8F08D00204FF48011064684460EE0A0
:10064000171B73EB050705D3121B63EB050306436A
:100650004CEA010C49084FEA300092185B4150EA1D
:100660000107EDD152EA030012D082EA040083EAC6
:100670000501084305D0101BAB4106D2012200231F
:1006800006E000224FF0004302E06FF00102531039
:100690001AEB06004CEB085110EB0A0041EB0B0182
:1006A000BDE8F04D00F01DB9C10F80EAE0700844CC
:1006B000CA079623002100F0E6B8962300221146CF
:1006C00000F0E1B800F0004220F00040C10DC0F39E
:1006D000160040F400007F2901DA002070479629B7
:1006E00003DCC1F19601C84001E096398840002A38
:1006F000F4D04042704720F00040C10DC0F3160016
:1007000040F400007F2901DA00207047962903DCBD
:10071000C1F19601C840704796398840704700F093
:10072000004230F000400AD0C10D01F56071C0F305
:10073000160042EA0151C2084007114370470020E9
:100740000146704701F0004330B421F0004150EA07
:10075000010206D00A0DA2F56072C1F31301002A4E
:1007600002DC30BC00207047440F44EAC104C100E1
:10077000E01830BC00EBC25000F07CB8002801DB70
:10078000C0F10040002901DBC1F100418142704706
:10079000002801DBC0F10040002901DBC1F100416C
:1007A0008842704730B50B460146002020220124C4
:1007B00009E021FA02F59D4205D303FA02F5491B2F
:1007C00004FA02F52844151EA2F10102F1DC30BD45
:1007D0002DE9F05F0546002092469B468846064676
:1007E000814640241BE0284641464746224600F009
:1007F0002FF953465A46C01A914110D31146184654
:10080000224600F016F82D1A67EB01084F462246E3
:100810000120002100F00DF817EB00094E41201EC9
:10082000A4F10104DFDC484631462A464346BDE8D0
:10083000F09F202A04DB203A00FA02F100207047E2
:100840009140C2F1200320FA03F31943904070470E
:10085000202A06DBCB17203A41FA02F043EAE07384
:1008600006E041FA02F3D040C2F120029140084371
:10087000194670470029A8BF7047401C490008BFAF
:1008800020F00100704710B4B0FA80FC00FA0CF0C0
:1008900050EA010404BF10BC704749B1CCF12004F8
:1008A00021FA04F411FA0CF118BF01212143084385
:1008B000A3EB0C01CB1D4FEA00614FEA102042BFB1
:1008C000002010BC704700EBC35010440029A4BFA7
:1008D00010BC7047401C490008BF20F0010010BC4C
:1008E000704710B5141E73F1000408DA401C41F182
:1008F000000192185B411A4301D120F0010010BDA4
:100900002DE9F04D92469B4611B1B1FA81F202E019
:10091000B0FA80F220329046FFF78BFF04460F4674
:1009200040EA0A0041EA0B0153465A46084313D0F5
:10093000114653EA010019D0C8F14002504600F0B8
:1009400087F805460E46504659464246FFF771FF66
:10095000084305D0012004E020463946BDE8F08D6B
:100960000020054346EAE0762C4337430A986305A6
:10097000E40AA0EB08000022FD0A44EA47540A30CA
:1009800002D500200146E9E7010510196941DDE9BA
:10099000084500196941BDE8F04DA2E770B521F0A6
:1009A000004303430CD0C1F30A550024D5EB0405E2
:1009B00064EB0403D617AD1AB34102DB00200146F5
:1009C00070BD201841EB025170BDC1F30A52C1F352
:1009D000130140F2FF3341F480119A4202DA002001
:1009E0000146704740F233439A42A2F2334202DC9E
:1009F000524200F02DB8FFF71CBF000030B5041EB6
:100A000071F1000404DB4FF00044404264EB01014B
:100A1000141E73F1000405DB1C464FF000435242E4
:100A200063EB0403994208BF904230BD064C074D6A
:100A300006E0E06840F0010394E8070098471034AE
:100A4000AC42F6D3FFF778FBE86D0008086E0008AB
:100A5000202A04DB203A21FA02F00021704721FA13
:100A600002F3D040C2F1200291400843194670477A
:100A70002DE9F04D00231A461B1A8A4103DB0020A2
:100A80000146BDE8F08DC1F30A52C1F3130141F4F0
:100A900080154FF0000BD10702D100186D41521E96
:100AA0000027044640F2FF11384601EB620A3E4639
:100AB0008046024600204FF48011FFF7C9FFC2199B
:100AC0007141BB1846EB0100B4EB030C75EB000C55
:100AD00004D3E41A65EB000517460E46241908F105
:100AE00001006D4180463428E3DDF91946EB06002C
:100AF000091BA84103D24FF0FF32134601E0002248
:100B000013461BEB070046EB0A51BDE8F04DFFF71B
:100B1000E8BE00BFFEE770471CB50121084600F0A3
:100B200045FE0021012000F0BBF9012000900020CB
:100B30008DF804000C208DF8050001208DF80600CA
:100B4000684600F091F81CBD2DE9F0412648006888
:100B5000002843D12548007860B1254A2549264818
:100B600000F024FB254A2649264804F0D1F800204D
:100B70001E49087000240025042000F091FE07465D
:100B8000032000F08DFE06461C4A1D491D4804F056
:100B9000BFF8174A1749184800F008FB15480088A5
:100BA00019490988401A00B212490880174801689B
:100BB00014480068FFF77AFB12490860144911488D
:100BC0000068FFF7DBFD05D312490E480068FFF708
:100BD000DFFD02D200200446054600BF022000F0DF
:100BE00029F8BDE8F0810000008121424800002082
:100BF0003C0000203A000020380000203400002093
:100C0000300000202C000020400000204400002084
:100C100000000CC200000C4210B54FF4004000F080
:100C20000FF828B101F030FD4FF4004000F002F859
:100C300010BD000001490860704700001404014025
:100C4000014600200022074B1B6803EA0102054B06
:100C500014331B680B4013B10AB1012000E00020DF
:100C60007047000000040140002123498279002AD6
:100C70003AD00A46126803689A430B461A600A1D66
:100C8000126803689A430B1D1A60027911440A68BE
:100C900003681A430A60184A0832126803689A43C4
:100CA000154B08331A601A1D126803689A43124BD9
:100CB0000C331A604279102A0ED11A1F1268036889
:100CC0001A430D4B08331A601A1D126803681A4341
:100CD000094B0C331A600DE00749427911440A6848
:100CE00003681A430A6005E0027911440A68036840
:100CF0009A430A60704700000004014000B587B0C5
:100D000004A801F087FA0121022000F03FFD002035
:100D1000ADF81600ADF812004FF6FF70ADF81400F4
:100D20000020ADF8100004A9314801F021FA01219A
:100D30002F4801F085F800231A4603212C4801F0C2
:100D4000ACF801A801F032F90A20ADF80C0001A9B5
:100D5000274801F0D5F80021254801F0DAF90121F2
:100D6000234801F079F801221146214801F027F9C2
:100D700001211F4801F076F80121042000F006FD52
:100D80000020ADF81600ADF812004FF6FF70ADF878
:100D900014000020ADF8100004A9164801F0E8F98D
:100DA0000121144801F04CF800231A460321114890
:100DB00001F073F801A801F0F9F80A20ADF80C0071
:100DC00001A90C4801F09CF800210A4801F0A1F9A2
:100DD0000121084801F040F801221146054801F0C0
:100DE000EEF80121034801F03DF807B000BD000016
:100DF000000400400008004008B50121022000F076
:100E0000C5FC0121082000F0D1FC3020ADF8000025
:100E100004208DF8030069460D4800F061F80121B7
:100E2000084600F0C3FC01210A4800F0E5F8012162
:100E3000042000F0ABFC0121082000F0B7FCC0202A
:100E4000ADF800006946024800F04AF808BD00000D
:100E5000000C014000081A0010B5FFF7CDFF00F0AC
:100E600003F8FFF74BFF10BD08B54FF4A06000F08A
:100E70004DFC1D208DF8000001208DF801008DF83B
:100E800002008DF80300684600F008FC1E208DF873
:100E9000000002208DF80200684600F0FFFB08BD4C
:100EA00030B500228B071C0F0F2303FA04F20B4B03
:100EB0008C1053F824309343084C8D1044F825309F
:100EC00023468C1053F824308C07240F00FA04F4C6
:100ED0002343024C8D1044F8253030BD08000140FA
:100EE0002DE9F041024600250026002000230024C1
:100EF000002791F803C00CF00F0591F803C00CF027
:100F0000100CBCF1000F03D091F802C04CEA0505AB
:100F100091F800C0BCF1000F31D0146800202BE024
:100F20004FF0010C0CFA00F3B1F800C00CEA030614
:100F30009E4220D183004FF00F0C0CFA03F7BC4304
:100F400005FA03FC4CEA040491F803C0BCF1280F35
:100F500006D14FF0010C0CFA00FCC2F814C00AE0F4
:100F600091F803C0BCF1480F05D14FF0010C0CFA09
:100F700000FCC2F810C0401C0828D1D31460B1F89E
:100F800000C0BCF1FF0F34DD546800202EE000F1FA
:100F9000080C4FF0010808FA0CF3B1F800C00CEA95
:100FA00003069E4221D183004FF00F0C0CFA03F789
:100FB000BC4305FA03FC4CEA040491F803C0BCF1FD
:100FC000280F05D100F1080C08FA0CF8C2F81480BB
:100FD00091F803C0BCF1480F07D100F1080C4FF0A5
:100FE000010808FA0CF8C2F81080401C0828CED37B
:100FF0005460BDE8F0810000F0B50A4600230024EB
:101000000021002500F00046B6F1004F02D11D4E30
:10101000F16901E01B4E7168C0F3034583B200F42F
:101020004016B6F5401F08D121F07061154E766864
:1010300026F07066134F7E6012E000F48016B6F55D
:10104000801F06D1032606FA05F4A14341F0706122
:1010500006E0460D360103FA06F6B14341F0706131
:1010600022B1460D360103FA06F6314300F0004680
:10107000B6F1004F02D1034EF16101E0014E716003
:10108000F0BD00000000014000BFFEE708B50620EB
:101090008DF8000002208DF8010001208DF802007B
:1010A0008DF80300684600F0F9FA08BD08B5012183
:1010B000082000F07BFB0220ADF8000010208DF826
:1010C000030003208DF8020069460948FFF708FF76
:1010D0000121082000F06AFB0120ADF80000482043
:1010E0008DF8030069460248FFF7FAFE08BD0000CC
:1010F000000C014010B50246072A24DC012910D15A
:1011000094000F2303FA04F0274B1B688343264CFB
:10111000236023461B6800F088342343224C23605D
:1011200040E051BB94000F2303FA04F01E4B1B68F0
:1011300083431D4C236023461B6800F03334234354
:10114000194C23602EE00F2A2CDCA2F10803DAB23E
:10115000012913D194000F2303FA04F0124B1B1D35
:101160001B688343104C241D236023461B6800F03A
:10117000883423430C4C241D236013E091B9940060
:101180000F2303FA04F0084B1B1D1B688343064C16
:10119000241D236023461B6800F033342343024C94
:1011A000241D236010BD0000000C01402DE9FC410E
:1011B00004460D4616466B4606224321682000F081
:1011C00082F90746BFB99DF801009DF8001040EA7A
:1011D000012000B220809DF803009DF8021040EA33
:1011E000012000B228809DF805009DF8041040EA17
:1011F000012000B230803846BDE8FC8110B50020E7
:101200000A49086000210A20FFF774FF00200849FE
:10121000C1F8A80100F00EF801200449086000F0B0
:1012200009F800200249C1F8AC0110BDAC8121428F
:101230000080214210B5022002F08AFB10BD0000A0
:1012400008B50121082000F0B1FA4FF44060ADF874
:10125000000010208DF8030003208DF8020069467D
:101260000148FFF73DFE08BD000C014010B500200D
:101270000A49086000210A20FFF73CFF01200849C5
:10128000C1F8A801FFF7D6FF012004490860FFF765
:10129000D1FF00200249C1F8AC0110BDAC81214250
:1012A0000080214270B50546002401210A20FFF785
:1012B00021FF002614E000200E490860FFF7BAFF66
:1012C00001200D49C1F8AC016006040E09488438BC
:1012D000006808B1601CC4B2FFF7ACFF701CC6B256
:1012E000082EE8DB15B9FFF7C1FF01E0FFF786FF25
:1012F000204670BDAC8121420080214270B5044679
:1013000000210A20FFF7F6FE00200D4908600025A5
:1013100012E0E0090A49091F08606006040E012076
:101320000849C1F8AC01FFF785FF002004490860B7
:10133000FFF780FF681CC5B2082DEADB70BD000016
:10134000AC8121420080214210B500210A20FFF724
:10135000D1FE0120084908600849C1F8AC01FFF737
:1013600069FF002004490860FFF764FF002003497B
:10137000C1F8AC0110BD0000A881214200802142CB
:1013800010B500210A20FFF7B5FE002007490860CC
:101390000749C1F8A801FFF74DFF01200349086084
:1013A0000349C1F8A801FFF745FF10BDAC812142F8
:1013B0000080214210B5002401210A20FFF79AFE87
:1013C00001200E490860FFF735FF01200C49C1F8E4
:1013D000AC01FFF72FFF07E0601CC4B2FA2C03DD5D
:1013E000FFF7CEFF012010BD0448803800680028B8
:1013F000F2D10249091D086000BFF4E7A88121422B
:101400000080214210B5FFF751FEFFF785FB002059
:101410001D490860FFF714FF80216B2000F0D7F80A
:10142000642002F06FFA00216B2000F0D0F8032056
:1014300000F08BF8002000F080F84FF4967000F078
:10144000A9F80021382000F0C2F800216A2000F03D
:10145000BEF80021232000F0BAF88021372000F0E8
:10146000B6F8752000F012F80446682C08D1012166
:101470006B2000F0ACF800216C2000F0A8F801E02F
:10148000012010BD0020FCE78481214270B5044694
:10149000FFF75AFFD020FFF731FFFFF78BFF204601
:1014A000FFF72CFFFFF786FFFFF74EFFD120FFF776
:1014B00025FFFFF77FFF0020FFF7F4FE0546FFF74B
:1014C0005FFF284670BD2DE9F04106460F461446E1
:1014D0001D46FFF739FF002141EA4601C8B2FFF778
:1014E0000DFFFFF767FF20B1FFF74AFF0120BDE8BE
:1014F000F0813846FFF702FFFFF75CFFFFF724FF9C
:10150000012101EB4601C8B2FFF7F8FEFFF752FFD9
:101510000DE0012C04D10020FFF7C4FE287003E089
:101520000120FFF7BFFE2870601EC4B26D1C002CA6
:10153000EFD1FFF725FF0020D9E710B50446E006FC
:10154000010E1C2000F043F810BD10B50446E00663
:10155000010E1B2000F03BF810BD70B504460025BD
:10156000BC2C01DB012510E0622C01DB02250CE024
:101570002A2C01DB032508E0142C01DB042504E000
:101580000A2C01DB052500E0062529461A2000F07B
:101590001EF870BD70B50446B4F57A7F01DD4FF4D6
:1015A0007A74042C00DA04244FF47A7090FBF4F07F
:1015B000401EC5B22946192000F009F80546264606
:1015C00004EBD671C1F34F00FFF7C7FF70BD70B5D4
:1015D00005460C46FFF7B8FED020FFF78FFEFFF759
:1015E000E9FE18B1FFF7CCFE012070BD2846FFF7D9
:1015F00085FEFFF7DFFE2046FFF780FEFFF7DAFEED
:1016000018B1FFF7BDFE0120EFE7FFF7B9FE00209C
:10161000EBE72DE9F04105460E4617469846FFF7E1
:1016200093FE002141EA4501C8B2FFF767FEFFF7CC
:10163000C1FE20B1FFF7A4FE0120BDE8F0813046D5
:10164000FFF75CFEFFF7B6FE00240CE018F804007C
:10165000FFF754FEFFF7AEFE18B1FFF791FE012031
:10166000EBE7601CC4B2BC42F0DBFFF789FE002050
:10167000E3E700BFFEE710B500F046FB00F066FBB5
:1016800000F0FCF910BD704710B500F0BBFF00F092
:10169000FEFD01F02BF8FFF7F9FC10BD70B500213D
:1016A00000230F22C47804B3154C246804F4E064CA
:1016B000C4F5E064210AC1F10403CA40447804FA85
:1016C00003F184781440214309010E4C0678A1559A
:1016D000047804F01F050124AC4005786D11AD00BD
:1016E00005F1E025C5F8004109E0047804F01F0584
:1016F0000124AC40044D0678761145F8264070BDB3
:101700000CED00E000E400E080E100E0024901436C
:10171000024A1160704700000000FA050CED00E07D
:10172000704700000FB470B5FEB0054684A8009065
:101730004FF4FA7101A8009B839A01F027F806463E
:101740000E48854203D101200D49087005E00D487F
:10175000854202D102200A4908700020009000242E
:1017600005E001A8015D08A001F000F8641CB44286
:10177000F7DB30467EB070BC5DF814FB00380140EA
:101780004A000020004400402563000029B1064AB9
:10179000D2690243044BDA6104E0034AD26982430E
:1017A000014BDA61704700000010024029B1064A7F
:1017B00092690243044B9A6104E0034A92698243AE
:1017C000014B9A61704700000010024030B50021C3
:1017D0000022002400232D4D6D6805F00C0121B17D
:1017E000042905D0082923D105E0294D056022E010
:1017F000274D05601FE0254D6D6805F47012234DDF
:101800006D6805F48034022505EB92421CB9214D28
:10181000554305600BE01D4D6D6805F400351DB1A5
:101820001C4D5543056002E0194D5543056002E02B
:10183000174D056000BF00BF144D6D6805F0F00145
:101840000909154D6B5C0568DD4045600F4D6D68FD
:1018500005F4E061090A104D6B5C4568DD40856068
:101860000A4D6D6805F46051C90A0B4D6B5C456803
:10187000DD40C560054D6D6805F44041890B074D9D
:101880006B5CC568B5FBF3F5056130BD0010024027
:1018900000127A0000093D001800002028000020F6
:1018A0000146022906D003290DD0042912D00529AA
:1018B0001ED116E04FF08042928C10B200224FF001
:1018C00080439A8416E00C4A128810B200220A4B18
:1018D0001A800FE0094A128810B20022074B1A80C2
:1018E00008E0074A128810B20022054B1A8001E076
:1018F000002000BF00BF70472404004024080040BF
:10190000240C0040704710B500F002F810BD000034
:101910000CB50020019000903348006840F48030FE
:101920003149086000BF3048006800F40030009082
:101930000198401C0190009818B90198B0F5A06F6B
:10194000F1D12948006800F4003010B10120009066
:1019500001E0002000900098012843D1234800684E
:1019600040F01000214908600846006820F003009C
:1019700008600846006840F0020008601A484068A5
:10198000194948600846406848600846406840F485
:10199000806048600846406820F47C104860084633
:1019A000406840F4E81048600846006840F08070E5
:1019B000086000BF0C48006800F000700028F9D0F3
:1019C0000948406820F0030007494860084640681D
:1019D00040F00200486000BF0348406800F00C007F
:1019E0000828F9D10CBD0000001002400020024080
:1019F000042808D14FF0E021096941F004014FF0BB
:101A0000E022116107E04FF0E021096921F00401B3
:101A10004FF0E022116170477047000010B5134885
:101A2000006840F00100114908600846406810490C
:101A300008400E494860084600680E4908400B49B6
:101A400008600846006820F4802008600846406866
:101A500020F4FE0048604FF41F008860FFF753FF3A
:101A60004FF000600449086010BD00000010024003
:101A70000000FFF8FFFFF6FE08ED00E008B50121C9
:101A80000820FFF793FE4FF47040ADF800001020DF
:101A90008DF8030003208DF8020069460748FFF720
:101AA0001FFA0020064908600649C1F8B40104493C
:101AB000083108600349C1F8BC0108BD000C0140B1
:101AC000B081214200802142F0B50C46154600222B
:101AD0000021068C4FF6FE773E400684028B018C77
:101AE0004FF60C7632407E1C06EA03162E43324334
:101AF000104EB0420ED0104EB0420BD0B0F1804F1D
:101B000008D00E4EB04205D00D4EB04202D00D4E60
:101B1000B04206D14FF6FD76314044F00106314324
:101B200005E04FF6F576314044F00106314302837B
:101B30000184F0BD002C014000340140000400404D
:101B400000080040000C0040F0B50C46154600228D
:101B500000210026078C4FF6EF7C07EA0C0707846C
:101B6000028B018C4FF6FF7707EA041640F6FF4719
:101B70003A404FF6FF7707EA03373A434FF6FF77CD
:101B800007EA05273A43114FB8420ED0104FB8422A
:101B90000BD0B0F1804F08D00E4FB84205D00E4F99
:101BA000B84202D00D4FB84206D14FF6DF77394028
:101BB00046F01007394305E04FF65F77394044F0AF
:101BC0001007394302830184F0BD0000002C01405E
:101BD000003401400004004000080040000C0040B8
:101BE000F0B50C461546002200210026078C4FF662
:101BF000FF6C07EA0C070784828B018C4FF6FF7796
:101C000007EA04264FF60C773A404FF6FF7707EACB
:101C100003172F433A43114FB8420ED0104FB8422A
:101C20000BD0B0F1804F08D00E4FB84205D00E4F08
:101C3000B84202D00D4FB84206D14FF6FF57394097
:101C400046F48077394305E04FF2FF57394044F4BA
:101C50008077394382830184F0BD0000002C01406D
:101C6000003401400004004000080040000C004027
:101C7000F0B50C461546002200210026078C4EF6D2
:101C8000FF7C07EA0C070784828B018C4FF6FF77F5
:101C900007EA043640F6FF473A404FF6FF7707EA77
:101CA00005273A434FF6FF7707EA03373A43114FC8
:101CB000B8420ED0104FB8420BD0B0F1804F08D0D0
:101CC0000E4FB84205D00E4FB84202D00D4FB84269
:101CD00006D14DF6FF77394046F48057394305E089
:101CE00047F6FF57394044F48057394382830184D3
:101CF000F0BD0000002C0140003401400004004011
:101D000000080040000C004008B501210420FFF746
:101D10004DFD4FF48070ADF8000018208DF80300E1
:101D200003208DF8020069460748FFF7D9F8012122
:101D30000420FFF73BFD4FF40060ADF8000069465A
:101D40000148FFF7CDF808BD0008014000B587B095
:101D50000121C802FFF72AFD42F21070ADF814000D
:101D60000020ADF81000ADF81600ADF8120004A97F
:101D7000174800F0FDF96020ADF800000120ADF833
:101D800002000020ADF80600ADF8080069461048D2
:101D900000F01EF969460E4800F070F901210C4868
:101DA00000F06CF808210A4800F05EF908210848A4
:101DB00000F0A2F90121064800F042F80021044891
:101DC00000F0A7F90121024800F04CF807B000BD6F
:101DD000002C014010B50121880700F07FF818B1F0
:101DE0000121880700F03BF810BD000010B501216B
:101DF000044800F073F818B10121024800F02FF8F0
:101E000010BD00000004004010B50121044800F09E
:101E100065F818B10121024800F021F810BD00005A
:101E20000008004010B50121044800F057F818B12F
:101E30000121024800F013F810BD0000001000401E
:101E400021B1028842F08002028004E002884FF64D
:101E50007F731A4002807047CA4302827047CA43A8
:101E60000282704721B1028842F00102028004E040
:101E700002884FF6FE731A400280704731B1B0F805
:101E8000442042F40042A0F8442005E0B0F8442089
:101E9000C2F30E02A0F844207047F0B50C46154678
:101EA0001E460021002200230189028B038C4FF67D
:101EB000F877394021434FF6FC473A4040F201178A
:101EC0003A434FF6DD773B404FF6FF7707EA0617B8
:101ED0002F433B43018102830384F0BD30B50246AA
:101EE000002000230024158A05EA0103958905EAEC
:101EF000010413B10CB1012000E0002030BD00004E
:101F000070B505460C46244885420ED023488542CC
:101F10000BD0B5F1804F08D02148854205D021482B
:101F2000854202D02048854200D100E000BF2088D1
:101F300050B92389A28861882846FFF7C5FDE1884A
:101F4000284600F0E8F825E0208804280AD12389F3
:101F5000A28861882846FFF7F7FDE188284600F04F
:101F6000E3F817E0208808280AD12389A28861882D
:101F70002846FFF735FEE188284600F0E2F809E040
:101F80002389A28861882846FFF772FEE1882846E7
:101F900000F0E0F870BD0000002C0140003401406A
:101FA0000004004000080040000C004000210180B7
:101FB0004180012181800021C180018170471AB1D7
:101FC00083890B43838102E083898B43838170473C
:101FD00070B5002400220023058C4FF6FE763540B4
:101FE0000584028C8388048B4FF68F752C40B51EB8
:101FF0002C400D882C43751E2A400D892A434D889C
:102000002A43144DA8420BD0134DA84208D0134DBB
:10201000A84205D0124DA84202D0124DA84213D1B9
:102020004FF6F7752A404D892A434FF6FB752A4033
:102030008D882A434FF6FF652B404FF6FF552B4006
:102040008D892B43CD892B4383800483CD8885865E
:10205000028470BD002C014000340140004001406A
:1020600000440140004801400A460021018B4FF620
:10207000F7731940114301837047000070B50022C7
:1020800000230024058C4EF6FF7635400584038C32
:102090008488828B48F6FF752A404FF6FF452A4018
:1020A0000D884FF6FF7606EA05252A434DF6FF75A3
:1020B0002B400D8906EA05352B434D8806EA053588
:1020C0002B430B4DA84202D00A4DA84208D14BF633
:1020D000FF752C408D894FF6FF7606EA85152C4357
:1020E00084808283CD88A0F84050038470BD0000B6
:1020F000002C0140003401400A460021818B4FF240
:10210000FF7319404FF6FF7303EA022319438183DB
:10211000704781847047028B4FF6F3731A40028335
:10212000028B0A4302837047028B4FF2FF331A403F
:102130000283028B4FF6FF7303EA01231A430283E3
:102140007047828B4FF6F3731A408283828B0A4367
:1021500082837047828B4FF2FF331A408283828BD7
:102160004FF6FF7303EA01231A438283704700008E
:10217000002202881D4B98420ED01D4B98420BD076
:10218000B0F1804F08D01B4B984205D01A4B9842B3
:1021900002D01A4B984204D14FF68F731A404B88E5
:1021A0001A43174B984207D0164B984204D04FF66B
:1021B000FF431A40CB881A4302808B8883850B88A3
:1021C00003850A4B98420BD0094B984208D00E4B1E
:1021D000984205D00D4B984202D00D4B984201D148
:1021E0000B7A03860123838270470000002C014094
:1021F000003401400004004000080040000C004092
:102200000010004000140040004001400044014024
:10221000004801404FF6FF71818000210180C1809C
:102220004180017270470EB56846FFF7F3FF012148
:102230000846FFF7ABFA0020ADF80600ADF8020043
:102240004FF6FF70ADF804004720ADF80000694676
:102250004FF08040FFF78CFF00214FF08040FFF7E8
:1022600058FF012211469007FFF7A9FE01218807B8
:10227000FFF7F2FD00214FF08040FFF7F3FD0EBDA8
:10228000704710B5FFF7FCFFFFF7CDFF10BD08B595
:102290001C208DF8000001208DF8010000208DF831
:1022A000020001208DF803006846FFF7F7F908BD2A
:1022B00010B540F225510F4800F0E9F8C0B10E48C2
:1022C000007801280ED1002406E00C48025D0CA124
:1022D0000848FFF727FA641C681EA042F5DC0020BE
:1022E0000549087040F22551024800F030F800BF5F
:1022F00010BD0000003801404C000020B00000205C
:102300002563000010B540F225510B4800F0BFF8DE
:1023100020B140F22551084800F019F8082106487C
:1023200000F0A8F830B10821034800F007F802488F
:1023300000F082F910BD00000044004001F400727A
:10234000B2F5007F00D100BFCA430280704710B5CC
:102350000022002340F66A14A14200D100BF0A12F5
:1023600001249440A3B2DC43048010BD21B18289D2
:1023700042F40052828104E082894DF6FF731A40D4
:102380008281704700B585B001210420FFF70EFA65
:1023900001218803FFF70AFA01210420FFF706FA5A
:1023A00001214804FFF7F2F94FF40070ADF8100076
:1023B00018208DF8130003208DF8120004A92A4874
:1023C000FEF78EFD0420ADF8100004A92648FEF7A4
:1023D00087FD4FF48060ADF8100004208DF81300E5
:1023E00004A92148FEF77CFD0820ADF8100004A9DF
:1023F0001D48FEF775FD4FF4E13000900020ADF868
:102400000400ADF80600ADF80800ADF80C000C2093
:10241000ADF80A006946154800F088F84FF4E1303D
:1024200000906946124800F081F8012240F22551DF
:102430000E4800F056F8012240F225510C4800F0F9
:1024400050F801210948FFF791FF01210848FFF7E3
:102450008DFF40210548FFF771FF40210448FFF739
:102460006DFF05B000BD00000008014000380140CC
:102470000044004002460020B1F5007F00D100BFBB
:1024800013880B400BB1012000E00020704770B5AD
:102490000246002400230025002040F66A16B142BF
:1024A00000D100BFC1F3421501F01F03012606FA57
:1024B00003F3012D02D19689334006E0022D02D1AB
:1024C000168A334001E0968A33400C12012606FA40
:1024D00004F41688344013B10CB1012000E0002050
:1024E00070BDF0B50346002400260025002040F60C
:1024F0006A17B94200D100BF1846C1F3421401F077
:102500001F06012707FA06F5012C01D10C3004E063
:10251000022C01D1103000E014301AB107682F43AB
:10252000076002E00768AF430760F0BD2DE9F047A0
:1025300086B005460E460024A24600BFA1460027ED
:10254000B08900B100BF2F462C8A4CF6FF700440C2
:10255000F08804432C82AC894EF6F3100440B08816
:1025600031890843718908430443AC81AC8A4FF632
:10257000FF400440B0890443AC8201A8FFF726F96C
:102580001F48874202D1DDF810A001E0DDF80CA061
:10259000A88900F4004040B10AEBCA0000EB0A1021
:1025A00031684900B0FBF1F807E00AEBCA0000EB24
:1025B0000A1031688900B0FBF1F86420B8FBF0F034
:1025C00004012009642101FB1089A88900F400405E
:1025D00040B1322000EBC900B0FBF1F000F0070081
:1025E000044308E0322000EB09106421B0FBF1F055
:1025F00000F00F0004432C8106B0BDE8F087000016
:102600000038014008B525208DF8000002208DF823
:10261000010000208DF8020001208DF803006846BB
:10262000FFF73CF826208DF8000000208DF802000E
:102630006846FFF733F808BD01468888C0F30800F4
:102640007047C1F308028280704710B500F05EF851
:1026500000F001F810BD1CB501210846FFF7A6F8EF
:102660000F210020FEF71CFC4FF4004000900020DA
:102670008DF8040008208DF8050001208DF8060073
:102680006846FEF7F1FA1CBD10B514480068012831
:1026900022D100218007FFF73CFD01218807FFF7C9
:1026A000E1FB0BE04FF08040808C4EF660218842C9
:1026B00004DD0BA10C48FFF735F803E0074800687C
:1026C0000028EFD100BF4FF0804000884FF6FE7128
:1026D00008404FF08041088010BD00003C012142BD
:1026E0004552524F520A00000038014008B52820D8
:1026F0008DF8000001208DF801008DF802008DF8A2
:1027000003006846FEF7CAFF08BD000008B50121B6
:102710000420FFF74BF810208DF803000002ADF8FD
:10272000000003208DF8020069460D48FEF7D8FB33
:1027300001210846FFF73AF801210420FFF736F897
:1027400001210848FEF758FC28208DF803004FF4BB
:102750000040ADF8000069460148FEF7C1FB08BD26
:10276000000801400002300000BFFEE70FB4054B37
:1027700010B503A9044A029800F072F910BC5DF884
:1027800014FB000051450008A80000207CB5044659
:1027900000201D46164600290BD0491ECDE90041F8
:1027A000044B6A462946304600F05AF9009A002147
:1027B00011707CBD8F310008490050EAC12018BF5C
:1027C00004204A0D18BF40F0010040F2FF72B2EB46
:1027D000515F08BF40F00200012808BF0520704784
:1027E0002DE9F0414F1E00EBC7010446D1E900017D
:1027F00015461E4637F006020DD02A463346FDF731
:1028000072FE7F1E04EBC703D3E90023FDF7C4FD6E
:1028100037F00602F1D1022F25D0042F13D0062F56
:1028200018BFBDE8F0812A463346FDF75CFED4E9C7
:102830000A23FDF7B1FD2A463346FDF754FED4E9DD
:102840000823FDF7A9FD2A463346FDF74CFED4E9DF
:102850000623FDF7A1FD2A463346FDF744FED4E9E1
:102860000423FDF799FD2A463346FDF73CFED4E9E3
:102870000223FDF791FD2A463346FDF734FED4E9E5
:102880000023BDE8F041FDF787BD0122FEF786B8C1
:10289000FDF782BD0022134610461146FDF795BE96
:1028A000024A00201107FEF779B8000001FDFFFF82
:1028B00002E008C8121F08C1002AFAD17047704709
:1028C000002001E001C1121F002AFBD17047000067
:1028D0000149086070470000AC0000202DE9FF5F4F
:1028E00082B00021DDE90430020DDDF840B0034381
:1028F00018D044F61050A2F2FF324243151411983A
:1029000001281FD0A5EB0B00401C5FEA000A4FF026
:1029100000064E4FDFF83891B046504615D5CAF143
:10292000000413E0119801244AA3012801D16FEAA1
:102930000B010298119AC0E90031C0E9024206B0C9
:10294000BDE8F09FCBF10000DFE704460021404ADC
:10295000491842EB0450CDE9001012E0E00707D01F
:1029600032463B4640464946FDF7BDFD8046894616
:1029700032463B4610461946FDF7B5FD06460F4662
:102980006410002CEAD1DDE90401DDE90023BAF18D
:10299000000F06DAFDF7A7FD42464B46FDF7A3FD03
:1029A00005E0FDF712FE42464B46FDF70EFE0446DB
:1029B0000E460022284BFEF721F803D84FF0FF30D7
:1029C000014607E00022254B20463146FDF7E4FC96
:1029D000FDF7FBFF102409E0002C0ADB0A2200238C
:1029E000FDF7F6FE039B30321A55641E50EA0102D1
:1029F000F2D1641C039AC4F111031444119A012A00
:102A000003D0012208430DD10AE0084304D000207E
:102A10004FF0110B119072E7A3EB0B056D1E0DE04B
:102A20005B4504DD4FF0000205F1010504E003DA27
:102A30004FF00002A5F10105002AECD0029811998F
:102A4000C0E90231C0E9004579E700000000144008
:102A50000000F03F300000000000F0430000E03FC5
:102A60002DE9FF4F95B09B468946064600250FE2AB
:102A7000252877D100242746F84A0121059400E053
:102A8000044316F8013F203B01FA03F01042F7D14E
:102A900030782A2811D06FF02F033078A0F130025F
:102AA000092A16D8059A44F0020402EB820203EBCD
:102AB00042021044761C0590EFE759F8042B05926A
:102AC000002A03DA504244F40054059044F0020412
:102AD000761C30782E2816D116F8010F44F0040425
:102AE0002A280DD06FF02F023078A0F13003092B87
:102AF00009D807EB870302EB4303C718761CF3E7FB
:102B000059F8047B761C30786C280FD006DC4C28F2
:102B100017D068280DD06A2814D104E0742810D08A
:102B20007A280FD10DE044F400140AE044F4801434
:102B300001E044F440147278824202D104F580141A
:102B4000761C761C307866280BD013DC582877D09A
:102B500009DC002875D04528F6D04628F4D047284F
:102B60001AD19DE118E0632835D0642879D0652812
:102B700012D195E1702873D008DC6728F1D069285C
:102B80006FD06E280DD06F2806D1B5E073282CD0F9
:102B9000752875D0782874D05A46179990476D1CBF
:102BA00075E1C4F30250022809D003280DD0D9F8EA
:102BB000001004280DD00D6009F1040967E1D9F86F
:102BC0000010EA17C1E90052F6E7D9F800100D80AD
:102BD000F2E70D70F0E719F8041B8DF800100020E3
:102BE0008DF80100EA46012003E059F804AB4FF0EC
:102BF000FF3061074FF0000102D40DE008F1010140
:102C00008846B9420FDA8045F8DB1AF80810002927
:102C1000F4D108E008F1010188468142FADB1AF894
:102C200008100029F6D105985B46A0EB080721465D
:102C30003846179A00F094FA284400EB080507E09C
:102C40004DE029E10DE01AF8010B5A46179990471B
:102C5000B8F10108F7D25B4621463846179A13E1CE
:102C600042E00A220092C4F302524FF0000A022A04
:102C700008D059F804CB032A4FEAEC710AD00DE0D2
:102C800029E02AE009F1070121F00702F2E802C178
:102C9000914609E00FFA8CFC4FEAEC71042A03D14B
:102CA0004FFA8CFC4FEAEC71002907DA0A46002142
:102CB000DCF1000C61EB02012D2202E0220504D5BB
:102CC0002B228DF80420012203E0E20701D020220C
:102CD000F7E7904659E00A2102E010220DE01021AA
:102CE0004FF0000A00910BE010224FF0000A44F070
:102CF00004040827009203E008224FF0000A009223
:102D0000C4F30252022A05D059F804CB0021032A49
:102D100008D009E009F1070121F00702F2E802C139
:102D2000914605E01FFA8CFC042A01D10CF0FF0C3F
:102D30004FF00008220728D5702806D0009B83F0AA
:102D4000100353EA0A0305D00EE040228DF8042058
:102D5000012208E05CEA010206D030228DF804204E
:102D60008DF8050002229046009B83F0080353EA89
:102D70000A030AD15CEA010201D1620705D53022BB
:102D80008DF804204FF001087F1E582804D034A08D
:102D900003900EA802900DE036A0F9E75346604676
:102DA000009AFDF715FD84460398825C0298401E48
:102DB000029002705CEA0100F0D1029806A9081A9C
:102DC00000F1200A600702D524F4803400E00127D6
:102DD000574502DDA7EB0A0000E0002000EB0A01E6
:102DE000009005984144401A0590E00306D45B46E4
:102DF0002146179A059800F0B3F90544002706E02C
:102E000001A85A46C05D179990476D1C7F1C474525
:102E1000F6DBE0030CD55B462146179A059800F0D7
:102E20009FF9054404E030205A46179990476D1CDD
:102E30000099481E00900029F5DC08E002980299EC
:102E40005A460078491C0291179990476D1CBAF1B7
:102E50000001AAF1010AF1DC65E100000928010086
:102E60003031323334353637383961626364656600
:102E700000000000303132333435363738394142C2
:102E8000434445460000000000F058F90544761C14
:102E9000307800287FF4ECAD19B02846BDE8F08FFB
:102EA000620700D4062709F1070222F0070CFCE8AC
:102EB0000223E14603F000485FEA080C02D00FF25B
:102EC000702C0DE05FEA045C02D50FF2682C07E07D
:102ED0005FEAC47C02D00FF2602C01E0AFF2700C0C
:102EE0004FF0FF3823F00043CDF850C065280CD0D8
:102EF00006DC452809D046281DD047283DD13DE0B5
:102F0000662818D067287ED138E00021112F01DB18
:102F1000112000E0781CCDE9000106A90EA8FFF7FA
:102F2000DDFCDDE90F010E9A03910021009207F10B
:102F3000010A04914DE04FF000400097CDE90110E7
:102F400006A90EA8FFF7CAFCDDE90F0203920E9B4B
:102F500011990022DDF80CA00093049211B9791C9C
:102F600000EB010AB7EB0A0004D4C0F1FF3007F10F
:102F7000010A0490AAEB0700019044E0012F00DA57
:102F800001270021112F01DD112000E03846CDE995
:102F9000000106A90EA8FFF7A1FCDDE90F010E9ABA
:102FA0000391002104910092BA4621070CD40399A1
:102FB000514500DA8A46BAF1010F05DD009AAAF1FF
:102FC0000101515C302908D0B84202DA10F1040F37
:102FD00006DA0121CDE9011015E0AAF10101E9E7C6
:102FE000002805DC049901440491AAEB000102E0E9
:102FF000411C514500DD8A460499401A401C01904D
:103000004FF000400290200704D40198504501DBA6
:10301000CDF8048000208DF84F0002980DF14F0785
:10302000B0F1004F25D02B200E9002984FF00208EF
:1030300000280CDA404202902D200E9007E00A2171
:103040000298FDF7AFFB3031029007F8011DB8F18F
:103050000001A8F10108F2DC02980028EFD1791EE6
:103060000E980870307800F0200040F0450007F816
:10307000020D12A8C01B00F107081498007800B1D7
:10308000012000EB0A01019801EBE0710598414431
:10309000401A401E0590E00306D45B462146179A6D
:1030A000059800F05DF805441498007818B15A4668
:1030B000179990476D1CE00324D55B462146179A6B
:1030C000059800F04DF805441CE00498002807DB43
:1030D000DDE90301884203DD0098405C179901E0B7
:1030E000179930205A469047049805F10105401C75
:1030F00004900198401E019004D12E205A46179941
:1031000090476D1CBAF10001AAF1010ADDDC05E06F
:1031100017F8010B5A46179990476D1CB8F100013A
:10312000A8F10108F4DC5B462146179A0598ABE646
:103130002D0000002B000000200000002DE9F041D0
:10314000044600251E461746880404D405E0394687
:103150002020B0476D1C641EF9D52846BDE8F081DB
:103160002DE9F041044600251E469046C80301D5CE
:10317000302700E02027880404D505E04146384682
:10318000B0476D1C641EF9D52846BDE8F0814A6839
:10319000002A06D00A68531C0B6010704868401E55
:1031A000486070472DE9FE4F06460F4600256846E9
:1031B00001F0F8F9002442E056F8240057F82410F2
:1031C000A0EB010ABAF1000F01DB514601E0CAF1A0
:1031D00000010846FDF768FA83464FF08F41FDF77E
:1031E0009DF880465DF824000021FDF7C7FA16D04F
:1031F0005DF824104046FDF791F882464FF07E516D
:10320000FDF754F8814629F0004A0F48416A5046BC
:10321000FDF7BEFA12D20120A04005430EE00A4895
:10322000C1694046FDF7AAFA05D30748016A40463E
:10323000FDF7AEFA02D20120A0400543641C032C26
:10324000BADB2846BDE8FE8F886000082DE9F04D06
:103250008D4F21F0004A86B005460C46BA452ADB60
:10326000AAEB070028430AD08848824501DC1AD11E
:10327000CDB106B02846BDE8F04DFFF706BB844A45
:10328000844B2846FDF72FF907460E46824A834BAA
:1032900028462146FDF727F906B03A463346BDE8F1
:1032A000F04DFDF779B80120FFF712FB06B0BDE83D
:1032B000F04DFFF7EFBA7A48824542DABAF1795F0A
:1032C0000BDA2846FFF778FA042808BFFFF7E8FA78
:1032D000284606B02146BDE8F08D2A460B4610462A
:1032E000FDF701F9834602466E480E460B4606215D
:1032F0007844FFF775FA5A463346FDF7F4F88046EE
:1033000069488A465A46334604217844FFF768FAEA
:103310005A463346FDF7E7F800223B46FDF73CF8F6
:1033200002460B4640465146FDF74FF92A462346D2
:10333000FDF7D9F806B02A462346BDE8F04DFDF763
:103340002BB8284624F0004100223D463B46FDF7BD
:10335000C7F84FF0FF32FDF721FB064602465348FF
:103360000F460B4606217844FFF73AFA32463B46B1
:10337000FDF7B9F8CDE900014D4832463B4604213E
:103380007844FFF72DFA32463B46FDF7ACF80022B1
:103390002B46FDF701F8834602913046394602F08C
:1033A00039FE804643480D46504517DCDDE90001F3
:1033B0005A46029BFDF709F942462B46FDF793F862
:1033C00042462B46FCF7E8FF0122FDF7E7FA304AB8
:1033D000304BFDF782F8304A304B4CE04FF0000A9A
:1033E00052460B464046FCF7D7FFCDE90310524644
:1033F0002B4610461946FDF776F832463B46FDF758
:103400006FF8DDE90332FDF7E0F806460F46DDE927
:1034100000015A46029BFDF7D8F88346009101222D
:1034200030463946FDF7BAFA194A1A4BFDF758F8F3
:1034300006460F46012240462946FDF7AFFA5A4696
:10344000009BFDF750F832463B46FDF746F806462E
:103450000F46012250462946FDF7A0FA0E4DDFF82F
:1034600058802A464346FDF73BF832463B46FDF777
:1034700037F82A464346FDF733F8002CD8BF81F0D1
:10348000004106B0BDE8F08D0000F03F0000F07F85
:10349000075C143326A6913C182D4454FB21F93FB8
:1034A0000000E03FB4390000CA3900003E39000096
:1034B000543900003333EF3FFB21E93F2DE9F84F4A
:1034C00004460D4621F0004000917349814211DC11
:1034D0007249884201DC06D12CB120462946BDE85C
:1034E000F84FFFF7D2B96E48002DCCBF6D496E4939
:1034F000BDE8F88F6D49814211DD6D498142D8BF29
:103500004FF0FF366DDD20462946FFF755F90428B8
:1035100008BFFFF7C5F920462946BDE8F88F654981
:10352000654F25F00045814233DD6449814219DD54
:10353000002632464FF0804320462946FCF72CFFF8
:1035400080468A46012220462946FDF727FA0022B6
:103550003B46FCF7C2FF42465346FDF736F80446A9
:103560000D463EE001260022BA463B46204629464B
:10357000FCF712FF80460F4600225346204629469C
:10358000FCF7ABFF42463B46FDF71FF804460D46ED
:1035900027E04B4981421BDDDFF828A102260022EB
:1035A000534620462946FCF79EFF00223B46FCF787
:1035B000F3FE80460F460022534620462946FCF77C
:1035C0008CFF42463B46FDF700F804460D4608E0F6
:1035D000032622462B4600203B49FCF7F6FF044613
:1035E0000D4622462B4610461946FCF77CFF8B46BB
:1035F000824602460B46FCF776FF074602463348F2
:1036000088460B4606217844FFF7EAF852465B46A7
:10361000FCF769FF82462E488B463A464346052111
:103620007844FFF7DDF83A464346FCF75CFF024674
:103630000B46002E504659460CDAFCF7ADFE2246EA
:103640002B46FCF750FF01B022462B46BDE8F04F59
:10365000FCF746BFFCF7A0FE22462B46FCF743FFD3
:103660001C4A7A4402EBC603D3E90023FCF735FF7A
:1036700022462B46FCF731FF174A7A4402EBC60379
:10368000D3E90023FCF72CFF009A002AB8BF81F091
:103690000041BDE8F88F0000000010440000F07FFA
:1036A000182D4454FB21F93FFB21F9BF0000DC3FFA
:1036B0000000203E0000F33F0000F03F0000E63F26
:1036C000008003400000F83F0000F0BF56370000C4
:1036D00014370000B23600007A3600002DE9F04DB4
:1036E0009446CCF1000423F000464CEA0404524F07
:1036F00046EAD4749A46884621F00042BC4206D875
:10370000454240EA050442EAD474BC4204D9BDE80B
:10371000F04D6246FFF7BCB8AAF14055A5F17F65B0
:1037200055EA0C040BD0022404EAAA74434DDFF8D6
:1037300010E144EAD87452EA000B04D00CE0BDE872
:10374000F04DFFF7BBBE002C14BF012CBDE8F08D7F
:10375000022C30D0032C32D056EA0C0B0AD0BE42D9
:1037600020D1BA4209D126F0804622F08042334669
:10377000114617E000291ADB25E0DFF8C8B0FB444A
:10378000002C04BFDBE90001BDE8F08D012C02BF75
:10379000DBE9000181F00041BDE8F08D022C0AD088
:1037A000032C0CD0BA4212D1B8F1000F0BDA234827
:1037B0002549BDE8F08D28462449BDE8F08D28460E
:1037C0007146BDE8F08D1D482149BDE8F08D921B82
:1037D00012153C2AC4BF19481D490EDCBAF1000F6E
:1037E000BEBF12F13C0F0020014606DB6246FCF72B
:1037F000ECFE21F00041FFF761FE002C08BFBDE8A0
:10380000F08D012C04BF81F00041BDE8F08D114A1C
:10381000114B022C07D0FCF760FE2A46BDE8F04DA4
:103820000A4BFCF75ABEFCF758FE2A46BDE8F04D9D
:10383000064BFCF755BE00000000F07F182D4454E5
:10384000FB2109C00E360000FB21F9BFFB21094016
:10385000FB21F93F075C143326A6A13C2DE9F0417A
:103860000446E07800F0C006E07800F03F0560789C
:1038700000F0010098B1EF102846E91705EB5171EF
:10388000C910A5EBC101491C01F0FF080B480068F5
:1038900020B10A48414602683846904700BF607828
:1038A00000F0080030B10548406818B1B011034A73
:1038B000516888470020BDE8F08100000001002029
:1038C00010B56FF00400FEF793F80A4800680A4943
:1038D000B0FBF1F0094908700846007800EB4001A0
:1038E000C1EBC0104FF6FF7101EAC0000449088027
:1038F00010BD00000400002000127A00000000202B
:10390000020000200146114A12884A434FF0E0238A
:103910005A6100229A611A46126942F001021A6144
:1039200000BF4FF0E022106900F001021AB100F46C
:103930008032002AF5D04FF0E022126922F0010215
:103940004FF0E0231A6100229A61704702000020C4
:103950000146114A12784A434FF0E0235A6100228F
:103960009A611A46126942F001021A6100BF4FF0D3
:10397000E022106900F001021AB100F48032002A3E
:10398000F5D04FF0E022126922F001024FF0E0235F
:103990001A6100229A6170470000002038B5044681
:1039A00064B120208DF8000028208DF8010030201F
:1039B0008DF8020038208DF8030004E0A3220421D2
:1039C0006846FCF702FC6A46042140F69E2002F09D
:1039D0004FFA01F039FE38BD3EB5044602208DF89D
:1039E0000000CA208DF80100E3208DF802000920B4
:1039F0008DF803006A460421682002F039FAA320FA
:103A00008DF8000004F0400048B1C0208DF801009E
:103A1000C8208DF80200C2208DF8030006E0A32024
:103A20008DF801008DF802008DF8030004F4C070D9
:103A300048B1C4208DF80400CC208DF80500C620C4
:103A40008DF8060006E0A3208DF804008DF805002F
:103A50008DF80600A3208DF807008DF808008DF87A
:103A600009006A460A2140F6A72002F001FA04F094
:103A7000030018B120208DF8000002E0D8208DF856
:103A800000006A46012140F6B62002F0F1F904F088
:103A9000200018B1012000F0ADF802E0002000F095
:103AA000A9F804F4C07008B304F4807060B1B220C7
:103AB0008DF800008B208DF80100B6208DF80200F3
:103AC0009B208DF803000BE0B0208DF800008020D3
:103AD0008DF80100B4208DF8020090208DF80300CD
:103AE0006A46042140F6A22002F0C2F904F0010067
:103AF00020B3F8208DF800006A4601214FF40B60D6
:103B000002F0B6F9FA21072000F02CFC072000F0A3
:103B1000F3FB012000F013FC642000F0F3FC4FF4F1
:103B2000FA7000F002FDC821304800F0A3FB282005
:103B300000F0BCFB0A2000F0CCFB08E0D8208DF898
:103B400000006A4601214FF40B6002F091F904F085
:103B5000020018B1D9208DF8000002E0D8208DF8BD
:103B600000006A46012140F23D7002F081F904F044
:103B7000040018B1012000F069F802E0002000F014
:103B800065F804F0100018B10120FFF707FF02E00C
:103B90000020FFF703FF44F008001549488101F0B9
:103BA00053FD00201249887304F0400018B1084604
:103BB000807B801D887304F4C07020B10C48807B2A
:103BC000801D0B49887304F0140020B10848807BE5
:103BD00010300749887304F0030020B10448807B4B
:103BE000001D0349887300203EBD000009E3CA029E
:103BF000000100203EB504466CB10EA1D1E90020C1
:103C00008968CDE9002002916A4609214FF4976046
:103C100002F02EF93EBD0AA2D2E900109268CDE969
:103C2000010200916A4609214FF4976002F020F9E1
:103C3000F0E70000B8AAB38DB4980D355D00000020
:103C4000B8AAAAAAB088C3C5C700000038B5044600
:103C500064B1C0208DF80000C2208DF80100C4209E
:103C60008DF80200C6208DF8030004E08B220421A9
:103C70006846FCF7AAFA6A46042140F6982002F04A
:103C8000F7F801F0E1FC38BD10B5C8234FF48062AD
:103C9000024940F6F63001F06BFB10BDB060000841
:103CA0002DE9F04F8DB00746884615469946DDE967
:103CB000166B0024002030806B49887B5A4605A98A
:103CC00001F022FC18B1601E0DB0BDE8F08F66480F
:103CD000807A00F01400002867D09DF814000006D8
:103CE0009DF8151040EA01409DF8161040EA0120A9
:103CF0009DF81710084328609DF8180000069DF8ED
:103D0000191040EA01409DF81A1040EA01209DF880
:103D10001B10084368609DF81C0000069DF81D10EC
:103D200040EA01409DF81E1040EA01209DF81F1056
:103D30000843A8609DF8200000069DF8211040EA85
:103D400001409DF8221040EA01209DF8231008430D
:103D5000E86004F11000C4B228680014019068689B
:103D600000140290A86800140390E86800140490FE
:103D700001984043029901FB0100039901FB0100F6
:103D8000049901FB010ABAF1706F02DBBAF1885F96
:103D900005DD01F059FC00203080401E94E7B6F9A3
:103DA000000040F48070308000BF2F48807A00F01F
:103DB000400020B305A9601C085C095D40EA0120B1
:103DC00000B2A8F8000005A9E01C095C05AAA01C27
:103DD000105C41EA002000B2A8F8020005A9601DAD
:103DE000095C201D105C41EA002000B2A8F8040024
:103DF000A01DC4B2B6F9000040F0080030801A4897
:103E0000408900F4C07008B305A9601C085C095D16
:103E100040EA012000B2388005A9E01C095C05AA2F
:103E2000A01C105C41EA002000B2788005A9601D4A
:103E3000095C201D105C41EA002000B2B880A01D82
:103E4000C4B2B6F9000040F0700030800648807AB5
:103E500000F0030018B105A90819FFF7FFFC484658
:103E600000F01CFF00202FE70001002070B588B093
:103E7000064601A801F0D0F8BDF804000021C903EE
:103E800041EA5045C4034448007A00F0030056F864
:103E9000200005904048007A00F0040010B1059819
:103EA000404205903C48007AC0F3C10056F820001B
:103EB00006903948007A00F0200010B10698404280
:103EC00006903548007AC0F3811056F8200007901C
:103ED0003148008900F4807010B107984042079083
:103EE0000598C117A0FB042301FB043100FB05105A
:103EF000810041EA927005900698C117A0FB042347
:103F000001FB043100FB0510810041EA927006902C
:103F10000798C117A0FB042301FB043100FB051027
:103F2000810041EA927007900598000E8DF8080014
:103F30000598000C8DF809000598000A8DF80A0014
:103F40000598C0B28DF80B000698000E8DF80C0095
:103F50000698000C8DF80D000698000A8DF80E00EA
:103F60000698C0B28DF80F000798000E8DF810006B
:103F70000798000C8DF811000798000A8DF81200C0
:103F80000798C0B28DF8130002AA0C214FF42570D7
:103F900001F06EFF08B070BD0001002030B585B0A3
:103FA000044616A207CA02AB07C3C82C03DD4FF0B4
:103FB000FF3005B030BDC82090FBF4F0401E85B244
:103FC000280A8DF80000E8B28DF801006A46022147
:103FD00040F2162001F04CFF10B14FF0FF30E8E73F
:103FE00002AA0C2140F6C12001F042FF10B14FF0AF
:103FF000FF30DEE7044884810020DAE7FEF2ABC43C
:10400000AAF1DFDFBBAFDFDF000100201FB50446F0
:104010004848007A00F0030054F820000190454819
:10402000007A00F0040010B101984042019041482C
:10403000007AC0F3C10054F8200002903D48007A95
:1040400000F0200010B10298404202903948007AF6
:10405000C0F3811054F8200003903648008900F422
:10406000807010B10398404203903349019880FB5F
:104070000101800F40EA810001902F49029880FBE6
:104080000110820042EA917002902B49039880FB54
:104090000110820042EA917003900198000E8DF8A1
:1040A00000000198000C8DF801000198000A8DF8BD
:1040B00002000198C0B28DF803006A4604214FF453
:1040C000747001F0D5FE18B14FF0FF3004B010BD90
:1040D0000298000E8DF800000298000C8DF8010087
:1040E0000298000A8DF802000298C0B28DF8030011
:1040F0006A4604214FF4757001F0BAFE10B14FF01A
:10410000FF30E3E70398000E8DF800000398000CE1
:104110008DF801000398000A8DF802000398C0B2E0
:104120008DF803006A4604214FF4767001F0A0FE7A
:10413000CCE700000001002009E3CA0210B586B0F8
:10414000044647A00068039046A00068029046A07D
:104150000068019045A00068009004F0030003A9E6
:10416000085C8DF8140003A8C4F3C101405C8DF80D
:10417000150003A8C4F38111405C8DF8160004F00B
:10418000030002A9085C8DF8100002A8C4F3C10165
:10419000405C8DF8110002A8C4F38111405C8DF8D9
:1041A000120005AA032140F2264001F061FE18B179
:1041B0004FF0FF3006B010BD04AA032140F22A40A0
:1041C00001F056FE10B14FF0FF30F3E70198059073
:1041D0000098049004F0040058B19DF8140040F0D9
:1041E00001008DF814009DF8100040F001008DF8DA
:1041F000100004F0200058B19DF8150040F00100B7
:104200008DF815009DF8110040F001008DF81100A7
:1042100004F4807058B19DF8160040F001008DF84C
:1042200016009DF8120040F001008DF8120005AA5A
:1042300003214FF4886001F01BFE10B14FF0FF30F6
:10424000B8E704AA032140F2314001F011FE10B199
:104250004FF0FF30AEE7064804810020AAE70000D7
:104260004CCD6C000CC92C003656760026466600F4
:1042700000010020F8B505460E464FF47A7095FB14
:10428000F0F000FB06F4200E8DF80000200C8DF8F5
:104290000100200A8DF80200E0B28DF803006A46A2
:1042A00004214FF4AE7001F0E3FDF8BD38B50446CB
:1042B000052094FBF0F084B220128DF80000E0B2EB
:1042C0008DF801006A4602214FF4AD7001F0D0FD77
:1042D00038BD38B50446052094FBF0F084B22012B6
:1042E0008DF80000E0B28DF801006A4602214FF41B
:1042F000AC7001F0BDFD38BD38B50446002000901B
:1043000004F0010020B19DF8000040F03000009062
:1043100004F0020020B19DF8000040F00C00009075
:1043200004F0040020B19DF8000040F0030000906C
:104330006A4601214FF4A47001F09AFD38BD38B5EA
:104340000446012C01DA012402E0042C00DD0424DF
:10435000601EC0B200906A46012140F24F1001F089
:1043600087FD38BD2DE9FC4706460F4606F00700DD
:1043700010B1B7F5C86F03DD4FF0FF30BDE8FC8723
:104380003846FCF79AF981465949FBF7C7FF804642
:10439000684600F01BFE9DF80000022806D00428A5
:1043A00016D0082826D0102848D135E04FF08D418E
:1043B0004046FBF781FF8146FCF79DF984B24D49E9
:1043C0004046FBF779FF8146FCF795F985B238E066
:1043D0004FF08C414046FBF76FFF8146FCF78BF9AD
:1043E00084B245494046FBF767FF8146FCF783F9F5
:1043F00085B226E04FF08B414046FBF75DFF8146DA
:10440000FCF779F984B23D494046FBF755FF8146F8
:10441000FCF771F985B214E04FF08A414046FBF792
:104420004BFF8146FCF767F984B235494046FBF7FC
:1044300043FF8146FCF75FF985B202E04FF0FF30A1
:104440009CE700BF20128DF80400E0B28DF8050053
:1044500028128DF80600E8B28DF8070006F001007A
:10446000A0B101AA02214FF4EA7001F001FD10B1E0
:104470004FF0FF3082E70DF1060202214FF49270F7
:1044800001F0F6FC10B14FF0FF3077E706F00200C4
:10449000A0B101AA02214FF4EC7001F0E9FC10B1C7
:1044A0004FF0FF306AE70DF1060202214FF49470DD
:1044B00001F0DEFC10B14FF0FF305FE706F00400C2
:1044C000A0B101AA02214FF4EE7001F0D1FC10B1AD
:1044D0004FF0FF3052E70DF1060202214FF49670C3
:1044E00001F0C6FC10B14FF0FF3047E7002045E770
:1044F00000004843000040460000C0450000404521
:104500000000C04438B50446052094FBF0F085B2A5
:1045100028128DF80000E8B28DF801006A460221E9
:104520004FF4EF7001F0A4FC38BD38B50446052007
:1045300094FBF0F085B228128DF80000E8B28DF8F7
:1045400001006A4602214FF4ED7001F091FC38BD84
:1045500070B504460D461048007801280BD1E1B231
:104560000E48FEF76EF800BF80210C48FDF782FF71
:104570000028F9D00EE00848007802280AD1E1B2FC
:104580000748FEF75EF800BF80210548FDF772FF7F
:104590000028F9D0204670BD4A00002000380140B4
:1045A000004400407CB5054628494968087801ABBD
:1045B00004220D21FCF787FF08B107207CBD9DF880
:1045C0000700C0F301109DF8041001F0E00140EA7B
:1045D000E1008DF800009DF80700C0F381009DF810
:1045E000051001F0E00140EAE1008DF801009DF8BE
:1045F000070000F003009DF8061001F0E00140EA1A
:10460000E1008DF8020000241CE01DF8040018B938
:10461000002045F8240013E00D4845F8240006E08A
:1046200055F824000B49FBF747FE45F824001DF818
:104630000400401EC0B20DF804000028F0D100BFF5
:10464000601CC4B2032CE0DB0020B7E77000002040
:104650007B14AE3E1D5A843F2DE9F04F87B00546CE
:104660000C46914601208DF8100000208DF81100B5
:10467000FE4A1268917CFD4A5268107804AB02220F
:10468000FCF7C7FF20B14FF0FF3007B0BDE8F08F57
:10469000C820FFF737F900208DF81000F34A1268A0
:1046A000D17BF24A5268107804AB0122FCF7B1FFCB
:1046B00010B14FF0FF30E8E7EC4A12685179EB4A4D
:1046C0005268107804AB0122FCF7A3FF10B14FF041
:1046D000FF30DAE7E54A1268917CE44A52681078C4
:1046E00004AB0122FCF795FF10B14FF0FF30CCE78F
:1046F000DE4A1268D17DDD4A5268107804AB01228F
:10470000FCF787FF10B14FF0FF30BEE7D74A1268C1
:104710001179D64A5268107804AB0122FCF779FF70
:1047200010B14FF0FF30B0E70C208DF81000CF4AE9
:1047300012681179CD4A5268107804AB0122FCF757
:1047400068FF10B14FF0FF309FE70F20FFF7DAF856
:10475000C648806A407A8DF81000C44A1268917881
:10476000C24A5268107804AB0122FCF752FF10B124
:104770004FF0FF3089E7BD48806A007A8DF810005D
:10478000BA4A12685178B94A5268107804AB0122CB
:10479000FCF73FFF10B14FF0FF3076E7B9F1000FA3
:1047A00007D0B248806A807A40F0E0008DF81000AF
:1047B00004E0AE48806A807A8DF81000AB4A126837
:1047C0009179AA4A5268107804AB0122FCF721FFC4
:1047D00010B14FF0FF3058E7B9F1000F07D0A348F0
:1047E000806AC07A40F0E0008DF8100003E0A04835
:1047F000C07A8DF810009D4A1268D1799B4A5268A0
:10480000107804AB0122FCF704FF10B14FF0FF3029
:104810003BE7B9F1000F02D0C820FFF773F8402042
:104820008DF81000914A12681179904A52681078F8
:1048300004AB0122FCF7EDFE10B14FF0FF3024E78E
:1048400078208DF81000894A12685179874A526899
:10485000107804AB0122FCF7DCFE10B14FF0FF3002
:1048600013E783498889FFF74DF800208DF8100081
:104870007E4A126851797D4A5268107804AB012251
:10488000FCF7C7FE10B14FF0FF30FEE6774A126822
:10489000917A764A5268107804AB0222FCF713FE34
:1048A00010B14FF0FF30F0E69DF811009DF81010A8
:1048B00040EA012B0C209BFBF0F0C6B20020A86060
:1048C00068602860A06060602060824665E0674A9A
:1048D0001268D17A654A5268107804AB0C22FCF752
:1048E000F2FD10B14FF0FF30CFE69DF811009DF8BA
:1048F000101040EA012000B2ADF808009DF8130046
:104900009DF8121040EA012000B2ADF80A009DF8AF
:1049100015009DF8141040EA012000B2ADF80C001B
:10492000BDF90810206808442060BDF90A106068CD
:1049300008446060BDF90C10A0680844A0609DF8B0
:1049400017009DF8161040EA012000B2ADF80000F3
:104950009DF819009DF8181040EA012000B2ADF84A
:1049600002009DF81B009DF81A1040EA012000B2D9
:10497000ADF80400BDF90010286808442860BDF9AE
:104980000210686808446860BDF90410A86808440B
:10499000A8600AF1010000F0FF0AB24597DB344835
:1049A000D0F800C02868C117090441EA1041070483
:1049B000624600233846FBF7D7FB32460023CDE999
:1049C0000201FBF7D1FB28602948D0F800C06868D5
:1049D000C117090441EA1041070462460023384622
:1049E000FBF7C2FB32460023CDE90201FBF7BCFB1B
:1049F00068601F48D0F800C0A868C117090441EAE0
:104A000010410704624600233846FBF7ADFB3246EF
:104A10000023CDE90201FBF7A7FBA8601448D0F8FA
:104A200004C02168C817000440EA11480F04624618
:104A3000002338464146FBF797FB32460023CDE979
:104A40000201FBF791FB20600948D0F804C06068C0
:104A5000C117090441EA10410704624600233846A1
:104A6000FBF782FB3246002304E0000070000020C8
:104A700088600008CDE90201FBF776FB6060114811
:104A8000D0F804C0A068C117090441EA1041070426
:104A9000624600233846FBF767FB32460023CDE928
:104AA0000201FBF761FBA060A068002804DDA0689C
:104AB000A0F58030A06003E0A06800F58030A06021
:104AC0000020E2E5886000082DE9FC5F06460F46FD
:104AD00000253D494968087801AB03220D21FCF708
:104AE000F2FC10B10720BDE8FC9F9DF8040000F027
:104AF0001F008DF804009DF8050000F01F008DF8E0
:104B000005009DF8060000F01F008DF80600002447
:104B100056E056F8240057F82410A0EB010BBBF127
:104B2000000F01DB594601E0CBF100010846FBF71D
:104B3000BBFD4FF08F410090FBF7F0FB814601A8D1
:104B4000005D68B321490868FBF7B7FD8346594605
:104B50001F48FBF7E3FB804604E01E494046FBF795
:104B6000ABFB804601A8005D401EC0B201A90855FC
:104B70000028F2D141464846FBF7D0FB83464FF070
:104B80007E51FBF793FB82462AF0004B0F48816968
:104B90005846FBF7FDFD12D20120A04005430EE070
:104BA0000A4801694846FBF7E9FD05D30748416912
:104BB0004846FBF7EDFD02D20120A0400543641CEE
:104BC000032CA6DB28468EE77000002088600008D2
:104BD00000B04C4554E3853F10B50446204600F034
:104BE0000FF80346E01C00F00BF843EAC00083B264
:104BF000A01D00F005F843EA801083B2184610BDEE
:104C0000014691F90020002A01DD00201EE091F903
:104C10000020002A01DA042018E091F90120002A7E
:104C200001DD012012E091F90120002A01DA0520BE
:104C30000CE091F90220002A01DD022006E091F942
:104C40000220002A01DA062000E007207047000059
:104C50004FF4A060FCF75AFDFEF732FEFDF792FB21
:104C6000FDF7D0FCFDF7F1FCFDF70BFBFCF7F4F8CA
:104C7000FCF701FDFCF7C6FB0446214606A0FDF744
:104C800075FD00F057F90446214603A0FDF76EFDBF
:104C9000FCF7FAFC00BFFEE7256400007047000047
:104CA00070B50446002624F00104184890F824004A
:104CB00008B1002070BD1548807A10B94FF0FF3060
:104CC000F8E71248057C807A2040104908740846AD
:104CD000007CA04202D04FF0FF3600E0002614B95D
:104CE0000A48007D18B1012001F04CF902E00020D3
:104CF00001F048F93CB100F0A7FC20B1034805746D
:104D00004FF0FF30D6E73046D4E7000070000020B7
:104D10002DE9F04F99B004460D4616464FF07E57E8
:104D20004FF000084FF000094FF0000A12A813A935
:104D300018AB0EAACDE9001014A916A8FEF7B0FF13
:104D400018B1012019B0BDE8F08FBDF84C0000F497
:104D5000807000287ED00E98FBF7A6FC83464FF0AB
:104D60009D41FBF7DBFA07460F98FBF79DFC834656
:104D70004FF09D41FBF7D2FA80461098FBF794FC68
:104D800083464FF09D41FBF7C9FA81461198FBF726
:104D90008BFC83464FF09D41FBF7C0FA82463946B3
:104DA0004FF08040FBF788FA49460590FBF784FAFC
:104DB000414607904FF04040FBF77EFA5146059080
:104DC000FBF77AFA06900799FBF71EFA8346FBF782
:104DD000A6FCCDE90801FEF739FA4FF06632544BD4
:104DE000CDE90A01FBF77FFBCDE90C01FBF7AAFC3B
:104DF000206049464FF08040FBF75EFA494602903A
:104E0000FBF75AFA414604904FF04040FBF754FA42
:104E100041460290FBF750FA03900499FBF746FADB
:104E200083464FF07E51FBF7EFF90590FBF777FCD7
:104E3000CDE9080139464FF08040FBF73DFA414685
:104E40000390FBF739FA494604904FF08040FBF796
:104E500033FA00E068E051460390FBF72DFA8346F1
:104E60000499FBF7D1F90590FBF759FCCDE9060150
:104E7000DDE90823FEF732FC4FF066322C4BCDE91A
:104E80000A01FBF730FBCDE90C01FBF75BFC286066
:104E900051465046FBF710FA494604904846FBF746
:104EA0000BFA414603904046FBF706FA394601905B
:104EB0003846FBF701FA00900199FBF7A5F902903B
:104EC0000399FBF7F3F983460499FBF7EFF9059093
:104ED000FBF725FCCDE9080151463846FBF7ECF914
:104EE000494604904046FBF7E7F903900499FBF725
:104EF0008BF94FF080410590FBF7DEF98346FBF715
:104F00000EFCCDE90601DDE90823FEF7E7FB4FF0D3
:104F10006632074BCDE90A01FBF7E5FACDE90C0152
:104F2000FBF710FC306001E002200BE7002009E7EE
:104F300066A64C4070B50024FCF782F900F020F919
:104F400000283DD1782000F02BFFC4B20CB1012025
:104F500070BD7820FFF7A4FEC4B20CB10220F7E7C1
:104F6000322000F0CFFEC4B20CB10320F0E7FEF710
:104F70008BFEC4B20CB10420EAE71348FFF72CFE05
:104F80000546FFF7DBF8C4B20CB10520E0E740F2BC
:104F90007310FEF721FDC4B20CB10620D8E7322011
:104FA000FEF7FCFFC4B20CB10720D1E700F0A0FF70
:104FB0000446012000F0A2FDC4B21CB10920C7E7DD
:104FC0000A20C5E70020C3E79C00002001461148E5
:104FD000407A30B1012807D0022808D003280CD12C
:104FE00008E0022008700BE00420087008E00820A8
:104FF000087005E01020087002E04FF0FF307047A5
:1050000000BF0448C07C18B108784006000E087044
:105010000020F4E77000002001461348407A30B1C8
:10502000012808D002280AD0032810D10BE04FF441
:10503000804008800EE041F69C7008800AE04FF442
:105040008050088006E04FF40060088002E04FF0D6
:10505000FF30704700BF0448C07C10B10888401082
:1050600008800020F5E7000070000020014602489B
:10507000007C0870002070477000002001460F4837
:10508000007A30B1012807D0022809D003280FD1B7
:105090000AE0FA2008800EE04FF4FA7008800AE077
:1050A0004FF47A70088006E04FF4FA60088002E05E
:1050B0000020088000BF00BF002070477000002063
:1050C00001460E48007A30B1012807D0022808D0E6
:1050D00003280CD108E00A4808600BE00948086082
:1050E00008E00948086005E00848086002E04FF061
:1050F000FF30704700BF0020FBE700007000002079
:1051000000000343000083423333034233338341BF
:1051100001461248C07A082817D2DFE800F01704C9
:10512000070A0D101318BC20088013E062200880C5
:1051300010E02A2008800DE0142008800AE00A20F0
:10514000088007E00520088004E000BF00BF0020C1
:10515000088000BF00BF00207047000070000020E2
:105160000146064890F8240010B14FF0FF30704718
:105170000248C08908800020F9E700007000002084
:105180001CB580208DF80000654A1268917C644A45
:10519000526810786B460122FCF73BFA10B14FF0D1
:1051A000FF301CBD6420FEF7ADFB00208DF8000031
:1051B0005B4A1268917C5A4A526810786B46012209
:1051C000FCF727FA10B14FF0FF30EAE7544A1268B3
:1051D000917D534A526810786B460622FCF773F9AA
:1051E00010B14FF0FF30DCE79DF80500C007400F1D
:1051F0009DF8031001F0010140EA41009DF8011003
:1052000001F0010140EA010494B1012C03D1012114
:105210004348C17431E0022C03D100214048C174DD
:105220002BE021463FA0FDF7A1FA4FF0FF30B8E791
:105230003B4A1268D1783A4A526810786B4601228C
:10524000FCF741F910B14FF0FF30AAE79DF80000DC
:1052500000F00F042CB93D48FDF788FA4FF0FF30FD
:105260009FE7042C06D13AA0FDF780FA01212C48D3
:10527000C17402E000212A48C174FF2128488172CC
:10528000FF2027490872FF2125484172C1724FF65D
:10529000FF71C181FF21017481740121017380F8C4
:1052A0002210002180F8231041750175163001602D
:1052B00041608160163880F8241080F82510C18480
:1052C0004FF4FA6000F062FC10B14FF0FF3068E775
:1052D000022000F02BFB10B14FF0FF3061E72A20D5
:1052E00000F0CEFC10B14FF0FF305AE7322000F052
:1052F00009FD10B14FF0FF3053E70020FFF7D0FC5D
:1053000010B14FF0FF304CE7002000F051FB10B11E
:105310004FF0FF3045E7002000F042FD002040E75D
:1053200070000020556E737570706F727465642024
:10533000736F6674776172652070726F64756374E1
:10534000207265762025642E0A000000986D000802
:1053500048616C662073656E7369746976697479E7
:10536000207061727420666F756E642E0A000000F2
:105370002DE9F04385B005460E46904699462948EA
:1053800090F8250020B14FF0FF3005B0BDE8F08364
:1053900016B94FF0FF30F8E7002423E0281B10284F
:1053A00001DD102000E0281B87B232193946204663
:1053B00000F05EFD10B14FF0FF30E6E701AA39467C
:1053C000204600F001F910B14FF0FF30DDE7301951
:1053D0003A4601A9FAF70BFF10B16FF00100D4E7CC
:1053E000E01984B2AC42D9DB4FEA28208DF80000E6
:1053F00008F0FF008DF801000A4A1268917E094A00
:10540000526810786B460222FCF703F910B14FF096
:10541000FF30BAE70121034880F82510A0F8269054
:105420000020B2E77000002038B50446282C02DDC9
:105430004FF0FF3038BDDCB9002000F0EBFB00205E
:105440008DF8000007208DF801002E4A1268917C2B
:105450002C4A526810786B460222FCF7DAF810B139
:105460004FF0FF30E6E70021264801750020E1E714
:10547000012000F0CFFB20208DF80000012C06D188
:1054800000208DF80100052000F0FAFB17E0052C44
:1054900006DC01208DF80100052000F0F1FB0EE094
:1054A000142C06DC02208DF801000A2000F0E8FB35
:1054B00005E003208DF80100142000F0E1FB9DF8C9
:1054C0000100072101EB8010C0B28DF801000D4AE8
:1054D0001268917C0B4A526810786B460222FCF7E6
:1054E00098F810B14FF0FF30A4E708210548817209
:1054F00000210173012101750020FFF7D1FB00207D
:1055000098E7000070000020F8B504460F461646E4
:105510002C4890F8240010B94FF0FF30F8BD29480E
:10552000807A10B94FF0FF30F8E7264A1268917A76
:10553000244A526810786B460222FBF7C4FF10B170
:105540004FF0FF30EAE79DF801009DF8001040EAB7
:105550000125A54203DA00203070401EDEE719481D
:1055600040684088B5EB600F17DD164A1268517C21
:10557000144A526810786B460122FBF7A4FF10B161
:105580004FF0FF30CAE79DF8000000F0100020B196
:1055900000F05AF86FF00100C0E7E2B2094B1B6857
:1055A000D97A084B5B6818783B46FBF78CFF10B143
:1055B0004FF0FF30B2E795FBF4F0401E3070002052
:1055C000ACE7000070000020F8B504460D46164612
:1055D00016B94FF0FF30F8BD1A48807A10B94FF075
:1055E000FF30F8E720128DF80000E0B28DF80100DE
:1055F0009DF801002844134949684989884202DD21
:105600004FF0FF30E7E70F4A1268117E0D4A5268EB
:1056100010786B460222FBF7FCFF10B14FF0FF3011
:10562000D9E7EAB2074B1B68597D064B5B681878CF
:105630003346FBF748FF10B14FF0FF30CBE70020B7
:10564000C9E700007000002008B57048807A10B9E2
:105650004FF0FF3008BD002000906C4A1268D17BEB
:105660006A4A526810786B460122FBF7D2FF10B1EC
:105670004FF0FF30EEE7654A12685179634A52688D
:1056800010786B460122FBF7C4FF10B14FF0FF30DA
:10569000E0E75E4A126811795C4A526810786B46FE
:1056A0000122FBF7B6FF10B14FF0FF30D2E75748A9
:1056B00090F82400002853D00C200090534A126820
:1056C0001179524A526810786B460122FBF7A1FF0C
:1056D00010B14FF0FF30BDE73220FEF713F9C020C4
:1056E00000904A48807A00F0010020B19DF8000047
:1056F00040F020000090454A12681179434A5268F0
:1057000010786B460122FBF784FF10B14FF0FF3099
:10571000A0E73E48407C10B10220009001E000204C
:1057200000903A4A1268D17B384A526810786B462A
:105730000122FBF76EFF10B14FF0FF308AE7002027
:105740000090324A12685179304A526810786B469C
:105750000122FBF75EFF002855D04FF0FF3079E7BC
:1057600004200090294A12681179284A526810785A
:105770006B460122FBF74DFF10B14FF0FF3069E798
:105780002248807C20B92148807A00F0010010B9BD
:105790004020009001E0602000901C4A12681179BE
:1057A0001A4A526810786B460122FBF732FF10B19B
:1057B0004FF0FF304EE73220FEF7A4F81348407C4C
:1057C00010B10120009001E0002000900F4A126803
:1057D000D17B0E4A526810786B460122FBF719FF05
:1057E00010B14FF0FF3035E7084A12685179074A87
:1057F00052681078054B10330122FBF70AFF10B1F5
:105800004FF0FF3026E7002024E700007000002062
:105810002DE9F04F8DB083460F4602200C90424890
:1058200090F8240020B1002000F068F9012600E083
:10583000002603A8FFF722FC05A8FFF7C7FB01A875
:10584000FFF766FC02A8FFF78BFC374890F80AA028
:1058500004A8FFF70BFC002407E000223946584655
:10586000FEF7FAFE00B902E0641C022CF5DB00BF73
:10587000022C01D1002528E0002407E0012206A91E
:1058800009A8FEF7E9FE00B902E0641C022CF5DB72
:1058900000BF022C01D1002517E006A93846FDF70C
:1058A00081FC00F0FF0809A95846FFF70DF900F048
:1058B000FF090025B9F1000F01D145F00105B8F14C
:1058C000000F01D145F0020500BFFF201649087204
:1058D000FF2115484172C1724FF6FF71C181FF214E
:1058E0008172017401210173BDF80C0000F04EF9C2
:1058F0009DF8140000F01AF8BDF8040000F0C0F99B
:10590000BDF8080000F0FEF9504600F049FA9DF895
:105910001000FFF7C5F916B1012000F0EFF8284696
:105920000DB0BDE8F08F00007000002038B50446CF
:105930001E48807A10B94FF0FF3038BD022C06D0D7
:10594000042C07D0082C08D0102C0CD108E0002023
:1059500000900BE00820009008E01020009005E087
:105960001820009002E04FF0FF30E6E700BF0F483C
:10597000407A9DF80010B0EBE10F01D10020DCE788
:105980000A4A1268D179094A526810786B46012296
:10599000FBF73FFE10B14FF0FF30CEE79DF800005F
:1059A000C110024841720020C7E7000070000020CB
:1059B00038B504465048807CA04201D1002038BD53
:1059C000002C46D04C4A126811794B4A5268107824
:1059D0006B460122FBF777FD10B14FF0FF30EEE789
:1059E0009DF8000020F020000090434A12681179D1
:1059F000414A526810786B460122FBF70AFE10B14B
:105A00004FF0FF30DBE70320FDF77CFF0220009022
:105A1000394890F8220020B19DF8000040F0800045
:105A20000090354890F8230020B19DF8000040F028
:105A300030000090304A1268117D2F4A5268107869
:105A40006B460122FBF7E5FD002851D04FF0FF30F7
:105A5000B5E7294A12681179274A526810786B46CF
:105A60000122FBF730FD10B14FF0FF30A7E72248CD
:105A7000807A00F0010028B19DF8000040F020007D
:105A8000009004E09DF8000020F0200000901A4AE9
:105A900012681179184A526810786B460122FBF798
:105AA000B8FD10B14FF0FF3089E70320FDF72AFF62
:105AB000114890F8220010B18020009001E00020F1
:105AC00000900D4890F8230020B19DF8000040F0B0
:105AD00030000090084A1268117D074A5268107819
