:020000040800F2
:10000000580A002005010008213A0008CD300008F8
:10001000013A0008110C0008054300080000000028
:10002000000000000000000000000000A53A0008E9
:10003000470D000800000000233A0008693B000853
:100040001F0100081F0100081F0100081F01000810
:100050001F0100081F0100081F0100081F01000800
:100060001F0100081F0100081F010008150C0008EF
:100070001F0100081F010008310C00083D0C00089A
:10008000490C0008550C00081F0100081F0100085A
:100090001F0100081F0100081F0100081F010008C0
:1000A0001F0100081F0100081F0100081F010008B0
:1000B0001F0100081F0100081F0100081F010008A0
:1000C0001F0100081F0100081F0100081F01000890
:1000D0001F010008F5410008554200081F010008F3
:1000E000090F00081F0100081F010008DFF810D0E9
:1000F00000F088FC00480047155E0008AFF3008060
:10010000580A00200648804706480047FEE7FEE7F9
:10011000FEE7FEE7FEE7FEE7FEE7FEE7FEE7FEE7B7
:10012000E53B0008ED000008202A04DB203A21FA14
:1001300002F00021704721FA02F3D040C2F1200200
:100140009140084319467047D2B201E000F8012BF4
:10015000491EFBD270470022F6E710B513460A4647
:1001600004461946FFF7F0FF204610BD30B504469F
:100170000020034600E05B1C934203D2E05CCD5CB0
:10018000401BF8D030BDF0B480EA0102D40F420029
:10019000B2EB410F02D20246084611464A0042D055
:1001A000C30DDDB2C1F3C752AD1A202D35DAC1F34C
:1001B000160141F4000204B15242C5F1200602FAD0
:1001C00006F12A411044B3EBD05F23D0C4B1012D16
:1001D000A0EBC35009DCF0BC4FF0004202EAC3526E
:1001E000DBB200F5000000F052BB400000F180706F
:1001F00000EBC350A0F1807040EAD170490009E0E3
:10020000490841EAC071A0EBC35000F50000400866
:1002100000EBC350F0BC00F031BB6142012202EBA5
:100220004101001BF6E7F0BC704781F00041AAE7EE
:1002300080F00040A7E780EA010210B502F0004319
:10024000400022D04A001FD0010E01EB1261C0F322
:100250005600C2F3560240F4000042F40002A0FB34
:10026000022000047F39140400D0401C50EA1240E0
:1002700001D44000491EC2B20C0604EBD010401C51
:100280004008802A02D003E0002010BD20F00100C9
:10029000002900DA0020184310BD30B480EA0102C2
:1002A00002F0004530F0004221F0004013D090B140
:1002B000C30DD40DC2F31601C0F31600E41A41F4C5
:1002C000000140F400027D34914201D3641C00E03F
:1002D0004900002C02DA30BC002070474FF40000C7
:1002E0000023914201D3891A034340084FEA410198
:1002F000F7D151B1914202D14FF0004105E002D255
:100300004FF0010101E06FF0010103EBC4502844FC
:1003100030BC00F0B3BA420005D0C0F3C75252421D
:10032000914201DC0020704700EBC15070472DE97D
:10033000FE4F804681EA0300C00F0C46009021F07A
:10034000004123F00045B8EB0200A94105D2404628
:10035000214690461C460B46024623F000401043BF
:1003600047D0270DC7F30A00C3F30A510290401A81
:10037000019040286BDAC3F3130040F4801B00980F
:10038000924620B10023D2EB030A63EB0B0B0198DA
:100390005946C0F14002504600F04FFA06460D465D
:1003A00050465946019A00F057FA10EB0800614197
:1003B000002487EA115284EAE7731A4340D0009A76
:1003C00062B3019A012A4FEA075215DC001B61EB68
:1003D00002014FF0004202EA0752CDE90042001C40
:1003E00041F5801132462B4600F08EFA03B0BDE88D
:1003F000F08F40462146F9E7001B61EB0201001C2B
:1004000041F5801300185B412018A2F5001747EB57
:10041000030140EAD570B6196D4111E06D084FEA4D
:10042000360645EAC0754FEA0752001B61EB020130
:10043000001C41F5801149084FEA30000019514174
:1004400032462B4603B0BDE8F04F00F04EBA00989C
:10045000012240000023D0EB020263EBE07300981E
:1004600021464FEAE074B8EB000061EB0401E9E7D4
:1004700083F000435BE781F0004158E72DE9FE4F30
:1004800081EA030404F0004421F0004100944FF09D
:10049000000B23F0004350EA01045ED052EA03044B
:1004A0005BD0C3F30A54C1F30A552C44A4F2F334CD
:1004B0000194A0FB0254C1F3130141F48011C3F372
:1004C000130343F4801301FB024400FB034E840A30
:1004D000970A44EA815447EA8357A4FB07680295C8
:1004E0008D0A05FB07854FEA932C04FB0C54270566
:1004F000029D4FEA065847EA1637B5EB08056EEB42
:10050000070C870E920E47EA811742EA8312A7FB77
:100510000201B6EB0B0164EB00042B0D43EA0C3334
:100520005E1844EB1C50DA465146E7FB0201C5F366
:1005300013044FEA0B3343EA14534FEA0432019C8D
:1005400043EA0603A4F10C040294009CCDE900B434
:1005500000F0DAF903B0BDE8F08F00200146F9E7BA
:100560002DE9F04D81EA030404F0004B21F0004531
:1005700014464FF0000A23F0004150EA050220D053
:1005800054EA01021DD0C5F30A570246C5F313030E
:10059000C1F31300C1F30A5640F4801543F48013ED
:1005A000A7EB0608101BD64608F2FD3873EB0500D2
:1005B00002D308F1010801E092185B41B8F1000F85
:1005C00003DA00200146BDE8F08D00204FF48011D1
:1005D000064684460EE0171B73EB050705D3121B76
:1005E00063EB050306434CEA010C49084FEA30006F
:1005F00092185B4150EA0107EDD152EA030012D094
:1006000082EA040083EA0501084305D0101BAB41D0
:1006100006D20122002306E000224FF0004302E050
:100620006FF0010253101AEB06004CEB085110EB6F
:100630000A0041EB0B01BDE8F04D00F056B970B572
:1006400021F0004303430CD0C1F30A550024D5EB3D
:10065000040564EB0403D617AD1AB34102DB002096
:10066000014670BD201841EB025170BDC10F80EAF8
:10067000E0700844CA079623002100F008B99623C9
:100680000022114600F003B90EB5C10F80EAE070F8
:100690000844CA07002140F233438DE80E000A46A1
:1006A0000B4600F031F903B000BD0EB540F2334106
:1006B00002910021CDE900110A460B4600F024F911
:1006C00003B000BD00F0004220F00040C10DC0F3B7
:1006D000160040F400007F2901DA002070479629B7
:1006E00003DCC1F19601C84001E096398840002A38
:1006F000F4D04042704720F00040C10DC0F3160016
:1007000040F400007F2901DA00207047962903DCBD
:10071000C1F19601C840704796398840704700F093
:10072000004230F000400AD0C10D01F56071C0F305
:10073000160042EA0151C2084007114370470020E9
:100740000146704730B5041E71F1000404DB4FF020
:100750000044404264EB0101141E73F1000405DB08
:100760001C464FF00043524263EB0403994208BF1A
:10077000904230BD01F0004330B421F0004150EA16
:10078000010206D00A0DA2F56072C1F31301002A1E
:1007900002DC30BC00207047440F44EAC104C100B1
:1007A000E01830BC00EBC25000F068B830B50B4622
:1007B000014600202022012409E021FA02F59D4291
:1007C00005D303FA02F5491B04FA02F52844151E65
:1007D000A2F10102F1DC30BD2DE9F05F05460020F9
:1007E00092469B4688460646814640241BE02846A2
:1007F000414647462246FFF797FC53465A46C01AE1
:10080000914110D311461846224600F016F82D1AD1
:1008100067EB01084F4622460120002100F00DF849
:1008200017EB00094E41201EA4F10104DFDC48460D
:1008300031462A464346BDE8F09F202A04DB203A91
:1008400000FA02F1002070479140C2F1200320FA23
:1008500003F3194390407047202A06DBCB17203A58
:1008600041FA02F043EAE07306E041FA02F3D040B5
:10087000C2F1200291400843194670470029A8BFE1
:100880007047401C490008BF20F00100704710B4B9
:10089000B0FA80FC00FA0CF050EA010404BF10BC6E
:1008A000704749B1CCF1200421FA04F411FA0CF19B
:1008B00018BF012121430843A3EB0C01CB1D4FEAD4
:1008C00000614FEA102042BF002010BC704700EBCF
:1008D000C35010440029A4BF10BC7047401C4900FD
:1008E00008BF20F0010010BC704710B5141E73F152
:1008F000000408DA401C41F1000192185B411A43E0
:1009000001D120F0010010BD2DE9F04D92469B462B
:1009100011B1B1FA81F202E0B0FA80F220329046D1
:10092000FFF78BFF04460F4640EA0A0041EA0B013D
:1009300053465A46084313D0114653EA010019D0D2
:10094000C8F140025046FFF7EFFB05460E46504601
:1009500059464246FFF771FF084305D0012004E0E5
:1009600020463946BDE8F08D0020054346EAE07692
:100970002C4337430A986305E40AA0EB08000022E1
:10098000FD0A44EA47540A3002D500200146E9E74F
:10099000010510196941DDE9084500196941BDE803
:1009A000F04DA2E7C1F30A52C1F3130140F2FF3345
:1009B00041F480119A4202DA00200146704740F269
:1009C00033439A42A2F2334202DC5242FFF7ACBBFD
:1009D000FFF733BF30B5041E71F1000404DB4FF0A4
:1009E0000044404264EB0101141E73F1000405DB76
:1009F0001C464FF00043524263EB04038B4208BF96
:100A0000824230BD064C074D06E0E06840F001032D
:100A100094E8070098471034AC42F6D3FFF76AFB1E
:100A2000A87A0008C87A00082DE9F04D00231A467C
:100A30001B1A8A4103DB00200146BDE8F08DC1F39B
:100A40000A52C1F3130141F480154FF0000BD10796
:100A500002D100186D41521E0027044640F2FF11DA
:100A6000384601EB620A3E468046024600204FF4BB
:100A70008011FFF759FBC2197141BB1846EB010009
:100A8000B4EB030C75EB000C04D3E41A65EB000522
:100A900017460E46241908F101006D41804634289E
:100AA000E3DDF91946EB0600091BA84103D24FF01C
:100AB000FF32134601E0002213461BEB070046EB12
:100AC0000A51BDE8F04DFFF710BF000070B50446B5
:100AD00000688168C943C90717D1816821F0010105
:100AE000816001F073F805460AE000BF01F06EF87E
:100AF000401B022804D920688068C043C00706D084
:100B000020688068C043C007F0D0002070BDA06A94
:100B100040F01000A062E06A40F00100E0620120B5
:100B200070BD10B50146406A826A12F0500F05D0C0
:100B3000006A026BBDE8104008461047816A41F424
:100B40000071816201688968C1F3424107290CD1B3
:100B5000017B51B9816A21F480718162816AC90483
:100B600003D4816A41F00101816200F0C5FA10BD31
:100B700010B5406A816A41F040018162C16A41F06A
:100B80000401C16200F0BAFA10BD10B5406A00F06D
:100B9000B4FA10BDF8B500260446009600688168D6
:100BA000C943C9072DD0816841F001018160164811
:100BB00016490068B0FBF1F000E0401E00900028EC
:100BC000FBD101F003F8054616E000BF00F0FEFF80
:100BD000401B022810D920688068C043C0070BD092
:100BE000A06A40F01000A062E06A40F00100E062FC
:100BF00084F824600120F8BD20688068C043C007E5
:100C0000E4D10020F8BD00009C00002040420F000D
:100C1000FEE7000010B5044800F0F9FBBDE8104005
:100C2000024800F089BC00002C0100205C0100207B
:100C3000014800F081BC00008C050020014800F054
:100C40007BBC000048050020014800F075BC000096
:100C500014060020014800F06FBC0000D005002001
:100C60000FB44FF4807130B5C1B0044646AB68464E
:100C7000459A03F059FB85B2254884421FD1254887
:100C800000F056FC0228FAD02248CC3890F83D00FB
:100C9000202803D01F48CC3801F0E3FE1D4C20680B
:100CA000016821F0010101602A466946A4F1CC00E7
:100CB00002F0CAF9206841680029FCD123E01648F7
:100CC000844220D11348443000F032FC0228F9D08D
:100CD0001048883890F83D00202803D00D48883807
:100CE00001F0BFFE0B4C44342068016821F0010183
:100CF00001602A466946A4F1CC0002F0A5F92068FB
:100D000041680029FCD141B0284630BC5DF814FB95
:100D1000003801408C0500200044004030B590F8B8
:100D200040500124AC40C56B6C600468636043684C
:100D3000102B036803D099600068C26030BD9A60D0
:100D40000068C16030BD704738B50446002000908F
:100D500021880422684600F077F82088001D208052
:100D6000009838BD1CB50021ADF800108DF80410B6
:100D7000012201A800F068F8BDF800009DF80420E9
:100D8000401C81B2ADF80010264800F05DF8BDF8B7
:100D900000009DF804100522084481B22148ADF8F6
:100DA0000010143000F050F8BDF800000122401D82
:100DB00081B21C48ADF80010193000F045F8BDF8BC
:100DC0000000401CADF800006846FFF7BDFF164C60
:100DD00020616846FFF7B8FF60616846FFF7B4FF1F
:100DE000A0616846FFF7B0FF104C20616846FFF72E
:100DF000ABFF60616846FFF7A7FFA0616846FFF799
:100E0000A3FF0B4C20616846FFF79EFF60616846B8
:100E1000FFF79AFFA0616846FFF796FF0549086053
:100E20001CBD000000000020A8000020C800002019
:100E3000E80000204400002080224021014802F008
:100E400046B90000000801402DE9F0412D4E15463D
:100E50000C46804680224021304604F077FF8023F4
:100E600040223146A02004F050FF8022402130462D
:100E700004F085FFE0B9E0B280234022314604F05F
:100E800044FF80224021304604F079FF80B980225F
:100E90004021304604F05AFF802340223146A120F1
:100EA00004F033FF80224021304604F068FF38B15F
:100EB00080224021304604F059FF0120BDE8F08136
:100EC00000246F1E12E000BF04F003FF08F80400C6
:100ED000BC424FF080024FF04001304602D004F097
:100EE000D5FE01E004F0E7FE641CA4B2AC424FF072
:100EF00080024FF040013046E6D304F037FF002077
:100F0000DCE700000008014010B54FF4006000F07D
:100F100057FDBDE810404FF4004000F051BD72B6DF
:100F2000FEE70000F8B500250446009590F824007F
:100F3000012808D0012084F824002046FFF7C6FDD0
:100F4000060002D053E00220F8BDA06A20F48850C9
:100F500040F00200A062022000F0D6FE2649096897
:100F6000B1FBF0F0400000E0401E00900028FBD1F3
:100F70002046FFF70FFE2068816841F0080181607C
:100F800000F024FE074608E000F020FEC01B0A28FF
:100F900003D920688068000715D42068806800079E
:100FA000F2D42068816841F00401816000F00EFEF7
:100FB000074612E000F00AFEC01B0A280DD920687F
:100FC0008068400709D5A06A20F0020040F01000B8
:100FD000A06284F824500120F8BD20688068400792
:100FE000E8D4A06A20F0020040F00100A06284F87A
:100FF00024503046F8BD00009C000020F8B50024C5
:10100000009490F824202546012A12D0012280F86D
:1010100024204A681F23072A0DD20668776B521EC8
:1010200002EB820293409F430B6893401F43776318
:1010300019E00220F8BD06680D2A0AD2376BD21FCC
:1010400002EB820293409F430B6893401F43376338
:1010500009E0F76A0D3A02EB820293409F430B6866
:1010600093401F43F7620A68072306680A2A0AD3D7
:10107000F7680A3A02EB420293409F438B68934021
:101080001F43F76008E0376902EB420293409F4339
:101090008B6893401F4337610A68102A01D0112AD8
:1010A00020D1124B02689A4217D193681B0219D4BF
:1010B000936843F4000393600968102912D10C4926
:1010C0000C4A0968B1FBF2F101EB8101490000E033
:1010D000491E00910029FBD104E0816A41F0200102
:1010E0008162012480F824502046F8BD002401408C
:1010F0009C00002040420F0070477047704700007E
:101100002DE9F0414FF0000704003D467ED0A06A73
:10111000002628B9E66284F82460204600F07EF8B4
:101120002046FFF7D3FCA16AC90600D420B1A06A0B
:1011300040F01000A06269E0A16A21F4885141F0FA
:101140000201A1626268E169237B0A4347EA430125
:101150000A43A1684FF48077B94209D0012907D02A
:101160005FF0000194F814C0BCF1010F02D00AE056
:101170003946F7E7F3B1A36A43F02003A362E36AB9
:1011800043F00103E3622368D3F804C02CF4694CF4
:101190004CEA010CC3F804C021688B68DFF870C00A
:1011A00003EA0C0313438B60A168B9420BD00129F9
:1011B00009D00CE0DFF85CC0A3690CEB43330B43B0
:1011C00043F40061DFE7218A0D05A5F5801521684C
:1011D000CB6A23F470032B43CB62216889680E4BE2
:1011E0001940914208D1E662A16A21F0020141F062
:1011F0000101A162BDE8F081A06A20F0020040F088
:101200001000A062E06A40F00100E0620120F1E716
:10121000FDF7E1FF00E0FFFFFE0E1FFF70B586B097
:1012200000260546009601960296039600681A4924
:1012300088422FD11949886940F400708861886913
:1012400000F400700490886940F0040088618869A7
:10125000694600F0040004900120009003200190F2
:101260000F4800F0B9FB104C0E48C4E9000680207E
:10127000C4E9026040002061800060612020A0611C
:10128000C001E061204600F001FA08B1FFF747FE17
:101290002C62656206B070BD00240140001002405F
:1012A00000080140080002405C0100202DE9F047E1
:1012B000894604463B4900683B4F0E1D90468842D4
:1012C00001D0B84207D1306810F4702F03D0012547
:1012D0002846BDE8F08794F8240001280CD00120AE
:1012E00084F824002046FFF755FC05004FF000006D
:1012F00004D084F82400EBE70220EAE7A16A40F674
:101300000162914341F48071A1622168B94218D110
:10131000326812F4702F14D0A16A41F48011A162D6
:101320003168490505D5A16A21F4005141F4805185
:10133000A162A16AC9040AD5E16A21F00601E1624D
:1013400006E0A26A22F48012A2624968E9E7E0623C
:1013500084F82400216A15488862216A1448C8620A
:10136000216A1448086321686FF002000860206851
:10137000816841F480718160216843464A464C315E
:10138000206A00F0B1F920688168C1F34241072961
:10139000816803D041F48011816099E741F4A00194
:1013A000FAE700000024014000280140230B000858
:1013B0008B0B0008710B000810B5044690F8240050
:1013C000012807D0012084F824002046FFF77EFB87
:1013D00010B113E0022010BD21688A6822F48072E7
:1013E0008A60216A91F82120022A07D1084600F07C
:1013F0002DF8A16A30B141F04001A162002184F8CA
:10140000241010BD21F4885141F00101F5E710B519
:10141000044690F82400012807D0012084F8240015
:101420002046FFF753FB10B10CE0022010BD2168ED
:101430004A6822F020024A60A16A21F4885141F0F2
:101440000101A162002184F8241010BD10B590F8AC
:1014500021100022022905D00421816380F8202078
:10146000012010BD01680B6823F00E030B600168BA
:101470000B6823F001030B6090F84030C46B01212E
:1014800001FA03F3636080F8211080F820201046F1
:1014900010BD000010B590F821100024022903D0DF
:1014A0000421816301243DE001680A6822F00E02F4
:1014B0000A6001680A6822F001020A601A4A01689B
:1014C000914201D1012121E0174A1432914201D108
:1014D00010211BE0144A2832914201D1891515E0F0
:1014E000114A3C32914201D189140FE00E4A503228
:1014F000914202D14FF4803108E00B4A64329142AC
:1015000002D14FF4801101E04FF08071064A083A91
:101510005160012180F82110002180F82010416BDA
:1015200001B18847204610BD08000240806B70471B
:1015300090F82100704700002DE9F05FC16B0C6846
:1015400001680B68D0F840C0042202FA0CF2494D41
:10155000DFF824A1494E4A4FDFF828B1DFF828E12F
:1015600022422CD05A072AD50A68920603D40A6868
:1015700022F004020A600168A94201D1042219E0A4
:10158000514501D1402215E0B14202D14FF48062B1
:1015900010E0B94202D14FF480420BE0594502D12C
:1015A0004FF4802206E0714502D14FF4800201E041
:1015B0004FF080622F4908394A60C16A3BE04FF022
:1015C000020808FA0CF818EA040F4FF000094FF06F
:1015D000010235D05FEA837832D50B689B0605D4CB
:1015E0000B6823F00A030B6080F821200168A942F0
:1015F00001D1022219E0514501D1202215E0B1426A
:1016000002D14FF4007210E0B94202D14FF40052FF
:101610000BE0594502D14FF4003206E0714502D18A
:101620004FF4001201E04FF00072124908394A608D
:1016300080F82090816A00291AD0BDE8F05F084741
:10164000082505FA0CF5254212D01B0710D50B68AA
:1016500023F00E030B6090F84010C36B02FA01F107
:101660005960826380F8212080F82090016BE2E7C6
:10167000BDE8F09F080002401C000240300002401C
:1016800044000240580002406C00024030B528B3CC
:1016900008C8134914221944B1FBF2F18900C1634F
:1016A00010498163022141771A6843F6F0718A4339
:1016B000D0E900142143D0E902452C4321430469B9
:1016C0002143446921438469214311431960002166
:1016D0004163012242770177084630BD012030BDC9
:1016E000F8FFFDBF0000024070B5044690F82000EE
:1016F000002501280CD0012084F8200094F82160F6
:101700000020012E06D084F820000225284670BD56
:10171000022070BD022684F82160A063206806685C
:1017200026F0010606602046FFF7F8FAE06A002876
:101730002068016802D041F00E0106E021F00401AA
:1017400001602068016841F00A01016020680168B9
:1017500041F001010160D9E72DE9F04787480078A1
:1017600008B102F0ADFD4FF40061854800F024FAA5
:1017700000286ED18348007800286AD0824C002768
:10178000207838B3062003F02BFE804800684762BB
:101790007F48006847627F4D07E07B4AE06924325A
:1017A000111FA061081F04F0CDFBD4E90610FEF75D
:1017B0003CFDFEF787FF002800DA4042FEF764FF99
:1017C00000222B46FEF7BEFFE7D3E06910F0FF4F83
:1017D000E3D027706C4A2432111F081F04F0B2FBBB
:1017E000694A921D911E881E01F0B0FC032002F090
:1017F00047F9A060A046042002F042F98146E0606B
:10180000E069FEF75FFF002800DA4042624C634D5A
:10181000282870DA624E96F91A00FEF727FF216831
:10182000FEF709FD10F1FF4F00D3E76096F91A00AB
:101830000E301C280ED896F91A00801C042809D9ED
:1018400096F91A00002801DD012010E04FF0FF306A
:101850000DE090E096F91A001D303A280ED996F95D
:101860001A00002801DD022001E06FF00100FEF700
:10187000FDFE2168FEF787FC206000E027602168FC
:101880004848814204DC21684748814200D82068EA
:10189000206096F91B000E301C280DD896F91B000D
:1018A000801C042808D996F91B00002801DD0A20B5
:1018B0000FE06FF009000CE096F91B001D303A288C
:1018C0000ED996F91B00002801DD142001E06FF00D
:1018D0001300FEF7CBFE2968FEF755FC286000E0F8
:1018E0002F6029683148814204DC296830488142F0
:1018F00000D82868286046464846FEF7B7FE80466E
:10190000B068FEF7B3FE01464246234805F08CF965
:10191000E069284C2060B6F90400FEF7A7FE0246F5
:101920002046F16903F022FDB6F906101B4805F0C8
:1019300067F9E069FEF7C6FEFEF798FE0446E9691E
:10194000FEF721FCFEF7BEFE70612046E969FEF756
:101950006CFCFEF7B7FE30611749F069884202D887
:101960001649884201DD37617761D6E90410BDE888
:10197000F04702F099B8BDE8F08700004A00002067
:10198000000C0140850000201C00002030020020D7
:10199000780200200000E03FA8000020E8000020BE
:1019A000000000200000C8410000C8C10000C8427B
:1019B0000000C8C2C8000020000020C20000204271
:1019C000044910B50A68024202D00860FFF7C4FE5D
:1019D00010BD0000140401402DE9F84FDFF8B89164
:1019E000002409F1040A0AF1040B23460F270BF126
:1019F000040EC9E00125A5402A40AA427DD1674EC8
:101A0000D1F804C0ACEB0608B44532D014DCBCF10C
:101A1000030F3AD009DCBCF1000F2AD0BCF1010F52
:101A20001CD0BCF1020F31D11DE0BCF1110F17D059
:101A3000BCF1120F2AD119E0B8F5881F19D006DCC5
:101A4000B8F5803F15D0B8F5801F1FD111E0B8F56B
:101A5000001F0ED0B8F5041F18D10AE0CB6815E0BE
:101A6000CB681B1D12E0CB6808330FE0CB680C334A
:101A70000CE08B682BB1012B4FF0080303D04561BC
:101A800004E0042302E0056100E00023FF2A01D8FE
:101A9000064601E000F104064FEA840501D9A5F1EC
:101AA0002005D6F8008007FA05FC28EA0C0803FA9E
:101AB00005F548EA0508C6F800804D68ED0062D5D6
:101AC000374DAE6946F00106AE61AD6924F00306FC
:101AD00005F001050095334D06EB050CDCF80850C8
:101AE000A607360F07FA06F825EA0805DFF8B880DA
:101AF000404503D14FF0000817E044E0DFF8AC8028
:101B0000404502D14FF001080FE0DFF8A4804045C6
:101B100002D14FF0020808E0DFF89880404502D17A
:101B20004FF0030801E04FF0040808FA06F848EA0D
:101B30000508CCF808804D68D9F80060ED034D46E3
:101B400001D5164300E096432E604D68DAF8006038
:101B5000AD03554601D5164300E096432E604D680F
:101B6000DBF80060ED025D4601D5164300E09643C8
:101B70002E604D68DEF80060AD02754601D5164353
:101B800000E096432E60641C0D682A46E5407FF411
:101B900031AFBDE8F88F00000004014000001110D3
:101BA000001002400000014000080140000C01400C
:101BB00000100140001401408068084000D001205E
:101BC00070470AB1016170470904FBE7014880686A
:101BD000704700009000002002488168027811449C
:101BE0008160704790000020074810B5016841F0FF
:101BF00010010160032000F075F80F2000F006F8D6
:101C000000F024F8002010BD0020024070B50D4DFA
:101C100004464FF47A712878B1FBF0F00A4909685C
:101C2000B1FBF0F000F0C6FB48B9102C07D200223F
:101C30002146501E00F036F800206C6070BD012077
:101C400070BD0000900000209C0000200C4808B5EA
:101C5000816941F001018161816901F00101009117
:101C6000C16941F08051C161C06900F080500090AD
:101C70000448416821F0E06141F00071416008BD15
:101C80000010024000000140002809DB00F01F02A4
:101C9000012191404009800000F1E020C0F80011CE
:101CA00070470000F0B40E4B1B680C46C3F30223D0
:101CB000C3F10705042D00D90425191D072901D2F8
:101CC000002300E0DB1E012606FA05F1491E214033
:101CD00099409E40761E16403143F0BC02F052BB44
:101CE0000CED00E0064900F0070208684FF6FF031C
:101CF000184040EA0220034A104308607047000081
:101D00000CED00E00000FA0510B529A401461DCC39
:101D100086B08DE81D002AA02A4C0068049000209F
:101D2000012923D002293AD010291DD161682268E7
:101D3000D20119D5C1F38342C9031DF8020009D5A8
:101D4000616804AAC1F34041515C1F4AB2FBF1F142
:101D5000484301E01D4948436168490204D44000FA
:101D60005FF00301B0FBF1F006B010BD226AC2F3D0
:101D70000121012903D1920701D5C803F4E7022903
:101D800005D1626A920702D549F64040ECE7032983
:101D9000EAD121688903E7D54FF22440E4E700F057
:101DA00033F96168C1F38131491C4900DAE7000069
:101DB00002030405060708090A0B0C0D0E0F10108C
:101DC000010200000010024000127A0000093D00EC
:101DD0002DE9F84305460078354CC00754D0E0693A
:101DE0000026C00008D4E06940F08050E061E0695E
:101DF000012600F0805000902E480168C90512D4D9
:101E00000168804641F480710160FFF7DFFE0746FC
:101E100005E000BFFFF7DAFEC01B642823D8D8F81E
:101E20000000C005F6D5206A10F4407021D0A988C2
:101E300001F4407181421CD0206A1F49012220F424
:101E400040700A6000220A602062C00711D0FFF7CC
:101E5000BDFE074641F2883808E000BFFFF7B6FE36
:101E6000C11B414502D90320BDE8F883206A8007E1
:101E7000F4D5206A696820F44070084320621EB1DE
:101E8000E06920F08050E0612878800705D560681F
:101E9000A96820F44040084360602878C00605D552
:101EA0006068E96820F48000084360600020DBE798
:101EB0000010024000700040400442422DE9F0470B
:101EC0000F46050061D0434E306800F00700B8426D
:101ED00009D2306820F0070038433060306800F0E5
:101EE0000700B84251D128683B4C810712D5400702
:101EF00003D5606840F4E06060602878000703D58F
:101F0000606840F4605060606068A96820F0F0008C
:101F1000084360602878C00728D06868012810D07E
:101F20002168022810D0890700292EDA616821F083
:101F3000030101436160FFF749FE804641F28839A1
:101F40000DE021688903EFE78901EDE7FFF73EFE29
:101F5000A0EB0801494502D90320BDE8F08760687D
:101F6000696800F00C00B0EB810FEFD1306800F031
:101F70000700B8420BD9306820F0070038433060C2
:101F8000306800F00700B84201D00120E5E728786A
:101F9000400705D56068E96820F4E06008436060A8
:101FA0002878000706D56068296920F4605040EA67
:101FB000C100606000F038F86168084AC1F303119D
:101FC000515CC8400649086006480068FFF71EFEDD
:101FD0000020C2E700200240001002404A790008B9
:101FE0009C000020940000200448054900684968CE
:101FF000044AC1F30221515CC84070479C00002094
:10200000001002405A7900080448054900684968F0
:10201000044AC1F3C221515CC84070479C000020B3
:10202000001002405A79000812A185B00FC98DE84E
:102030000F0014A0144A006804905168134801F07E
:102040000C03042B10D0082B0ED1C1F38343C9031A
:102050001DF803000AD5516804AAC1F34041515C40
:102060000A4A5043B0FBF1F005B0704708494843B5
:10207000FAE7000002030405060708090A0B0C0D25
:102080000E0F1010010200000010024000127A0032
:1020900000093D002DE9F84F040070D02078C04DB4
:1020A000C00749D06868C0F38100012807D068687C
:1020B000C0F38100022809D16868C00306D52868EA
:1020C000800339D560680028E7D035E06068B0F556
:1020D000803F0BD010B1B0F5A02F11D0286820F4AC
:1020E00080302860286820F4802002E0286840F4CE
:1020F00080302860606890B1FFF768FD06460AE00E
:10210000286840F480202860F0E700BFFFF75EFDFC
:10211000801B642873D828688003F7D50CE0FFF78C
:1021200055FD064605E000BFFFF750FD801B642803
:10213000F0D828688003F7D420789A4E80074FF0B3
:1021400001094FF0000839D5686810F00C0F07D06E
:102150006868C0F38100022809D16868C00306D40A
:102160002868800714D52069012808D110E020696B
:10217000B0B1C6F80090FFF729FD074605E00AE177
:10218000FFF724FDC01B0228C4D828688007F7D5B4
:102190002868616920F0F80040EAC10028600DE07D
:1021A000C6F80080FFF712FD074604E0FFF70EFDBA
:1021B000C01B022823D828688007F7D4207800079E
:1021C0002CD57948A169D9B1C0F80090FFF7FEFC81
:1021D000074604E0FFF7FAFCC01B02280FD8686A24
:1021E0008007F7D571484FF4FA510068B0FBF1F061
:1021F000009000BF0098411E0091FAD20EE080E0EE
:10220000C0F80080FFF7E2FC074604E0FFF7DEFCC1
:10221000C01B022875D8686A8007F7D42078400769
:1022200060D5E8690027C00008D4E86940F0805014
:10223000E861E869012700F0805000905C4801687F
:10224000C90513D40168834641F480710160FFF72A
:10225000BDFC824606E000BFFFF7B8FCA0EB0A0019
:1022600064284ED8DBF80000C005F5D5E0680128E9
:102270000AD008B1052813D0286A20F0010028628E
:10228000286A20F0040002E0286A40F00100286279
:10229000E06841F2883B98B1FFF798FC82460BE07A
:1022A000286A40F004002862EEE700BFFFF78EFCCA
:1022B000A0EB0A0159455AD8286A8007F6D50CE0E8
:1022C000FFF784FC824605E0FFF780FCA0EB0A01E3
:1022D00059454CD8286A8007F6D41FB1E86920F028
:1022E0008050E861E06988B36968C1F3810102291F
:1022F00044D00228C6F8608004D0FFF767FC04468B
:1023000038E034E0FFF762FC074604E0FFF75EFCCC
:10231000C01B02282BD828688001F7D4206AB0F5AA
:10232000803F05D16868A16820F4003008436860E8
:10233000D4E908010843696821F47411084368600E
:10234000C6F86090FFF742FC044606E025E000BFB7
:10235000FFF73CFC001B022809D828688001F7D54C
:102360001BE000BFFFF732FC001B022802D903204C
:10237000BDE8F88F28688001F4D40EE00128F7D07A
:102380006868226A00F48031914204D1616A00F4E5
:102390007010884201D00120EAE70020E8E7000041
:1023A0000010024000004242800442429C00002093
:1023B0000070004010B5401EB0F1807F01D30120B5
:1023C00010BD4FF0E02460610F21601701F0DAFFCB
:1023D0000020A06107202061002010BD10B590F8FA
:1023E0003C20012A22D0012280F83C20CA688C6857
:1023F00022F4407222434C6822F4806222430C682B
:1024000022F4006222430C6922F4805222434C6978
:1024100022F400522243C969002322F480420A4375
:1024200001684A6480F83C30002010BD022010BDD5
:1024300070B590F83C20012A26D0012480F83C4059
:10244000022280F83D2003685A689D6822F07006D9
:102450000A6832435A600D4B02689A4208D0B2F1C2
:10246000804F05D00A4B9A4202D00A4B9A4204D1BF
:10247000496825F080031943916080F83D400021B0
:1024800080F83C10084670BD022070BD002C014051
:10249000000400400008004010B5040003D094F888
:1024A0003D0010B107E0012010BD002084F83C0081
:1024B000204600F01FF8022084F83D00211D20680E
:1024C00001F092FB012084F8460084F83E0084F875
:1024D0003F0084F8400084F8410084F8420084F80A
:1024E000430084F8440084F8450084F83D0000204F
:1024F00010BD000008B50C4A01680C48914207D194
:10250000816941F400618161806900F4006009E043
:10251000B1F1804F07D1C16941F00101C161C069CA
:1025200000F00100009008BD002C014000100240A6
:1025300090F83D10012901D001207047022180F858
:102540003D1000680B49884208D0B0F1804F05D09B
:102550000949884202D00949884204D1816801F0C2
:102560000701062903D0016841F001010160002044
:1025700070470000002C01400004004000080040AB
:1025800001680A6A41F211131A4207D10A6A9B10C4
:102590001A4203D10A6822F001020A60012180F880
:1025A0003D100020704770B5044690F83C000128AB
:1025B00017D0012584F83C50022084F83D002068A3
:1025C000826822F0770222F47F42826008685028F5
:1025D00030D00DDC20284DD005DC98B310283BD13D
:1025E00048E0022070BD302844D0402834D139E082
:1025F000602828D0702806D0B0F5805F2CD0B0F5C8
:10260000005F29D10AE0CB68D1E90121206801F0FF
:102610002EFB2068816841F0770109E0CB68D1E9A1
:102620000121206801F023FB2068816841F480418A
:10263000816011E0CA684968206801F0CDFB502133
:10264000206807E016E0CA684968206801F0D5FBF9
:102650006021206801F015FB84F83D50002084F8CB
:102660003C0070BDCA684968206801F0B5FB402194
:102670002068EFE7226801461046EBE72DE9F041BC
:102680000D46040003D094F83D0018B108E0012085
:10269000BDE8F081002084F83C00204600F040F8BE
:1026A000022084F83D002068816844F207029143CB
:1026B0008160211D206801F097FA22689068916975
:1026C000166A2B68AF69034340F20330814341EA45
:1026D0000721A868EF6908434FF6FC418843E96881
:1026E00040EA0720014328692F6A000140EA0730C9
:1026F000084369686D6926F0220646EA05152943F4
:1027000093602268906154F8460B0162012004F83E
:102710001F09E0752076E0762077A0750020B7E7E6
:1027200000B585B0002100910191029103911F4BEA
:1027300002681F491F489A421FD1CA6942F002022B
:10274000CA61CA6902F0020204928A6942F0080270
:102750008A61896901F0080104913021009169467C
:10276000FFF73AF91448416821F4406141F0E06113
:1027700041F40061416005B000BD104B9A42FAD1AE
:10278000CA6942F00402CA61CA6902F004020492F2
:102790008A6942F008028A61896901F0080104919E
:1027A000C02100916946FFF717F9E4E700040040F3
:1027B00000100240000C01400000014000080040F1
:1027C00070B590F83E60044690F83F5090F8423063
:1027D00090F84320022021B104290ED0012E1BD1F4
:1027E00014E0012E18D1012B16D184F83E0084F894
:1027F000420001220021206820E0012D0CD1012A95
:102800000AD184F83F0084F8430014E0012D03D17D
:10281000012B01D1012A01D0012070BD84F83E00B6
:1028200084F83F0084F8420084F84300012200212C
:10283000206801F00FFA01220421206801F00AFA51
:102840002068016841F001010160002070BD0000B6
:1028500000B585B0002100910191029103910068BB
:102860000C49884213D10C48816941F0040181610F
:102870008069694600F0040004904FF410600090F5
:1028800002200190032003900448FFF7A5F805B04B
:1028900000BD0000002C0140001002400008014073
:1028A00070B5044690F83C000D4601280AD001207E
:1028B00084F83C0042B1042A18D0082A2AD00C2AF5
:1028C0004DD139E0022070BD206801F0E3F92068A5
:1028D000816941F0080181612068816921F004016A
:1028E0008161206881692A69114311E0206801F043
:1028F000F9F92068816941F400618161206881698A
:1029000021F480618161206881692A6941EA02219C
:10291000816124E0206801F011FA2068C16941F06A
:102920000801C1612068C16921F00401C16120680A
:10293000C1692A69114311E0206801F02BFA20686F
:10294000C16941F40061C1612068C16921F48061FD
:10295000C1612068C1692A6941EA0221C161002080
:1029600084F83C0070BD10B5040003D094F83D001D
:1029700010B107E0012010BD002084F83C00204683
:1029800000F01EF8022084F83D00211D206801F0AF
:102990002BF9012084F8460084F83E0084F83F00BB
:1029A00084F8400084F8410084F8420084F8430031
:1029B00084F8440084F8450084F83D00002010BDF0
:1029C0007047000010B50446022249B104290ED018
:1029D000082913D094F84100012816D0012010BD19
:1029E00094F83E000128F9D184F83E200FE094F8D5
:1029F0003F000128F2D184F83F2008E094F840001D
:102A00000128EBD184F8402001E084F84120012224
:102A1000206801F01FF90F492068884203D1426CF9
:102A200042F4004242642068884208D0B0F1804FEE
:102A300005D00949884202D00849884204D18168FA
:102A400001F00701062903D0016841F0010101608E
:102A5000002010BD002C0140000400400008004090
:102A6000704770B504460068C16821F4F071C16018
:102A70002068416921F001014161206B012804D1E6
:102A80002068C16821F01001C160206841694FF0E1
:102A9000100609064FF000050FD5416921F08001AD
:102AA0004161606B48B14563606BFEF7CFFC20B1BC
:102AB000606BFEF73BFD20281ED020684169490667
:102AC0000FD5416921F040014161A06B48B14563D8
:102AD000A06BFEF7BBFC20B1A06BFEF727FD202802
:102AE0000AD0E584E5852564202084F83E0084F83A
:102AF0003D002563002070BD2664032070BD0000EA
:102B000008B501680A68D243D3074FF0000204D128
:102B100080F83C200B684B6800930B68DB439B07F5
:102B200004D480F83C200B684B6800930B68DB43AF
:102B30005B0704D480F83C200B684B6800930B685B
:102B4000DB431B0704D480F83C20086848680090E9
:102B500001490120887008BD86000020F8B5026890
:102B600004461068D168536910F00F0F4FF000054C
:102B700053D003F0010601F4907737435FD0C207CA
:102B800005D0CA0503D5226C42F001022264420737
:102B900005D5DA0703D0226C42F0020222648207D4
:102BA00005D5DA0703D0226C42F004022264020742
:102BB00007D501F02002324303D0226C42F0080214
:102BC0002264226C002A34D0800604D5880602D5FF
:102BD000204601F0C8F920684069216CC0F38010DC
:102BE000090700D430B3204601F09CF92068416900
:102BF00049061BD5416921F040014161A06BA8B194
:102C000058494163A06BFEF745FC002811D0A06B2A
:102C1000416B01B0BDE8F040084783060FD58B0635
:102C20000DD52046BDE8F84001F09DB92046FFF7DC
:102C300067FFF8BD2046FFF763FF2564F8BD266BEC
:102C40002023012E52D1C60650D5CE064ED510688F
:102C500050680090506940062AD5A16B086840680A
:102C60000004000CEAD0A68D8642E7D9E085886989
:102C7000202818D0D06820F48070D0602068416986
:102C800021F0010141612068416921F04001416169
:102C900084F83E3025632068C16821F01001C160CE
:102CA000A06BFEF7D3FBA08DE18D401A81B219E035
:102CB000A08DE18D401A81B2E08D0028BED00029A0
:102CC000BCD0D06820F49070D0602068426922F0B7
:102CD0000102426184F83E3025632068C26822F018
:102CE0001002C2602046FFF7BBFEF8BD05062BD5DB
:102CF0000D0629D594F83D002128F6D1A068B0F53D
:102D0000805F01D12069B0B1206A411C2162216835
:102D100000784860E08C401E0004000CE084E4D1A0
:102D20002068C16821F08001C1602068C16841F05D
:102D30004001C160F8BD206A0088C0F308005060FF
:102D4000206A801C2062E5E74006F3D54806F1D5ED
:102D5000D168204621F04001D16084F83D3000F078
:102D6000B3F9F8BD1F3E000870B5040004D094F814
:102D70003D00002510B106E0012070BD84F83C50F4
:102D8000204600F023F8242084F83D002068C16824
:102D900021F40051C160204601F040F9206801692A
:102DA00021F4904101612068416921F02A014161CB
:102DB0002068C16841F40051C1602564202084F876
:102DC0003D0084F83E00002070BD00002DE9F04772
:102DD00086B0002500950195029503950446DFF81D
:102DE0006CC103685A48022103225A4E80274FF0D3
:102DF00010094FF4805A63454ED1836943F48043F0
:102E00008361836903F480430493836943F004037B
:102E100083618069039200F0040004900802CDE908
:102E2000000169463046FEF7D7FD3015CDE90005B3
:102E3000694630460295FEF7CFFD484E4648B846F3
:102E4000C6E90005C6E9025735617561C6E9065A4B
:102E500057463046FEF71AFC08B1FEF760F8A66345
:102E600074623E4E3C4844361438C6E90258356117
:102E70007561C6E90009C6E906573046FEF706FC4B
:102E800008B1FEF74CF86663002202212520746227
:102E9000FEF708FF252053E0DFF8C4C0634551D199
:102EA000C36943F40033C361C36903F4003304937B
:102EB000836943F0040383618069039200F0040096
:102EC00004900420CDE9000169463046FEF784FDF8
:102ED0000820CDE90005694630460295FEF77CFDE5
:102EE0001E4E1D4888362830C6E902573561756187
:102EF000C6E90009C6E9065AB84657463046FEF705
:102F0000C5FB08B1FEF70BF866637462134E1248F6
:102F1000CC361430C6E90005C6E902583561756142
:102F2000C6E906573046FEF7B1FB08B1FDF7F7FFDB
:102F3000A6630022012126207462FEF7B3FE26203C
:102F4000FEF7A2FE06B0BDE8F087000000380140A1
:102F500000100240000801405800024048050020CF
:102F60000044004090F83E30202B0ED159B152B1B0
:102F700090F83C30012B08D0012380F83C3000232E
:102F8000036301F0A7B80120704702207047704723
:102F9000704700002DE9F843044690F83D001F46B5
:102FA00016460D4620284CD1C5B1BEB194F83C0060
:102FB000012846D0012084F83C004FF00008C4F8F6
:102FC0004080212084F83D00FEF700FEA684814663
:102FD000E684A068B0F5805F03D004E00120BDE87E
:102FE000F883206928B12E465FF0000584F83C8004
:102FF0000EE00026FAE78021204601F0A3F8A0B9F0
:10300000AEB116F8010B21684860E08C401EE084E8
:10301000E08C4B464FF0000200970028EBD14FF0B8
:103020004001204601F08EF830B10320D7E735F893
:10303000020BC0F30800E6E7202084F83D000020E2
:10304000CDE70220CBE7000070B5044690F83D00C4
:10305000202830D169B362B394F83C0001282AD00B
:10306000012084F83C002162A284E28400252564CA
:10307000212084F83D00636B10489862636B104810
:10308000D862636B0F481863606B1346456326680C
:10309000606B321DFEF728FB21686FF0400008606E
:1030A00084F83C502068416941F080014161002072
:1030B00070BD012070BD022070BD0000ED3E000813
:1030C0001B3F00082F3E000870477047FEE702F0E4
:1030D0004DBE00000F22072817D882000F20904015
:1030E000194A01290AD0002907D1116881431160CA
:1030F000116800F03330014311607047116881435B
:103100001160116800F08830F5E70F28F5D808380D
:10311000C3B20D48001D01290CD00029EDD1990042
:103120008A40016891430160016802F03332114323
:103130000160704799008A4001689143016001680D
:1031400002F08832F3E70000000C01407CB5144621
:103150000D4606466B4606224321682000F03EF9E4
:1031600000280BD1BDF8001049BA3180BDF802101B
:1031700049BA2980BDF8041049BA21807CBD0000FD
:1031800030B5094C0025C4F880512946012004F5CA
:10319000C074FFF79FFF656000F008F80120206011
:1031A00000F004F8256030BD008021420020401C62
:1031B000C0B20528FBD370477047000030B5094CFA
:1031C0000025C4F880512946012004F5C074FFF79A
:1031D00081FF01216160FFF7E9FF2160FFF7E6FF52
:1031E000256030BD0080214270B5054601210024D4
:1031F0000846FFF76FFF00210F4A0B46012600BF6C
:10320000C2F88031FFF7D2FFC2F880616006040E79
:10321000D2F8040108B1641CE4B2FFF7C7FF491CEF
:10322000C9B20829ECD31DB1FFF7AAFF204670BD33
:10323000FFF7C4FFFAE700000080214230B50446E2
:1032400000210120FFF746FF0B490023C1F8803120
:103250001A460125E009C1F884016006040EC1F890
:103260008051FFF7A3FFC1F88031FFF79FFF521C89
:10327000D2B2082AEED330BD0080214200B5002131
:103280000120FFF727FF08490120C1F88401C1F898
:10329000800101F5C071FFF789FF00224A60FFF746
:1032A00085FF0A6000BD00000080214200B50021BA
:1032B0000120FFF70FFF08490020C1F88001C1F885
:1032C000840101F5C071FFF771FF012008604860BB
:1032D0005DF804EBFFF76ABF0080214210B50121C1
:1032E00000240846FFF7F6FE0C490122C1F88421AC
:1032F000FFF75CFFC1F88021FFF758FF07E0641C6F
:10330000E4B2FA2C03D9FFF7D1FF012010BDD1F8A8
:1033100004010028F3D1C1F8800110BD00802142D2
:103320001E4910B50020C1F8A801FFF745FF802114
:103330006B2000F0C2F8642002F036F800216B2008
:1033400000F0BBF8032000F084F8002000F07CF8C7
:103350004FF4967000F09AF80021382000F0ADF894
:1033600000216A2000F0A9F80021232000F0A5F830
:103370008021372000F0A1F8752000F011F86828AE
:1033800001D0012010BD01216B2000F096F8002132
:103390006C2000F092F8002010BD00000080214257
:1033A00010B50446FFF76AFFD020FFF747FFFFF78D
:1033B00095FF2046FFF742FFFFF790FFFFF75EFF04
:1033C000D120FFF73BFFFFF789FF0020FFF70CFF3D
:1033D0000446FFF76BFF204610BD00002DE9F041C9
:1033E0001D4614460F460646FFF748FF7006000EBE
:1033F000FFF724FFFFF772FF20B1FFF757FF01200F
:10340000BDE8F0813846FFF719FFFFF767FFFFF7C8
:1034100035FF012000EB4600C0B2FFF70FFFFFF7BA
:103420005DFF09E0012C0DD05FF00100FFF7DCFE2D
:10343000641E05F8010BE4B2002CF3D1FFF736FF50
:103440000020DDE70020F1E7C006010E1C2000F09F
:1034500034B8C006010E1B2000F02FB8BC2801D3E1
:10346000012110E0622801D302210CE02A2801D3B7
:10347000032108E0142801D3042104E00A2801D321
:10348000052100E006211A2000F017B810B5044607
:103490004FF47A70844201D9044602E0042C00D231
:1034A0000424B0FBF4F0401EC1B2192000F005F86E
:1034B0006008BDE81040FFF7D1BF70B50C46054667
:1034C000FFF7DCFED020FFF7B9FEFFF707FF50B98A
:1034D0002846FFF7B3FEFFF701FF2046FFF7AEFED9
:1034E000FFF7FCFE18B1FFF7E1FE012070BDFFF70A
:1034F000DDFE002070BD2DE9F0411E4615460F4649
:103500000446FFF7BBFE6006000EFFF797FEFFF7CD
:10351000E5FE60B93846FFF791FEFFF7DFFE0024B5
:103520000CE0305DFFF78AFEFFF7D8FE20B1FFF711
:10353000BDFE0120BDE8F081641CE4B2AC42F0D3D2
:10354000FFF7B4FE0020F5E73EB5002415480094CF
:103550000194029412498460016001250573047589
:1035600005614FF460214460C161FDF7C9FD08B1F8
:10357000FDF7D5FCCDE9004569460A480294FDF700
:103580003DFD08B1FDF7CBFC0648FDF7CBFC00285C
:10359000FAD104490A2214390248FDF787FE3EBDDC
:1035A000002401402C010020194808B5416941F070
:1035B000010141614069002200F0010000901146C4
:1035C0000B20FEF76FFB0B20FEF75EFB002211467F
:1035D0000E20FEF767FB0E20FEF756FB0022114679
:1035E0000F20FEF75FFB0F20FEF74EFB0022114677
:1035F0001020FEF757FB1020FEF746FB0022114675
:103600001120FEF74FFBBDE808401120FEF73CBB40
:10361000001002402DE9F04385B000243D4800949D
:10362000019402940394816941F0100181618169E0
:1036300001F010010491816941F0200181618169EB
:1036400001F020010491816941F0040181618169E7
:1036500001F004010491816941F0080181618069F0
:10366000DFF8B48000F00800049000224FF4865187
:103670004046FEF7A6FADFF8A49000224FF203714D
:103680004846FEF79EFAC0201127CDE90007032522
:1036900069464046CDE90245FEF79EF94FF20340E8
:1036A0000126CDE9000669464846CDE90245FEF708
:1036B00093F9F00200901A48CDE9010669464846A0
:1036C000FEF78AF93003CDE9000669464046CDE9A8
:1036D0000245FEF781F9F0030090124801900220A4
:1036E000029069464046FEF777F92802CDE90007C7
:1036F00069464846CDE90245FEF76EF900221146BB
:103700002820FEF7CFFA2820FEF7BEFA05B0BDE864
:10371000F08300000010024000080140000C01404E
:10372000000021100000111010B596B000240F9475
:1037300010941194129413941C2168461494FCF76D
:103740000AFD202107A8FCF706FD2D482B49016042
:103750004721C0E9011442F20F71C0E9031480212E
:10376000C0E90541FEF798FE08B1FDF7D8FB4FF41C
:1037700080500F900FA92248FEF715FF08B1FDF702
:10378000CEFB1F48FFF7EFF808B1FDF7C8FB139415
:1037900013A91B481494FEF74BFE08B1FDF7BFFBBD
:1037A0006020CDE90004029403940494059400225F
:1037B000694613480694FFF773F808B1FDF7AFFBAD
:1037C0000C2269460E48FFF76BF808B1FDF7A7FB1E
:1037D0000794089409944FF400500A94CDE90B40E3
:1037E00007A907480E94FEF7F9FD08B1FDF797FB0E
:1037F0000348FFF72DF816B010BD0000002C014063
:10380000A001002010B586B0002416480094019451
:103810000294039404944FF0804105940160472181
:10382000C0E901144FF6FF71C0E903148461FEF78B
:1038300033FE08B1FDF773FB4FF4805000906946EA
:103840000848FEF7B0FE08B1FDF769FB049404A92F
:1038500004480594FEF7ECFD002801D0FDF75FFB5E
:1038600006B010BDE801002010B58CB024216846D8
:10387000FCF771FC00241648099414490A94C0E925
:1038800000144FF6FF71C0E9024104618461032016
:10389000CDE900040120CDE902040494CDE90540FE
:1038A000079469460A480894FEF7E8FE08B1FDF758
:1038B00036FB099409A906480A94FEF7B9FD0028C9
:1038C00001D0FDF72CFB0CB010BD0000000400403F
:1038D0003002002010B58CB024216846FCF73BFC78
:1038E00000241648099414490A94C0E900144FF6BC
:1038F000FF71C0E90241046184610320CDE9000445
:103900000120CDE902040494CDE9054007946946FD
:103910000A480894FEF7B2FE08B1FDF700FB0994CF
:1039200009A906480A94FEF783FD002801D0FDF797
:10393000F6FA0CB010BD000000080040780200202C
:1039400038B5154C13480C2120604FF4E13060600D
:103950000020A060E060C4E90401A061E0612046AD
:10396000FFF702FA08B1FDF7DAFA4FF480720B495B
:103970000948FFF7F7FA206802E001684168009102
:103980000168C943C906F8D5C16841F01001C1609A
:1039900038BD000000380140C0040020C0020020F3
:1039A00038B5154C13480C2120604FF4E1306060AD
:1039B0000020A060E060C4E90401A061E06120464D
:1039C000FFF7D2F908B1FDF7AAFA4FF480720B495C
:1039D0000948FFF7C7FA206802E0016841680091D2
:1039E0000168C943C906F8D5C16841F01001C1603A
:1039F00038BD00000044004004050020C003002042
:103A0000FEE7000005480021C0F8B011C0F8B4116D
:103A1000C0F8B811C0F8BC11704700000080214206
:103A2000FEE770470FB470B5C0B0044646AB4FF424
:103A300080716846459A00F077FC05460C490D48B0
:103A40008C4201D1012103E00B498C4201D10221BA
:103A5000C17000246E4604E0315D08A000F054FC03
:103A6000641CAC42F8DB40B0284670BC5DF814FB27
:103A7000003801408600002000440040256300001B
:103A80000021032803D0042803D000207047034AF4
:103A900000E0034A1068116000B27047240400403F
:103AA000240800407047000010B5002801DB0246E2
:103AB00000E04242642A00DA0020002901DB0A46C5
:103AC00000E04A42642A00DA00214B42012400222D
:103AD0002149002806DAC1F8B441C1F8B021C0F18B
:103AE000000009E0C1F8B42102DDC1F8B04103E0F3
:103AF000C1F8B0214FF00000002B06DAC1F8BC413C
:103B0000C1F8B821C3F1000309E0C1F8BC2102DD0E
:103B1000C1F8B84103E0C1F8B8214FF000030F49E4
:103B20000968CA6AA2F57A72824202D2C86AA0F50E
:103B30007A70CA6AA2F57A729A4202D2CB6AA3F567
:103B40007A730749074AB1F9001008441060581801
:103B500004490C31086010BD00802142A001002002
:103B600048000020342C0140FEF736B830B593B041
:103B700028216846FCF7EFFA14210AA8FCF7EBFAB3
:103B8000002501200F9510951195010412958DE8DF
:103B9000230004904FF4E010CDE9081002240794AC
:103BA0006846FEF777FA08B172B6FEE70AA90F2059
:103BB00081E831004FF48060CDE90D0502210AA8AB
:103BC000FEF77CF908B172B6FEE74FF400401190A1
:103BD0000F940FA8FEF7FCF8002801D072B6FEE79C
:103BE00013B030BD70470000F0B50268164B174C9B
:103BF000174D4FF08047984205D0B84203D0A042FD
:103C000001D0A84203D122F070064A68324398429C
:103C100005D0B84203D0A04201D0A84203D122F47B
:103C20004074CA6822434C6922F080022243026039
:103C30008A68C2620A688262984201D10969016396
:103C400001214161F0BD0000002C01400004004052
:103C50000008004010B501F01F030121046A9940DB
:103C60008C430462016A9A401143016210BD10B591
:103C7000846842EA032224F47F440A432243826098
:103C800010BD826822F070020A4342F00701816091
:103C90007047000030B5026A22F001020262026A37
:103CA0004368846924F073050C682C4322F00205F4
:103CB0008A682A430A4DA8420BD122F00805CA6837
:103CC00023F440732A434D6922F004021D438B699B
:103CD0002B434360846149684163026230BD000048
:103CE000002C014030B5026A22F010020262026A22
:103CF000436884690D6824F4E64444EA05248D6829
:103D000022F0200242EA05120B4DA8420ED1CD68E6
:103D100022F0800242EA05124D6923F4406343EA2F
:103D200085038D6922F0400243EA85034360846184
:103D300049688163026230BD002C014030B5026ADF
:103D400022F480720262036A4268C46923F4007339
:103D500024F073050C682C438D6843EA05230C4D51
:103D6000A8420ED1CD6823F4006343EA05234D69D0
:103D700022F4405242EA05128D6923F4806342EA3C
:103D800005124260C4614968C163036230BD00002E
:103D9000002C014030B5026A22F480520262046AAB
:103DA0004268C3690D6823F4E64343EA05238D683E
:103DB00024F4005444EA0534064DA84204D14D6968
:103DC00022F4804242EA85124260C361496801647C
:103DD000046230BD002C014010B5036A046A24F06F
:103DE00001040462846924F0F00444EA021423F01C
:103DF0000A020A438461026210BD10B5036A23F00F
:103E0000100303628369046A23F4704343EA0232B5
:103E100024F0A00343EA01118261016210BD10B5D4
:103E2000406A0021C185C184FEF76AFE10BD70B5ED
:103E3000446A2068406994F83D10C0F3C010002522
:103E4000212904D118B1E584204600F083F82068C8
:103E5000406994F83E10C0F38010222904D118B1B3
:103E6000E585204600F05EF8206C40F010002064EC
:103E70002046FEF745FE70BD10B50146406A096850
:103E8000096889061BD40021C1850168CA6822F42B
:103E90008072CA6001684A6922F001024A610168C1
:103EA0004A6922F040024A61202180F83E10016BED
:103EB000012904D10168CA6822F01002CA60016BAE
:103EC000012902D0FFF763F810BD818DFEF7C8FD10
:103ED00010BD10B5406A016B012902D0FFF758F8F8
:103EE00010BD818D4908FEF7BBFD10BD10B5014620
:103EF000406A0968096889060CD40021C1840168F8
:103F00004A6922F080024A610068C16841F04001BC
:103F1000C16010BDFFF7D8F810BD10B5406AFFF7BB
:103F2000D4F810BD0168CA6822F49072CA600168B2
:103F30004A6922F001024A61016B012904D101683A
:103F4000CA6822F01002CA60202180F83E100021C9
:103F5000016370470168CA6822F0C002CA6020216C
:103F600080F83D10704708B590F83E10222901D026
:103F7000022008BD82684FF480539A4201D1016942
:103F800021B1816A9A421BD04AB10AE00268816A73
:103F90005268C2F308020A80816A891C08E002693B
:103FA00072B10268526802F07F020A70816A491C8D
:103FB0008162C18D491E0904090CC18503D019E035
:103FC00002685268F1E70168CA6822F02002CA60FC
:103FD0000168CA6822F48072CA6001684A6922F0E6
:103FE00001024A61202180F83E10016B012903D0B3
:103FF000FEF7CDFF002008BD002101630168CA68FB
:1040000022F01002CA6001680A68D20602D50A6866
:1040100049680091818DFEF723FDEBE770B50446FA
:1040200000680169E26821F440511143016121698E
:10403000A0680843616908432168CA6841F20C63BB
:104040009A430243CA6020684169A26921F4407121
:10405000114341611E492068884202D1FDF7D4FF17
:1040600001E0FDF7C1FF00EBC00101EB0012606849
:1040700064218000B2FBF0F3B3FBF1F36FF018069C
:104080007343B2FBF0F5B2FBF0F605EB8305322388
:1040900003EB0515B5FBF1F5B6FBF1F605F0F00500
:1040A00005EB0615B2FBF0F6B2FBF0F0B0FBF1F059
:1040B0006FF01802504306EB800003EB0010B0FBDA
:1040C000F1F0216800F00F002844886070BD000006
:1040D0000038014038B581628285002513460446C8
:1040E0000564222084F83E00A26B13489062A26B04
:1040F0001248D062A26B12481063A06B0A46456357
:104100002168A06B091DFDF7EFFA2068016841687E
:10411000009184F83C50C16841F48071C16020680E
:10412000416941F0010141612068416941F040016C
:104130004161002038BD0000793E0008D33E0008F0
:104140002F3E00082DE9F041984617460E460446DA
:10415000069D1DE0681C1BD02DB1FDF737FDA0EBBF
:104160000800A84214D92068C16821F4D071C16048
:104170002068416921F001014161202084F83D005F
:1041800084F83E00002084F83C000320BDE8F08164
:104190002068006836EA000004D00020B842D9D078
:1041A0000020F3E70120F9E738B5104C20680068DB
:1041B000C043C00619D404F1CC0090F821000228B5
:1041C0000FD00B4D287860B9204600F04DF804F16F
:1041D00088000068406880B2C0F58070A880012027
:1041E0002870206801684068009038BDC004002035
:1041F0008600002010B50348FEF7B0FCBDE8104073
:10420000FFF7D2BFC004002038B5104C206800680A
:10421000C043C00619D404F1CC0090F82100022854
:104220000FD00B4D687860B9204600F01DF804F5FA
:1042300088700068406880B2C0F58070E880012016
:104240006870206801684068009038BD040500204F
:104250008600002010B50348FEF780FCBDE8104042
:10426000FFF7D2BF0405002010B50446006841697D
:1042700094F83E20C1F38011222A20D100291ED0BB
:10428000416921F040014161A06B08B1FDF7DEF802
:104290002068C16821F49071C1602068416921F0F3
:1042A00001014161206B012804D12068C16821F01F
:1042B0001001C160202084F83E000020206310BD62
:1042C00010B50D4CD4F83C01012814D10B48FEF771
:1042D0002FF90A4800210268516242F21071006809
:1042E00002E0426A8A4203D2D4F83C21002AF8D183
:1042F000406A0349088010BD00002142E801002007
:104300004C000020FEE700000FB4054B10B503A9D8
:10431000044A029800F086F910BC5DF814FB000016
:10432000D55B0008A00000207CB50C001D46164699
:10433000014601D0601E00E00020CDE90010064BD0
:104340006A462946304600F06DF9002C02D0009AEA
:10435000002111707CBD00002B4D0008490050EA7F
:10436000C12018BF04204A0D18BF40F0010040F2E0
:10437000FF72B2EB515F08BF40F00200012808BF96
:10438000052070470907090E002804DB00F1E02032
:1043900080F80014704700F00F0000F1E02080F872
:1043A000141D70472DE9F0414F1E00EBC701044674
:1043B000D1E9000115461E4637F006020DD02A4607
:1043C0003346FCF75BF87F1E04EBC703D3E90023F9
:1043D000FBF7ADFF37F00602F1D1022F25D0042FF5
:1043E00013D0062F18BFBDE8F0812A463346FCF7EC
:1043F00045F8D4E90A23FBF79AFF2A463346FCF72F
:104400003DF8D4E90823FBF792FF2A463346FCF730
:1044100035F8D4E90623FBF78AFF2A463346FCF732
:104420002DF8D4E90423FBF782FF2A463346FCF734
:1044300025F8D4E90223FBF77AFF2A463346FCF736
:104440001DF8D4E90023BDE8F041FBF770BF01225D
:10445000FCF7F5B8FBF76BBF002213461046114678
:10446000FCF77EB8024A00201107FCF7E8B800000C
:1044700001FDFFFF02E008C8121F08C1002AFAD19F
:1044800070477047002001E001C1121F002AFBD1D4
:10449000704700000149086070470000A400002038
:1044A0002DE9FF5F82B00021DDE90430020DDDF867
:1044B00040B0034318D044F61050A2F2FF324243FA
:1044C0001514119801281FD0A5EB0B00401C5FEAC2
:1044D000000A4FF000064E4FDFF83891B0465046C4
:1044E00015D5CAF1000413E0119801244AA301284C
:1044F00001D16FEA0B010298119AC0E90031C0E9BD
:10450000024206B0BDE8F09FCBF10000DFE70446B1
:104510000021404A491842EB0450CDE9001012E056
:10452000E00707D032463B4640464946FBF7A6FF28
:104530008046894632463B4610461946FBF79EFFA9
:1045400006460F466410002CEAD1DDE90401DDE9DE
:104550000023BAF1000F06DAFBF790FF42464B4604
:10456000FBF78CFF05E0FBF7FBFF42464B46FBF7F2
:10457000F7FF04460E460022284BFCF7E3F803D869
:104580004FF0FF30014607E00022254B2046314620
:10459000FBF7CDFEFCF706FA102409E0002C0ADB3D
:1045A0000A220023FCF718F9039B30321A55641EC7
:1045B00050EA0102F2D1641C039AC4F111031444BD
:1045C000119A012A03D0012208430DD10AE00843C1
:1045D00004D000204FF0110B119072E7A3EB0B05F4
:1045E0006D1E0DE05B4504DD4FF0000205F1010595
:1045F00004E003DA4FF00002A5F10105002AECD037
:1046000002981199C0E90231C0E9004579E700003C
:10461000000014400000F03F300000000000F043B4
:104620000000E03F2DE9FF4F95B09A4688460646C8
:104630000025EEE1252877D100242746F94A0121FB
:10464000039400E0044316F8013F203B01FA03F015
:104650001042F7D130782A2811D06FF02F0330782C
:10466000A0F13002092A16D8039A44F0020402EBA2
:10467000820203EB42021044761C0390EFE758F8E5
:10468000042B0392002A03DA504244F400540390AE
:1046900044F00204761C30782E2816D116F8010F4B
:1046A00044F004042A280DD06FF02F023078A0F1D6
:1046B0003003092B09D807EB870302EB4303C71824
:1046C000761CF3E758F8047B761C30786C280FD002
:1046D00006DC4C2817D068280DD06A2814D104E0D5
:1046E000742810D07A280FD10DE044F400140AE0A9
:1046F00044F4801401E044F440147278824202D100
:1047000004F58014761C761C307866280BD013DCF8
:10471000582877D009DC002875D04528F6D04628DF
:10472000F4D047281AD193E118E0632835D06428E3
:1047300079D0652812D18BE1702873D008DC672806
:10474000F1D069286FD06E280DD06F2806D1ACE06B
:1047500073282CD0752874D0782853D052461799D6
:1047600090476D1C54E1C4F30250022809D003287D
:104770000DD0D8F8001004280DD00D6008F1040801
:1047800046E1D8F80010EA17C1E90052F6E7D8F878
:1047900000100D80F2E70D70F0E718F8041B8DF89B
:1047A000001000208DF80100EB46012003E058F8CE
:1047B00004BB4FF0FF3061074FF0000102D40DE061
:1047C00009F101018946B9420FDA8145F8DB1BF88E
:1047D00009100029F4D108E009F10101894681425C
:1047E000FADB1BF809100029F6D103985346A0EB19
:1047F000090721463846179A00F080FA284400EB52
:10480000090507E044E008E10DE01BF8010B524602
:1048100017999047B9F10109F7D253462146384616
:10482000179AF2E039E00A21C4F302524FF0000B6C
:104830000091022A06D058F8040BC117032A09D0A8
:104840000AE023E008F1070020F00702F2E8020185
:10485000904605E000B2C117042A01D140B2C11749
:10486000002906DA0A460021404261EB02012D22AE
:1048700002E0220504D52B228DF80420012203E05A
:10488000E20701D02022F7E7914657E00A2100E035
:1048900010214FF0000B00910BE010214FF0000BA6
:1048A00044F004040827009103E008204FF0000BB7
:1048B0000090C4F30252022A05D058F8040B0021DC
:1048C000032A08D008E008F1070020F00702F2E808
:1048D0000201904603E080B2042A00D1C0B24FF03A
:1048E000000922072AD53278702A07D0DDF800C0E7
:1048F0008CF0100C5CEA0B0C05D00EE040228DF819
:104900000420012208E050EA010306D030238DF88C
:1049100004308DF8052002229146009B83F00803A5
:1049200053EA0B030AD150EA010201D1620705D50F
:1049300030228DF804204FF001097F1E3278582A6A
:1049400004D039A20C920CAA02920BE03BA2F9E728
:104950005B46009AFBF740FF0C9B9B5C029A521E41
:104960000292137050EA0102F2D1029804A9081AC7
:1049700000F1200B600702D524F4803400E0012709
:104980005F4502DDA7EB0B0000E0002000EB0B0110
:10499000009003984944401A0390E00306D453461C
:1049A0002146179A039800F0A9F90544002706E06C
:1049B00001A85246C05D179990476D1C7F1C4F455A
:1049C000F6DBE0030CD553462146179A039800F016
:1049D00095F9054404E030205246179990476D1C24
:1049E0000099481E00900029F5DC08E00298029921
:1049F00052460078491C0291179990476D1CBBF1F3
:104A00000001ABF1010BF1DC5BE100F065F905445D
:104A1000761C307800287FF40DAE19B02846BDE82A
:104A2000F08F000009280100303132333435363739
:104A300038396162636465660000000030313233EA
:104A4000343536373839414243444546000000008A
:104A5000600700D4062708F1070020F00700F0E8FF
:104A60000223804603F0004C5FEA0C0001D097A0BF
:104A700009E0200501D596A005E0E00701D095A04A
:104A800001E0AFF24C001390307823F0004365282A
:104A90000CD006DC452809D046281DD047287FD1F8
:104AA0003BE0662818D067287AD136E00021112F24
:104AB00001DB112000E0781CCDE9000104A90CA85D
:104AC000FFF7EEFCDDE90D010C9A4FF0000B07F14A
:104AD0000109109200914EE04FF000400097CDE99F
:104AE000011004A90CA8FFF7DBFCDDE90D020C9B0B
:104AF0000F994FF0000B91461093009211B9791C59
:104B000000EB0109B7EB090003D4C0F1FF3B07F14B
:104B10000109A9EB0700019042E0012F00DA01270B
:104B20000021112F01DD112000E03846CDE9000100
:104B300004A90CA8FFF7B4FCDDE90D010C9A009163
:104B40004FF0000BB946109221070FD4009A4A4546
:104B500003DA914601E0A9F10109B9F1010F05DD80
:104B6000109AA9F10101515C3029F4D0B84202DA5F
:104B700010F1040F03DA0121CDE9011010E0002843
:104B800003DC8344A9EB000102E0411C494500DD40
:104B90008946A0EB0B00401C01904FF000400290B2
:104BA000200705D40198484502DB4FF0FF30019003
:104BB00000208DF84B0002980DF14B07B0F1004F2B
:104BC00025D002200C902B200D90029800280CDAA2
:104BD000404202902D200D9007E00A210298FBF739
:104BE000E5FD3031029007F8011D0C99481E0C902C
:104BF0000029F2DC02980028EFD1791E0D98087088
:104C0000307800F0200040F0450007F8020D11A8B0
:104C1000C01BC01D02901398007800B1012000EB6A
:104C20000901019801EBE071029801440398401AD0
:104C3000401E0390E00306D453462146179A03987A
:104C400000F05CF805441398007818B152461799A3
:104C500090476D1CE00323D553462146179A0398CD
:104C600000F04CF805441BE0BBF1000F07DB009897
:104C7000584504DD1098179910F80B0001E01799BA
:104C800030205246904701980BF1010B401E05F170
:104C90000105019004D12E205246179990476D1CB2
:104CA000B9F10001A9F10109DEDC05E017F8010BFB
:104CB0005246179990476D1C0299481E0290002990
:104CC000F4DC53462146179A03989EE62D00000017
:104CD0002B000000200000002DE9F04104460025D3
:104CE0001E461746880404D405E039462020B04704
:104CF0006D1C641EF9D52846BDE8F0812DE9F04110
:104D0000044600251E469046C80301D5302700E022
:104D10002027880404D505E041463846B0476D1C7D
:104D2000641EF9D52846BDE8F0814A68002A06D0FD
:104D30000A68531C0B6010704868401E486070473A
:104D40002DE9F04D8D4F21F0004A86B005460C4606
:104D5000BA452ADBAAEB070028430AD088488245D7
:104D600001DC1AD1CDB106B02846BDE8F04DFFF701
:104D70006EBB844A844B2846FBF780FB07460E46F1
:104D8000824A834B28462146FBF778FB06B03A4619
:104D90003346BDE8F04DFBF7CABA0120FFF77AFBB6
:104DA00006B0BDE8F04DFFF757BB7A48824542DABE
:104DB000BAF1795F0BDA2846FFF7D0FA042808BF6A
:104DC000FFF750FB284606B02146BDE8F08D2A4685
:104DD0000B461046FBF752FB834602466E480E46D2
:104DE0000B4606217844FFF7DDFA5A463346FBF7B7
:104DF00045FB804669488A465A4633460421784432
:104E0000FFF7D0FA5A463346FBF738FB00223B4601
:104E1000FBF78DFA02460B4640465146FBF7A0FBD6
:104E20002A462346FBF72AFB06B02A462346BDE85E
:104E3000F04DFBF77CBA284624F0004100223D46A5
:104E40003B46FBF718FB4FF0FF32FBF7F8FB06463B
:104E5000024653480F460B4606217844FFF7A2FA54
:104E600032463B46FBF70AFBCDE900014D4832468E
:104E70003B4604217844FFF795FA32463B46FBF760
:104E8000FDFA00222B46FBF752FA83460291304688
:104E9000394601F08FFE804643480D46504517DCE9
:104EA000DDE900015A46029BFBF75AFB42462B46BE
:104EB000FBF7E4FA42462B46FBF739FA0122FBF7EF
:104EC000BEFB304A304BFBF7D3FA304A304B4CE054
:104ED0004FF0000A52460B464046FBF728FACDE950
:104EE000031052462B4610461946FBF7C7FA3246C6
:104EF0003B46FBF7C0FADDE90332FBF731FB064620
:104F00000F46DDE900015A46029BFBF729FB834669
:104F10000091012230463946FBF791FB194A1A4BA2
:104F2000FBF7A9FA06460F46012240462946FBF741
:104F300086FB5A46009BFBF7A1FA32463B46FBF73D
:104F400097FA06460F46012250462946FBF777FBA3
:104F50000E4DDFF858802A464346FBF78CFA32465E
:104F60003B46FBF788FA2A464346FBF784FA002CB7
:104F7000D8BF81F0004106B0BDE8F08D0000F03FE1
:104F80000000F07F075C143326A6913C182D445492
:104F9000FB21F93F0000E03F802B0000962B000032
:104FA0000A2B0000202B00003333EF3FFB21E93FA9
:104FB0002DE9F84F04460D4621F000400091734959
:104FC000814211DC7249884201DC06D12CB12046B5
:104FD0002946BDE8F84FFFF73ABA6E48002DCCBF1E
:104FE0006D496E49BDE8F88F6D49814211DD6D490B
:104FF0008142D8BF4FF0FF366DDD20462946FFF7CE
:10500000ADF9042808BFFFF72DFA20462946BDE870
:10501000F88F6549654F25F00045814233DD6449CD
:10502000814219DD002632464FF080432046294652
:10503000FBF77DF980468A46012220462946FBF788
:10504000FEFA00223B46FBF713FA42465346FBF7B3
:1050500087FA04460D463EE001260022BA463B464A
:1050600020462946FBF763F980460F460022534647
:1050700020462946FBF7FCF942463B46FBF770FA0F
:1050800004460D4627E04B4981421BDDDFF828A18D
:1050900002260022534620462946FBF7EFF900225C
:1050A0003B46FBF744F980460F4600225346204614
:1050B0002946FBF7DDF942463B46FBF751FA044629
:1050C0000D4608E0032622462B4600203B49FBF70D
:1050D00047FA04460D4622462B4610461946FBF772
:1050E000CDF98B46824602460B46FBF7C7F90746C9
:1050F0000246334888460B4606217844FFF752F9AA
:1051000052465B46FBF7BAF982462E488B463A4632
:10511000434605217844FFF745F93A464346FBF7F5
:10512000ADF902460B46002E504659460CDAFBF705
:10513000FEF822462B46FBF7A1F901B022462B468A
:10514000BDE8F04FFBF797B9FBF7F1F822462B4685
:10515000FBF794F91C4A7A4402EBC603D3E9002317
:10516000FBF786F922462B46FBF782F9174A7A4469
:1051700002EBC603D3E90023FBF77DF9009A002A6E
:10518000B8BF81F00041BDE8F88F00000000104476
:105190000000F07F182D4454FB21F93FFB21F9BF9B
:1051A0000000DC3F0000203E0000F33F0000F03F25
:1051B0000000E63F008003400000F83F0000F0BF21
:1051C00022290000E02800007E2800004628000078
:1051D0002DE9F04D9446CCF1000423F000464CEA52
:1051E0000404594F46EAD4749A46884621F0004296
:1051F000BC4206D8454240EA050442EAD474BC42A7
:1052000004D9BDE8F04D6246FFF724B9AAF1405534
:10521000A5F17F6555EA0C040BD0022404EAAA74B8
:105220004A4DDFF82CE144EAD87452EA000B04D06E
:105230000CE0BDE8F04DFFF7BBBE002C14BF012C05
:10524000BDE8F08D022C30D0032C32D056EA0C0B86
:105250000AD0BE4220D1BA4209D126F0804622F0BF
:1052600080423346114617E000291ADB25E0DFF8BB
:10527000E4B0FB44002C04BFDBE90001BDE8F08D85
:10528000012C02BFDBE9000181F00041BDE8F08D97
:10529000022C0AD0032C0CD0BA4212D1B8F1000F64
:1052A0000BDA2A482C49BDE8F08D28462B49BDE889
:1052B000F08D28467146BDE8F08D24482849BDE8A8
:1052C000F08D921B12153C2AC4BF204F244E10DCD7
:1052D000BAF1000FBEBF12F13C0F00273E4608DBBB
:1052E0006246FBF73DF921F00041FFF761FE0746FA
:1052F0000E4694B1012C08BF86F000460DD0194A25
:10530000194B022C3846314615D0FBF7B1F82A4626
:10531000BDE8F04D114BFBF7ABB800221346384601
:105320003146FBF757FB04BF0220FFF7B3F83846BE
:105330003146BDE8F08DFBF79BF82A46BDE8F04DFD
:10534000064BFBF798B800000000F07F182D44547E
:10535000FB2109C0DA270000FB21F9BFFB2109402E
:10536000FB21F93F075C143326A6A13C70B5044627
:105370000C4816460A4601681046FAF756FF21689F
:10538000FAF753FF0546A0693146FAF754FF06467F
:1053900020692946FAF74FFF3146FAF746FFE061E8
:1053A000E06970BD4400002070B50C4C0646002535
:1053B000206845622046FDF7BBF800214FF47A7261
:1053C00005E02068436A9342FCD34562491CB14220
:1053D000F7D3BDE870400148FDF7D2B8E8010020DE
:1053E0002DE9F04104460E48FDF7A2F80C4A0023CF
:1053F000106843621D464CF2503709E000211668E0
:10540000706AB842FBD37362491C1429F7D36D1C30
:10541000A542F3D3BDE8F0410148FDF7B1B8000063
:10542000E801002008B560B120208DF80000282098
:105430008DF8010030208DF8020038208DF803002F
:1054400004E0A32204216846FAF77EFE6A4604219E
:1054500040F69E2001F058FB01F08EF808BD0000D8
:105460003EB5044602208DF80000CA208DF80100E8
:10547000E3208DF8020009208DF803006A4604211C
:10548000682001F041FBA3208DF80000610609D5DA
:10549000C0218DF80110C8218DF80210C2218DF8AD
:1054A000031005E08DF801008DF802008DF803006F
:1054B00014F4C07F09D0C4218DF80410CC218DF8DC
:1054C0000510C6218DF8061005E08DF804008DF852
:1054D00005008DF806008DF808008DF807008DF89E
:1054E00009006A460A2140F6A72001F00DFBA0073B
:1054F0004FF0D80503D020208DF8000001E08DF892
:1055000000506A46012140F6B62001F0FDFAA006DF
:1055100001D5012000E0002000F08EF814F4C07FD7
:105520001ED0E0050AD5B2208DF800008B208DF842
:105530000100B6208DF802009B2009E0B0208DF814
:10554000000080208DF80100B4208DF8020090202A
:105550008DF803006A46042140F6A22001F0D4FA37
:10556000E1074FF40B6022D0F8218DF800106A4655
:10557000012101F0C9FAFA21072000F077FA07208B
:1055800000F042FA012000F05FFA642000F002FB14
:105590004FF4FA7000F00EFBC821254800F0FCF92A
:1055A000282000F011FA0A2000F01EFA05E08DF81C
:1055B00000506A46012101F0A7FAA00703D5D920BF
:1055C0008DF8000001E08DF800506A46012140F29C
:1055D0003D7001F099FA600701D5012000E000203C
:1055E00000F048F8E00601D5012000E00020FFF7B8
:1055F00019FF104D44F00800688100F0BDFF002045
:10560000A873600601D50620A87314F4C07F02D0E9
:10561000A87B801DA87314F0140F02D0A87B103053
:10562000A873A00702D0A87B001DA87300203EBD70
:1056300009E3CA02080100200EB54FF4976310B1C8
:1056400006A107C901E008A207CA8DE807006A465B
:105650000921184601F058FA0EBD0000B8AAB38D12
:10566000B4980D355D000000B8AAAAAAB088C3C5D9
:10567000C700000008B560B1C0208DF80000C2204E
:105680008DF80100C4208DF80200C6208DF80300BB
:1056900004E08B2204216846FAF756FD6A4604218D
:1056A00040F6982001F030FA00F066FF08BD0000D7
:1056B000C8234FF48062024940F6F63000F03EBE47
:1056C000546D00082DE9FF4F89B01746DDE91652E9
:1056D0000024544E884681462C80A246B07B694601
:1056E00000F0D8FE4FF0FF3B18B158460DB0BDE8B2
:1056F000F08F708910F0140F4CD0BDF800109DF899
:10570000022049BA090441EA02239DF803100B4321
:105710003B60BDF804109DF8062049BA090441EA2F
:1057200002229DF807101B140A437A60BDF8081086
:105730009DF80A4049BA090441EA04219DF80B404A
:1057400012142143B960BDF80C409DF80EC064BA34
:10575000240444EA0C2C9DF80F4009144CEA040C74
:10576000C7F80CC04FEA2C475B43494302FB0232A7
:1057700007FB071111441024A1F17061B1F1007F02
:1057800004D900F0F9FEA5F800A0AEE7298841F49D
:10579000807129804206694611D50A19A41D138813
:1057A0005BBAA8F8003053885BBAA8F80230928838
:1057B00052BAA8F804202A8842F008022A8010F47D
:1057C000C07F11D00A19A41D13885BBAA9F8003054
:1057D00053885BBAA9F80230928852BAA9F804201B
:1057E0002A8842F070022A80800716D00C44E078A4
:1057F00000F0C00500F03F016078C00706D0C8087F
:1058000001F007013268491C02B190476078000737
:1058100003D5716809B1A80988470C9800F066FBA8
:10582000002063E70801002030B5044613A285B0CC
:1058300007CA8DE807004FF0FF35C82C16D8C820DE
:10584000B0FBF4F1491E080A8DF80C008DF80D101C
:1058500003AA022140F2162001F056F930B96A4637
:105860000C2140F6C12001F04FF910B1284605B0D7
:1058700030BD054884810020F9E70000FEF2ABC48A
:10588000AAF1DFDFBBAFDFDF080100202DE9FF4118
:1058900004463CA004F00303006802903AA00068AC
:1058A00003903AA006683AA0056802A8C15C8DF88A
:1058B0000010C4F3C101425C8DF80120C4F38112D1
:1058C000805C8DF8020003A8C35C8DF80430415C55
:1058D0008DF80510805C8DF806006A46032140F2C1
:1058E000264001F011F94FF0FF37E0BB01AA032178
:1058F00040F22A4001F008F9A8BBCDE90065600735
:105900000BD59DF8000040F001008DF800009DF8D7
:10591000040040F001008DF80400A0060BD59DF8AE
:10592000010040F001008DF801009DF8050040F0F5
:1059300001008DF80500E0050BD59DF8020040F050
:1059400001008DF802009DF8060040F001008DF87E
:1059500006006A4603214FF4886001F0D5F810B9BB
:1059600001AA032100E004E040F2314001F0CCF84C
:1059700018B1384604B0BDE8F08106480481002023
:10598000F8E700004CCD6C000CC92C0036567600B0
:1059900026466600080100204FF47A7290FBF2F070
:1059A00008B54843010E8DF80010010C8DF8011068
:1059B000010A8DF802108DF803006A4604214FF4A5
:1059C000AE7001F0A1F808BD0521B0FBF1F008B5FB
:1059D000010A8DF800108DF801006A4602214FF48B
:1059E000AD7001F091F808BD0521B0FBF1F008B5EC
:1059F000010A8DF800108DF801006A4602214FF46B
:105A0000AC7001F081F808BD08B500218DF80010D8
:105A1000C10702D030218DF80010810705D59DF80F
:105A2000001041F00C018DF80010400705D59DF8DD
:105A3000000040F003008DF800006A4601214FF499
:105A4000A47001F061F808BD08B560B1042800D960
:105A50000420401E8DF800006A46012140F24F10DC
:105A600001F052F808BD0120F3E700002DE9FC41E8
:105A7000054640074FF0FF367CD0B1F5C86F79D8A6
:105A80000846FAF7FCFD3E49FAF707FC074601A86D
:105A900000F072FB9DF80400022806D004280DD007
:105AA00008282ED0102865D134E00E213846FAF7A8
:105AB00032FCFAF720FE84B2324907E00D21384665
:105AC000FAF729FCFAF717FE2F4984B23846FAF79D
:105AD000B2FBFAF710FE210A8DF8001080B28DF8A3
