:020000040800F2
:10000000780F002001010008C5380008E12F000822
:10001000A53800085D100008214600080000000017
:10002000000000000000000000000000313D00085A
:100030007711000800000000853C0008F53D00082D
:100040001B0100081B0100081B0100081B01000820
:100050001B0100081B0100081B0100081B01000810
:100060001B0100081B0100081B0100081B01000800
:100070001B0100081B010008611000086D1000083A
:1000800079100008851000081B0100081B010008FA
:100090001B0100081B0100081B0100081B010008D0
:1000A0001B0100081B0100081B0100081B010008C0
:1000B0001B0100081B0100081B0100081B010008B0
:1000C0001B0100081B0100081B0100081B010008A0
:1000D0001B01000865440008254500081B010008B5
:1000E000FD1400081B0100081B010008DFF80CD0FC
:1000F00000F074FC00480047A9600008780F002059
:100100000648804706480047FEE7FEE7FEE7FEE7B1
:10011000FEE7FEE7FEE7FEE7FEE7FEE7573E0008E4
:10012000ED000008202A04DB203A21FA02F0002129
:10013000704721FA02F3D040C2F1200291400843F7
:1001400019467047D2B201E000F8012B491EFBD2DC
:1001500070470022F6E710B513460A4604461946D2
:10016000FFF7F0FF204610BD421C10F8011B0029CC
:10017000FBD1801A704730B504460020034600E0EA
:100180005B1C934203D2E05CCD5C401BF8D030BDD9
:10019000F0B480EA0102D40F4200B2EB410F02D268
:1001A0000246084611464A0042D0C30DDDB2C1F3F3
:1001B000C752AD1A202D35DAC1F3160141F4000201
:1001C00004B15242C5F1200602FA06F12A41104458
:1001D000B3EBD05F23D0C4B1012DA0EBC35009DC39
:1001E000F0BC4FF0004202EAC352DBB200F500005F
:1001F00000F039BB400000F1807000EBC350A0F16B
:10020000807040EAD170490009E0490841EAC071B4
:10021000A0EBC35000F50000400800EBC350F0BC59
:1002200000F018BB6142012202EB4101001BF6E71E
:10023000F0BC704781F00041AAE780F00040A7E7DA
:1002400080EA010210B502F00043400022D04A00CB
:100250001FD0010E01EB1261C0F35600C2F356022B
:1002600040F4000042F40002A0FB022000047F39A9
:10027000140400D0401C50EA124001D44000491E32
:10028000C2B20C0604EBD010401C4008802A02D0F9
:1002900003E0002010BD20F00100002900DA00205A
:1002A000184310BD30B480EA010202F0004530F07E
:1002B000004221F0004013D090B1C30DD40DC2F321
:1002C0001601C0F31600E41A41F4000140F40002E4
:1002D0007D34914201D3641C00E04900002C02DA15
:1002E00030BC002070474FF400000023914201D33E
:1002F000891A034340084FEA4101F7D151B19142B5
:1003000002D14FF0004105E002D24FF0010101E0BF
:100310006FF0010103EBC450284430BC00F09ABADE
:10032000420005D0C0F3C7525242914201DC002086
:10033000704700EBC15070472DE9FE4F804681EABF
:100340000300C00F0C46009021F0004123F000454F
:10035000B8EB0200A94105D24046214690461C4612
:100360000B46024623F00040104347D0270DC7F349
:100370000A00C3F30A510290401A019040286BDA38
:10038000C3F3130040F4801B0098924620B1002371
:10039000D2EB030A63EB0B0B01985946C0F1400204
:1003A000504600F036FA06460D4650465946019A28
:1003B00000F03EFA10EB08006141002487EA115278
:1003C00084EAE7731A4340D0009A62B3019A012A83
:1003D0004FEA075215DC001B61EB02014FF00042AF
:1003E00002EA0752CDE90042001C41F58011324675
:1003F0002B4600F075FA03B0BDE8F08F4046214669
:10040000F9E7001B61EB0201001C41F580130018A5
:100410005B412018A2F5001747EB030140EAD570B5
:10042000B6196D4111E06D084FEA360645EAC07510
:100430004FEA0752001B61EB0201001C41F58011DD
:1004400049084FEA30000019514132462B4603B0AB
:10045000BDE8F04F00F035BA0098012240000023BB
:10046000D0EB020263EBE073009821464FEAE074A0
:10047000B8EB000061EB0401E9E783F000435BE7C0
:1004800081F0004158E72DE9FE4F81EA030404F0B2
:10049000004421F0004100944FF0000B23F0004392
:1004A00050EA01045ED052EA03045BD0C3F30A545D
:1004B000C1F30A552C44A4F2F3340194A0FB025476
:1004C000C1F3130141F48011C3F3130343F4801308
:1004D00001FB024400FB034E840A970A44EA81545C
:1004E00047EA8357A4FB076802958D0A05FB078539
:1004F0004FEA932C04FB0C542705029D4FEA065843
:1005000047EA1637B5EB08056EEB070C870E920E1F
:1005100047EA811742EA8312A7FB0201B6EB0B01FF
:1005200064EB00042B0D43EA0C335E1844EB1C50C3
:10053000DA465146E7FB0201C5F313044FEA0B33D9
:1005400043EA14534FEA0432019C43EA0603A4F140
:100550000C040294009CCDE900B400F0C1F903B092
:10056000BDE8F08F00200146F9E72DE9F04D81EA62
:10057000030404F0004B21F0004514464FF0000A3C
:1005800023F0004150EA050220D054EA01021DD0B8
:10059000C5F30A570246C5F31303C1F31300C1F3B1
:1005A0000A5640F4801543F48013A7EB0608101B8D
:1005B000D64608F2FD3873EB050002D308F10108B6
:1005C00001E092185B41B8F1000F03DA0020014608
:1005D000BDE8F08D00204FF48011064684460EE001
:1005E000171B73EB050705D3121B63EB05030643CB
:1005F0004CEA010C49084FEA300092185B4150EA7E
:100600000107EDD152EA030012D082EA040083EA26
:100610000501084305D0101BAB4106D2012200237F
:1006200006E000224FF0004302E06FF00102531099
:100630001AEB06004CEB085110EB0A0041EB0B01E2
:10064000BDE8F04D00F03DB9C10F80EAE07008440C
:10065000CA079623002100F006B99623002211460E
:1006600000F001B90EB5C10F80EAE0700844CA0776
:10067000002140F233438DE80E000A460B4600F09D
:100680002FF903B000BD00F0004220F00040C10D82
:10069000C0F3160040F400007F2901DA0020704703
:1006A000962903DCC1F19601C84001E096398840E3
:1006B000002AF4D04042704720F00040C10DC0F342
:1006C000160040F400007F2901DA002070479629C7
:1006D00003DCC1F19601C8407047963988407047E5
:1006E00000F0004230F000400AD0C10D01F5607109
:1006F000C0F3160042EA0151C20840071143704797
:10070000002001467047000030B5041E71F100045E
:1007100004DB4FF00044404264EB0101141E73F10E
:10072000000405DB1C464FF00043524263EB040318
:10073000994208BF904230BD01F0004330B421F02F
:10074000004150EA010206D00A0DA2F56072C1F321
:100750001301002A02DC30BC00207047440F44EA39
:10076000C104C100E01830BC00EBC25000F072B808
:10077000002801DBC0F10040002901DBC1F100418C
:100780008142704730B50B460146002020220124EB
:1007900009E021FA02F59D4205D303FA02F5491B4F
:1007A00004FA02F52844151EA2F10102F1DC30BD65
:1007B0002DE9F05F0546002092469B468846064696
:1007C000814640241BE02846414647462246FFF723
:1007D000A9FC53465A46C01A914110D311461846F7
:1007E000224600F016F82D1A67EB01084F46224604
:1007F0000120002100F00DF817EB00094E41201EEA
:10080000A4F10104DFDC484631462A464346BDE8F0
:10081000F09F202A04DB203A00FA02F10020704702
:100820009140C2F1200320FA03F31943904070472E
:10083000202A06DBCB17203A41FA02F043EAE073A4
:1008400006E041FA02F3D040C2F120029140084391
:10085000194670470029A8BF7047401C490008BFCF
:1008600020F00100704710B4B0FA80FC00FA0CF0E0
:1008700050EA010404BF10BC704749B1CCF1200418
:1008800021FA04F411FA0CF118BF012121430843A5
:10089000A3EB0C01CB1D4FEA00614FEA102042BFD1
:1008A000002010BC704700EBC35010440029A4BFC7
:1008B00010BC7047401C490008BF20F0010010BC6C
:1008C000704710B5141E73F1000408DA401C41F1A2
:1008D000000192185B411A4301D120F0010010BDC4
:1008E0002DE9F04D92469B4611B1B1FA81F202E03A
:1008F000B0FA80F220329046FFF78BFF04460F4695
:1009000040EA0A0041EA0B0153465A46084313D015
:10091000114653EA010019D0C8F140025046FFF7D2
:1009200001FC05460E46504659464246FFF771FF08
:10093000084305D0012004E020463946BDE8F08D8B
:100940000020054346EAE0762C4337430A986305C6
:10095000E40AA0EB08000022FD0A44EA47540A30EA
:1009600002D500200146E9E7010510196941DDE9DA
:10097000084500196941BDE8F04DA2E770B521F0C6
:10098000004303430CD0C1F30A550024D5EB040502
:1009900064EB0403D617AD1AB34102DB0020014615
:1009A00070BD201841EB025170BDC1F30A52C1F372
:1009B000130140F2FF3341F480119A4202DA002021
:1009C0000146704740F233439A42A2F2334202DCBE
:1009D0005242FFF7A7BBFFF71CBF0000064C074DB4
:1009E00006E0E06840F0010394E8070098471034FF
:1009F000AC42F6D3FFF77EFBA4850008C48500084F
:100A00002DE9F04D00231A461B1A8A4103DB002012
:100A10000146BDE8F08DC1F30A52C1F3130141F460
:100A200080154FF0000BD10702D100186D41521E06
:100A30000027044640F2FF11384601EB620A3E46A9
:100A40008046024600204FF48011FFF76BFBC2196D
:100A50007141BB1846EB0100B4EB030C75EB000CC5
:100A600004D3E41A65EB000517460E46241908F175
:100A700001006D4180463428E3DDF91946EB06009C
:100A8000091BA84103D24FF0FF32134601E00022B8
:100A900013461BEB070046EB0A51BDE8F04DFFF78C
:100AA00010BF70B58D1810F8014B14F0030201D17E
:100AB00010F8012B231106D110F8013B03E010F8C8
:100AC000016B01F8016B521EF9D1ABB110F8012B8B
:100AD00004F00C048A1A0C2C03D0A2EB84129B1C89
:100AE00008E010F8014BA2EB0422F8E712F8014BE2
:100AF00001F8014B5B1EF9D5A942D4D3002070BD8B
:100B000070B51B4C2068C16821F01001C1602046FF
:100B100003F038FD1B4D174A17A1284600F0B8FA1C
:100B2000642004F0D1FD134A17A11432284600F0C6
:100B3000AFFA642004F0C8FD0E48427E15A1284695
:100B400000F0A6FA642004F0BFFD15A1284600F0CD
:100B50009FFA642004F0B8FDAA151449204602F05B
:100B60008BF92068C16841F01001C16070BD0000C0
:100B7000240A00200000002041542B4E414D452501
:100B8000730D0A000044004041542B50494E257318
:100B90000D0A000041542B4241554425640D0A00C2
:100BA00041542B52455345540D0A0000E0080020E3
:100BB0002DE9F84F894C01250021ADF8005020782F
:100BC000874EDFF820820F468946A52867D1B8F8FE
:100BD00000004246204410F8010C5A285FD1012041
:100BE00004E0235C401C1944C9B280B213889B1EE8
:100BF0009842F6DB205C884251D120217A48FFF7E9
:100C0000A8FA605DB0766D1C605DF0766D1CDFF853
:100C1000DCA1605D6D1CADF80050012800D10127FA
:100C2000684603F05FF8704D2861684603F05AF893
:100C30006861684603F056F8A861684603F052F808
:100C40006B4D2861684603F04DF86861684603F013
:100C500049F8A861684603F045F8664D2861684682
:100C600003F040F86861684603F03CF8A861684604
:100C700003F038F8834601465546DAF80000FFF7DE
:100C800077FD01D0C5F800B04FB100F075FA5A49B0
:100C90000968C1F8249059490968C1F824900322D1
:100CA00057A14E48FFF767FA002841D1072255A106
:100CB0004A48FFF760FA554D00283BD0072254A15F
:100CC0004648FFF758FA00284FD0062252A1434861
:100CD000FFF751FA002856D0092251A13F48FFF7EB
:100CE0004AFA00286ED00A2250A13C48FFF743FA86
:100CF00000286FD0072250A13848FFF73CFA00289F
:100D000016D14FA1284600F0C3F9642004F0DCFCA2
:100D10004FA1284600F0BCF9642004F0D5FC50A196
:100D2000284600F0B5F9642004F0CEFCFFF7E8FE99
:100D3000BDE8F88FB8F800004146072801D0002030
:100D400007E0274A49A10CE02218D2793254401C0E
:100D500080B20A88D21F9042F6DB06F80090204A43
:100D600047A1284600F094F9E2E7B8F800104046A1
:100D7000072905D000880828DAD1207A7076D7E7CD
:100D8000727E4649EDE7B8F800104046144A143226
:100D9000062904D001880A2903D041A115E047A102
:100DA000DFE7002105E0631877189B793B75491C44
:100DB00089B203889B1F9942F5DB314481F8149076
:100DC00044A1CEE700F058FA4AA1284600F060F9A5
:100DD000AEE7FFE700F0D0F949A1F6E7E008002010
:100DE000000000203406002050060020EC05002002
:100DF0007006002090060020500700209807002071
:100E000041542B0041542B4E414D450000440040BD
:100E100041542B424155440041542B50494E00004F
:100E200041542B52454C4F414400000041542B4F3C
:100E300055544C4F4144000041542B444953430006
:100E4000C0B6D1C0B8FCD0C2B3C9B9A60A00000070
:100E5000C0B6D1C0B6CFBFAAB3C9B9A60A000000B8
:100E600041542B444953430D0A000000D0A1B3B5AF
:100E7000C3FBD7D6CEAAA3BA222573220A0000004C
:100E8000B3C9B9A6BDABD0A1B3B5C3FBD7D6D0DE2D
:100E9000B8C4CEAAA3BA222573220A00F884000897
:100EA000A1BEB4EDCEF3A1BFC3DCC2EBD6BBC4DCA4
:100EB000CBC4CEBBCAFDA3A10A000000D0A1B3B52C
:100EC000C0B6D1C0C3DCC2EBCEAAA3BA222573221E
:100ED0000A000000B3C9B9A6BDABD0A1B3B5C0B676
:100EE000D1C0C3DCC2EBD0DEB8C4CEAAA3BA2225DF
:100EF00073220A00D6D8BCD3D4D8B3C9B9A60A0085
:100F0000CFB5CDB3CAFDBEDDB1B8B7DDB3C9B9A6A3
:100F10000A000000F8B5012004F0F2FB00240825C7
:100F200005EB0410E2B2C0B2002102F011FE641C15
:100F3000072CF5DB304E002406F5CC75C82004F0F4
:100F4000C3FB0823622202211E20009602F02AFD24
:100F5000C82004F0B9FB0823622202211E2000955C
:100F600002F020FD641C052CE8DB4FF42F7004F028
:100F7000ABFB224800900823622202211E2002F0CF
:100F800011FD4FF49674204604F09EFB0823622264
:100F900002211E20009502F005FD4FF4FA6004F0D6
:100FA00093FB022002F08FFC204604F08DFB02220E
:100FB00013A31146002002F0EFFD16A30122042125
:100FC000002002F0E9FD19A301220521002002F012
:100FD000E3FD4FF4FA7004F077FB1AA30122072116
:100FE000052002F0D9FD4FF47A7004F06DFBBDE8E6
:100FF000F840022002F067BC2401002054040020C5
:101000005B646174655D3A323032322E342E323692
:10101000000000005B6E616D655D3A424C55455FB6
:1010200054454554485F4341520000002D2D2D2D5D
:101030002D2D2D2D2D2D2D2D2D2D2D2D2D2D2D2DE0
:101040002D000000706F7765726564206279204022
:1010500077756368756E796500000000FEE7000033
:10106000014800F0CDBA0000AC0A0020014800F0B1
:10107000C7BA0000680A0020014800F0C1BA0000A9
:10108000340B0020014800F0BBBA0000F00A002039
:101090000FB44FF4807130B5C1B0044646AB68461A
:1010A000459A03F0CFFA85B2254884421FD12548DE
:1010B00000F0A2FA0228FAD02248CC3890F83D007D
:1010C000202803D01F48CC3801F055FC1D4C206867
:1010D000016821F0010101602A466946A4F1CC00B3
:1010E00001F03CFF206841680029FCD123E016484C
:1010F000844220D11348443000F07EFA0228F9D00F
:101100001048883890F83D00202803D00D488838D2
:1011100001F031FC0B4C44342068016821F00101DE
:1011200001602A466946A4F1CC0001F017FF20684F
:1011300041680029FCD141B0284630BC5DF814FB61
:1011400000380140AC0A00200044004030B590F85F
:1011500040500124AC40C56B6C6004686360436818
:10116000102B036803D099600068C26030BD9A609C
:101170000068C16030BD70471CB50020ADF80000AC
:101180008DF804003048FEF7EFFF401C8DF8040096
:101190000122BDF8001001A800F056F9BDF80000CA
:1011A0009DF80420401C81B2ADF80010264800F0E4
:1011B0004BF9BDF800009DF804100522084481B2E7
:1011C0002148ADF80010143000F03EF9BDF80000E1
:1011D0000122401D81B21C48ADF80010193000F00A
:1011E00033F9BDF80000194C401CADF8000020692F
:1011F000694600F0ABF86069694600F0A7F8A0699D
:10120000694600F0A3F8124C2069694600F09EF888
:101210006069694600F09AF8A069694600F096F89E
:101220000C4C2069694600F091F86069694600F04D
:101230008DF8A069694600F089F80748694600689A
:1012400000F084F81CBD00000000002050060020C3
:101250007006002090060020EC05002038B50446FA
:101260000020009021880422684600F08DF8208834
:10127000001D2080009838BD1CB50021ADF800107D
:101280008DF80410012201A800F07EF8BDF80000DE
:101290009DF80420401C81B2ADF80010264800F0F3
:1012A00073F8BDF800009DF804100522084481B2CF
:1012B0002148ADF80010143000F066F8BDF80000C9
:1012C0000122401D81B21C48ADF80010193000F019
:1012D0005BF8BDF80000401CADF800006846FFF761
:1012E000BDFF164C20616846FFF7B8FF6061684695
:1012F000FFF7B4FFA0616846FFF7B0FF104C206114
:101300006846FFF7ABFF60616846FFF7A7FFA06183
:101310006846FFF7A3FF0B4C20616846FFF79EFF6E
:1013200060616846FFF79AFFA0616846FFF796FF85
:10133000054908601CBD0000000000205006002088
:101340007006002090060020EC05002033B581B027
:1013500000200C46009009886A4601AB1D5C1554BC
:10136000401C0428FAD30422684600F06DF8218856
:10137000091D21803EBD000080224021014801F06E
:1013800030BE0000000801402DE9F0412D4E154609
:101390000C46804680224021304604F021FE802306
:1013A00040223146A02004F0FAFD80224021304640
:1013B00004F02FFEE0B9E0B280234022314604F071
:1013C000EEFD80224021304604F023FE80B98022C9
:1013D0004021304604F004FE802340223146A12003
:1013E00004F0DDFD80224021304604F012FE38B1C9
:1013F00080224021304604F003FE0120BDE8F08148
:1014000000246F1E12E000BF04F0ADFD08F80400D8
:10141000BC424FF080024FF04001304602D004F051
:101420007FFD01E004F091FD641CA4B2AC424FF0DA
:1014300080024FF040013046E6D304F0E1FD002089
:10144000DCE70000000801402DE9F04790460C461B
:10145000824600264FF47A79274D44E00EB16007AA
:1014600028D180224021284604F0CAFD002780228E
:101470004021284604F0B4FD802340222946A020C4
:1014800004F08DFD80224021284604F0C2FD18B1F1
:101490007F1CBFB24F45EAD34F4518D0E0B280233E
:1014A0004022294604F07BFD80224021284604F09A
:1014B000B0FD60B91AF8060080234022294604F0E6
:1014C0006EFD80224021284604F0A3FD38B1802221
:1014D0004021284604F094FD0120BDE8F087641CFB
:1014E000761CA4B2B6B24645B8D380224021284625
:1014F00004F086FD0020F0E70008014010B54FF42D
:10150000006000F0C1FABDE810404FF4004000F068
:10151000BBBA72B6FEE710B590F82110002202297E
:1015200005D00421816380F82020012010BD0168CE
:101530000B6823F00E030B6001680B6823F00103B6
:101540000B6090F84030C46B012101FA03F3636033
:1015500080F8211080F82020104610BD10B590F8BA
:1015600021100024022903D00421816301243DE0DD
:1015700001680A6822F00E020A6001680A6822F017
:1015800001020A601A4A0168914201D1012121E059
:10159000174A1432914201D110211BE0144A28321B
:1015A000914201D1891515E0114A3C32914201D195
:1015B00089140FE00E4A5032914202D14FF480312B
:1015C00008E00B4A6432914202D14FF4801101E0ED
:1015D0004FF08071064A083A5160012180F82110CD
:1015E000002180F82010416B01B18847204610BDD2
:1015F00008000240806B704790F82100704700009F
:101600002DE9F05FC16B0C6801680B68D0F840C031
:10161000042202FA0CF2494DDFF824A1494E4A4F48
:10162000DFF828B1DFF828E122422CD05A072AD56A
:101630000A68920603D40A6822F004020A6001686C
:10164000A94201D1042219E0514501D1402215E0FF
:10165000B14202D14FF4806210E0B94202D14FF49E
:1016600080420BE0594502D14FF4802206E07145DB
:1016700002D14FF4800201E04FF080622F49083917
:101680004A60C16A3BE04FF0020808FA0CF818EA19
:10169000040F4FF000094FF0010235D05FEA837864
:1016A00032D50B689B0605D40B6823F00A030B6048
:1016B00080F821200168A94201D1022219E0514598
:1016C00001D1202215E0B14202D14FF4007210E0A6
:1016D000B94202D14FF400520BE0594502D14FF408
:1016E000003206E0714502D14FF4001201E04FF0E4
:1016F0000072124908394A6080F82090816A0029F6
:101700001AD0BDE8F05F0847082505FA0CF5254218
:1017100012D01B0710D50B6823F00E030B6090F856
:101720004010C36B02FA01F15960826380F82120F6
:1017300080F82090016BE2E7BDE8F09F08000240CE
:101740001C000240300002404400024058000240A9
:101750006C00024030B528B308C81349142219445C
:10176000B1FBF2F18900C163104981630221417725
:101770001A6843F6F0718A43D0E900142143D0E996
:1017800002452C4321430469214344692143846970
:1017900021431143196000214163012242770177FF
:1017A000084630BD012030BDF8FFFDBF00000240FB
:1017B00070B5044690F82000002501280CD00120C7
:1017C00084F8200094F821600020012E06D084F8CF
:1017D00020000225284670BD022070BD022684F834
:1017E0002160A0632068066826F001060660204696
:1017F000FFF7ACFCE06A00282068016802D041F0E5
:101800000E0106E021F0040101602068016841F04A
:101810000A0101602068016841F001010160D9E717
:101820002DE9F0478748007808B102F0D7FE4FF461
:101830000061854800F024FA00286ED183480078C2
:1018400000286AD0824C0027207838B3062003F0A5
:1018500057FF8048006847627F48006847627F4DB5
:1018600007E07B4AE0692432111FA061081F04F0E1
:10187000AFFCD4E90610FEF7DDFCFEF704FF0028FC
:1018800000DA4042FEF7EEFE00222B46FEF73CFF58
:10189000E7D3E06910F0FF4FE3D027706C4A2432A1
:1018A000111F081F04F094FC694A921D911E881EA6
:1018B00001F0D6FB032002F029FAA060A046042024
:1018C00002F024FA8146E060E069FEF7DCFE0028C1
:1018D00000DA4042624C634D282870DA624E96F975
:1018E0001A00FEF7B1FE2168FEF7AAFC10F1FF4FC7
:1018F00000D3E76096F91A000E301C280ED896F92E
:101900001A00801C042809D996F91A00002801DD64
:10191000012010E04FF0FF300DE090E096F91A0042
:101920001D303A280ED996F91A00002801DD022050
:1019300001E06FF00100FEF787FE2168FEF728FC4A
:10194000206000E0276021684848814204DC21686B
:101950004748814200D82068206096F91B000E306D
:101960001C280DD896F91B00801C042808D996F96C
:101970001B00002801DD0A200FE06FF009000CE0D9
:1019800096F91B001D303A280ED996F91B00002845
:1019900001DD142001E06FF01300FEF755FE296809
:1019A000FEF7F6FB286000E02F602968314881428D
:1019B00004DC29683048814200D8286828604646FF
:1019C0004846FEF741FE8046B068FEF73DFE014600
:1019D0004246234805F06EFAE069284C2060B6F9CB
:1019E0000400FEF731FE02462046F16903F04EFE88
:1019F000B6F906101B4805F049FAE069FEF743FE08
:101A0000FEF722FE0446E969FEF7C2FBFEF73BFE45
:101A100070612046E969FEF70DFCFEF734FE306187
:101A20001749F069884202D81649884201DD3761BA
:101A30007761D6E90410BDE8F04702F07BB9BDE854
:101A4000F0870000F2050020000C01402D06002068
:101A50001C00002050070020980700200000E03FF5
:101A60005006002090060020000000200000C84121
:101A70000000C8C10000C8420000C8C270060020B3
:101A8000000020C200002042044910B50A6802424A
:101A900002D00860FFF7C4FE10BD0000140401402E
:101AA0002DE9F84FDFF8B891002409F1040A0AF192
:101AB000040B23460F270BF1040EC9E00125A540B6
:101AC0002A40AA427DD1674ED1F804C0ACEB06088B
:101AD000B44532D014DCBCF1030F3AD009DCBCF1C0
:101AE000000F2AD0BCF1010F1CD0BCF1020F31D184
:101AF0001DE0BCF1110F17D0BCF1120F2AD119E073
:101B0000B8F5881F19D006DCB8F5803F15D0B8F5B8
:101B1000801F1FD111E0B8F5001F0ED0B8F5041FCB
:101B200018D10AE0CB6815E0CB681B1D12E0CB682A
:101B300008330FE0CB680C330CE08B682BB1012B22
:101B40004FF0080303D0456104E0042302E005617F
:101B500000E00023FF2A01D8064601E000F1040658
:101B60004FEA840501D9A5F12005D6F8008007FACF
:101B700005FC28EA0C0803FA05F548EA0508C6F84A
:101B800000804D68ED0062D5374DAE6946F0010624
:101B9000AE61AD6924F0030605F001050095334DF3
:101BA00006EB050CDCF80850A607360F07FA06F816
:101BB00025EA0805DFF8B880404503D14FF000085A
:101BC00017E044E0DFF8AC80404502D14FF0010857
:101BD0000FE0DFF8A480404502D14FF0020808E092
:101BE000DFF89880404502D14FF0030801E04FF044
:101BF000040808FA06F848EA0508CCF808804D6899
:101C0000D9F80060ED034D4601D5164300E0964338
:101C10002E604D68DAF80060AD03554601D51643D5
:101C200000E096432E604D68DBF80060ED025D46F3
:101C300001D5164300E096432E604D68DEF8006043
:101C4000AD02754601D5164300E096432E60641C34
:101C50000D682A46E5407FF431AFBDE8F88F0000FB
:101C6000000401400000111000100240000001407B
:101C700000080140000C0140001001400014014028
:101C80008068084000D0012070470AB101617047A8
:101C90000904FBE70148806870470000380600200F
:101CA000024881680278114481607047380600203C
:101CB000074810B5016841F010010160032000F0F1
:101CC00075F80F2000F006F800F024F8002010BD91
:101CD0000020024070B50D4D04464FF47A7128780B
:101CE000B1FBF0F00A490968B1FBF0F000F0ECFA42
:101CF00048B9102C07D200222146501E00F036F8B9
:101D000000206C6070BD012070BD0000380600200E
:101D1000440600200C4808B5816941F00101816149
:101D2000816901F001010091C16941F08051C161F7
:101D3000C06900F0805000900448416821F0E061E3
:101D400041F00071416008BD0010024000000140F8
:101D5000002809DB00F01F020121914040098000AA
:101D600000F1E020C0F8001170470000F0B40E4B05
:101D70001B680C46C3F30223C3F10705042D00D9E9
:101D80000425191D072901D2002300E0DB1E0126CE
:101D900006FA05F1491E214099409E40761E1640E4
:101DA0003143F0BC02F078BC0CED00E0064900F0D5
:101DB000070208684FF6FF03184040EA0220034A72
:101DC00010430860704700000CED00E00000FA05C9
:101DD0002DE9F0470F46050061D0434E306800F012
:101DE0000700B84209D2306820F00700384330605D
:101DF000306800F00700B84251D128683B4C810799
:101E000012D5400703D5606840F4E0606060287830
:101E1000000703D5606840F4605060606068A9689E
:101E200020F0F000084360602878C00728D0686878
:101E3000012810D02168022810D0890700292EDA45
:101E4000616821F0030101436160FFF723FF8046D1
:101E500041F288390DE021688903EFE78901EDE758
:101E6000FFF718FFA0EB0801494502D90320BDE8A0
:101E7000F0876068696800F00C00B0EB810FEFD16B
:101E8000306800F00700B8420BD9306820F0070036
:101E900038433060306800F00700B84201D00120BC
:101EA000E5E72878400705D56068E96820F4E06038
:101EB000084360602878000706D56068296920F427
:101EC000605040EAC100606000F038F86168084A7C
:101ED000C1F30311515CC840064908600648006818
:101EE000FFF7F8FE0020C2E7002002400010024089
:101EF000EE830008440600203C0600200448054903
:101F000000684968044AC1F30221515CC840704727
:101F10004406002000100240FE83000804480549E2
:101F200000684968044AC1F3C221515CC840704747
:101F30004406002000100240FE83000812A185B074
:101F40000FC98DE80F0014A0144A0068049051686E
:101F5000134801F00C03042B10D0082B0ED1C1F351
:101F60008343C9031DF803000AD5516804AAC1F3CD
:101F70004041515C0A4A5043B0FBF1F005B0704754
:101F800008494843FAE70000020304050607080968
:101F90000A0B0C0D0E0F1010010200000010024081
:101FA00000127A0000093D002DE9F84F040070D0BE
:101FB0002078C04DC00749D06868C0F3810001286F
:101FC00007D06868C0F38100022809D16868C0039F
:101FD00006D52868800339D560680028E7D035E049
:101FE0006068B0F5803F0BD010B1B0F5A02F11D0D4
:101FF000286820F480302860286820F4802002E0DF
:10200000286840F480302860606890B1FFF742FE95
:1020100006460AE0286840F480202860F0E700BF08
:10202000FFF738FE801B642873D828688003F7D533
:102030000CE0FFF72FFE064605E000BFFFF72AFE83
:10204000801B6428F0D828688003F7D420789A4E43
:1020500080074FF001094FF0000839D5686810F08B
:102060000C0F07D06868C0F38100022809D16868A6
:10207000C00306D42868800714D52069012808D138
:1020800010E02069B0B1C6F80090FFF703FE0746E4
:1020900005E00AE1FFF7FEFDC01B0228C4D828684E
:1020A0008007F7D52868616920F0F80040EAC10090
:1020B00028600DE0C6F80080FFF7ECFD074604E05D
:1020C000FFF7E8FDC01B022823D828688007F7D453
:1020D000207800072CD57948A169D9B1C0F80090C3
:1020E000FFF7D8FD074604E0FFF7D4FDC01B022828
:1020F0000FD8686A8007F7D571484FF4FA51006825
:10210000B0FBF1F0009000BF0098411E0091FAD2A0
:102110000EE080E0C0F80080FFF7BCFD074604E059
:10212000FFF7B8FDC01B022875D8686A8007F7D48E
:102130002078400760D5E8690027C00008D4E86926
:1021400040F08050E861E869012700F0805000907D
:102150005C480168C90513D40168834641F4807165
:102160000160FFF797FD824606E000BFFFF792FD92
:10217000A0EB0A0064284ED8DBF80000C005F5D5B6
:10218000E06801280AD008B1052813D0286A20F099
:1021900001002862286A20F0040002E0286A40F06A
:1021A00001002862E06841F2883B98B1FFF772FDB8
:1021B00082460BE0286A40F004002862EEE700BF88
:1021C000FFF768FDA0EB0A0159455AD8286A800735
:1021D000F6D50CE0FFF75EFD824605E0FFF75AFDFD
:1021E000A0EB0A0159454CD8286A8007F6D41FB1E4
:1021F000E86920F08050E861E06988B36968C1F35C
:102200008101022944D00228C6F8608004D0FFF77B
:1022100041FD044638E034E0FFF73CFD074604E0AA
:10222000FFF738FDC01B02282BD828688001F7D49F
:10223000206AB0F5803F05D16868A16820F40030BD
:1022400008436860D4E908010843696821F47411FF
:1022500008436860C6F86090FFF71CFD044606E07E
:1022600025E000BFFFF716FD001B022809D82868EB
:102270008001F7D51BE000BFFFF70CFD001B022813
:1022800002D90320BDE8F88F28688001F4D40EE05D
:102290000128F7D06868226A00F48031914204D1A5
:1022A000616A00F47010884201D00120EAE7002042
:1022B000E8E7000000100240000042428004424271
:1022C000440600200070004010B5401EB0F1807F31
:1022D00001D3012010BD4FF0E02460610F21601791
:1022E00002F0DAF90020A06107202061002010BD73
:1022F00010B590F83C20012A22D0012280F83C2021
:10230000CA688C6822F4407222434C6822F48062CE
:1023100022430C6822F4006222430C6922F48052AA
:1023200022434C6922F400522243C969002322F45B
:1023300080420A4301684A6480F83C30002010BDA6
:10234000022010BD70B590F83C20012A26D001244F
:1023500080F83C40022280F83D2003685A689D685E
:1023600022F070060A6832435A600D4B02689A42A6
:1023700008D0B2F1804F05D00A4B9A4202D00A4BE6
:102380009A4204D1496825F080031943916080F88E
:102390003D40002180F83C10084670BD022070BD11
:1023A000002C0140000400400008004010B504006B
:1023B00003D094F83D0010B107E0012010BD0020CB
:1023C00084F83C00204600F01FF8022084F83D000D
:1023D000211D206801F040FD012084F8460084F8AA
:1023E0003E0084F83F0084F8400084F8410084F8FF
:1023F000420084F8430084F8440084F8450084F8DF
:102400003D00002010BD000008B50C4A01680C48D2
:10241000914207D1816941F400618161806900F4D2
:10242000006009E0B1F1804F07D1C16941F00101BD
:10243000C161C06900F00100009008BD002C01409E
:102440000010024090F83D10012901D00120704792
:10245000022180F83D1000680B49884208D0B0F195
:10246000804F05D00949884202D00949884204D1E9
:10247000816801F00701062903D0016841F00101DC
:102480000160002070470000002C01400004004063
:102490000008004001680A6A41F211131A4207D18C
:1024A0000A6A9B101A4203D10A6822F001020A60EC
:1024B000012180F83D100020704770B5044690F867
:1024C0003C00012817D0012584F83C50022084F8F4
:1024D0003D002068826822F0770222F47F42826009
:1024E0000868502830D00DDC20284DD005DC98B38A
:1024F00010283BD148E0022070BD302844D040284D
:1025000034D139E0602828D0702806D0B0F5805F3B
:102510002CD0B0F5005F29D10AE0CB68D1E90121C8
:10252000206801F0DCFC2068816841F0770109E057
:10253000CB68D1E90121206801F0D1FC20688168D5
:1025400041F48041816011E0CA684968206801F067
:102550007BFD5021206807E016E0CA6849682068C2
:1025600001F083FD6021206801F0C3FC84F83D5038
:10257000002084F83C0070BDCA684968206801F0FA
:1025800063FD40212068EFE7226801461046EBE733
:102590002DE9F0410D46040003D094F83D0018B138
:1025A00008E00120BDE8F081002084F83C002046CE
:1025B00000F040F8022084F83D002068816844F271
:1025C000070291438160211D206801F045FC2268CB
:1025D00090689169166A2B68AF69034340F2033033
:1025E000814341EA0721A868EF6908434FF6FC419F
:1025F0008843E96840EA0720014328692F6A0001FF
:1026000040EA0730084369686D6926F0220646EA09
:102610000515294393602268906154F8460B0162C6
:10262000012004F81F09E0752076E0762077A07578
:102630000020B7E700B585B000210091019102911B
:1026400003911F4B02681F491F489A421FD1CA6954
:1026500042F00202CA61CA6902F0020204928A6967
:1026600042F008028A61896901F008010491302171
:1026700000916946FFF714FA1448416821F440615B
:1026800041F0E06141F40061416005B000BD104BD4
:102690009A42FAD1CA6942F00402CA61CA6902F0D8
:1026A000040204928A6942F008028A61896901F091
:1026B00008010491C02100916946FFF7F1F9E4E7B0
:1026C0000004004000100240000C014000000140E6
:1026D0000008004070B590F83E60044690F83F5006
:1026E00090F8423090F84320022021B104290ED006
:1026F000012E1BD114E0012E18D1012B16D184F824
:102700003E0084F8420001220021206820E0012DD3
:102710000CD1012A0AD184F83F0084F8430014E068
:10272000012D03D1012B01D1012A01D0012070BD5F
:1027300084F83E0084F83F0084F8420084F84300A7
:1027400001220021206801F0BDFB01220421206844
:1027500001F0B8FB2068016841F001010160002030
:1027600070BD000000B585B000210091019102917B
:10277000039100680C49884213D10C48816941F0EB
:10278000040181618069694600F0040004904FF4FF
:102790001060009002200190032003900448FFF78E
:1027A0007FF905B000BD0000002C01400010024080
:1027B0000008014070B5044690F83C000D46012821
:1027C0000AD0012084F83C0042B1042A18D0082A1B
:1027D0002AD00C2A4DD139E0022070BD206801F0CA
:1027E00091FB2068816941F008018161206881695D
:1027F00021F004018161206881692A69114311E097
:10280000206801F0A7FB2068816941F400618161C3
:102810002068816921F480618161206881692A6969
:1028200041EA0221816124E0206801F0BFFB2068B9
:10283000C16941F00801C1612068C16921F004014A
:10284000C1612068C1692A69114311E0206801F063
:10285000D9FB2068C16941F40061C1612068C16988
:1028600021F48061C1612068C1692A6941EA0221BD
:10287000C161002084F83C0070BD10B5040003D095
:1028800094F83D0010B107E0012010BD002084F84D
:102890003C00204600F01EF8022084F83D00211D77
:1028A000206801F0D9FA012084F8460084F83E003F
:1028B00084F83F0084F8400084F8410084F8420026
:1028C00084F8430084F8440084F8450084F83D000F
:1028D000002010BD7047000010B50446022249B127
:1028E00004290ED0082913D094F84100012816D0ED
:1028F000012010BD94F83E000128F9D184F83E2053
:102900000FE094F83F000128F2D184F83F2008E05E
:1029100094F840000128EBD184F8402001E084F8CD
:1029200041200122206801F0CDFA0F492068884239
:1029300003D1426C42F4004242642068884208D0CD
:10294000B0F1804F05D00949884202D00849884239
:1029500004D1816801F00701062903D0016841F024
:1029600001010160002010BD002C01400004004066
:1029700000080040704770B504460068C16821F443
:10298000F071C1602068416921F001014161206B53
:10299000012804D12068C16821F01001C1602068BD
:1029A00041694FF0100609064FF000050FD5416947
:1029B00021F080014161606B48B14563606BFEF7B7
:1029C000AAFD20B1606BFEF715FE20281ED02068FE
:1029D000416949060FD5416921F040014161A06B71
:1029E00048B14563A06BFEF796FD20B1A06BFEF7E2
:1029F00001FE20280AD0E584E5852564202084F89E
:102A00003E0084F83D002563002070BD266403204D
:102A100070BD000008B501680A68D243D3074FF0C3
:102A2000000204D180F83C200B684B6800930B68CF
:102A3000DB439B0704D480F83C200B684B68009371
:102A40000B68DB435B0704D480F83C200B684B68C1
:102A500000930B68DB431B0704D480F83C20086814
:102A60004868009001490120887008BD2E060020AA
:102A7000F8B5026804461068D168536910F00F0F6A
:102A80004FF0000553D003F0010601F4907737436F
:102A90005FD0C20705D0CA0503D5226C42F00102FF
:102AA0002264420705D5DA0703D0226C42F0020205
:102AB0002264820705D5DA0703D0226C42F00402B3
:102AC0002264020707D501F02002324303D0226CB2
:102AD00042F008022264226C002A34D0800604D519
:102AE000880602D5204601F076FB20684069216CFB
:102AF000C0F38010090700D430B3204601F04AFB30
:102B00002068416949061BD5416921F040014161B6
:102B1000A06BA8B158494163A06BFEF71FFD0028C8
:102B200011D0A06B416B01B0BDE8F04008478306AF
:102B30000FD58B060DD52046BDE8F84001F04BBB04
:102B40002046FFF767FFF8BD2046FFF763FF2564C7
:102B5000F8BD266B2023012E52D1C60650D5CE06D5
:102B60004ED5106850680090506940062AD5A16B78
:102B7000086840680004000CEAD0A68D8642E7D9B8
:102B8000E0858869202818D0D06820F48070D06053
:102B90002068416921F0010141612068416921F00B
:102BA0004001416184F83E3025632068C16821F00E
:102BB0001001C160A06BFEF7AEFCA08DE18D401A44
:102BC00081B219E0A08DE18D401A81B2E08D00281C
:102BD000BED00029BCD0D06820F49070D0602068AE
:102BE000426922F00102426184F83E302563206888
:102BF000C26822F01002C2602046FFF7BBFEF8BD9B
:102C000005062BD50D0629D594F83D002128F6D1CF
:102C1000A068B0F5805F01D12069B0B1206A411C85
:102C20002162216800784860E08C401E0004000C9E
:102C3000E084E4D12068C16821F08001C16020688F
:102C4000C16841F04001C160F8BD206A0088C0F34E
:102C500008005060206A801C2062E5E74006F3D53A
:102C60004806F1D5D168204621F04001D16084F8B2
:102C70003D3000F0B3F9F8BD8F40000870B5040096
:102C800004D094F83D00002510B106E0012070BD8D
:102C900084F83C50204600F023F8242084F83D00BE
:102CA0002068C16821F40051C160204601F0EEFAAD
:102CB0002068016921F4904101612068416921F097
:102CC0002A0141612068C16841F40051C160256456
:102CD000202084F83D0084F83E00002070BD0000F4
:102CE0002DE9F04786B000250095019502950395E2
:102CF0000446DFF86CC103685A48022103225A4E89
:102D000080274FF010094FF4805A63454ED18369F4
:102D100043F480438361836903F4804304938369AC
:102D200043F0040383618069039200F0040004907F
:102D30000802CDE9000169463046FEF7B1FE3015C4
:102D4000CDE90005694630460295FEF7A9FE484EDA
:102D50004648B846C6E90005C6E9025735617561BF
:102D6000C6E9065A57463046FEF7F4FC08B1FEF7AE
:102D7000D0FBA66374623E4E3C4844361438C6E924
:102D8000025835617561C6E90009C6E90657304643
:102D9000FEF7E0FC08B1FEF7BCFB666300220221EF
:102DA00025207462FEF7E2FF252053E0DFF8C4C05F
:102DB000634551D1C36943F40033C361C36903F46C
:102DC00000330493836943F00403836180690392B1
:102DD00000F0040004900420CDE90001694630466B
:102DE000FEF75EFE0820CDE90005694630460295F3
:102DF000FEF756FE1E4E1D4888362830C6E902579B
:102E000035617561C6E90009C6E9065AB8465746F4
:102E10003046FEF79FFC08B1FEF77BFB66637462E9
:102E2000134E1248CC361430C6E90005C6E90258E4
:102E300035617561C6E906573046FEF78BFC08B16F
:102E4000FEF767FBA6630022012126207462FEF7CD
:102E50008DFF2620FEF77CFF06B0BDE8F08700005E
:102E600000380140001002400008014058000240B4
:102E7000680A00200044004090F83E30202B0ED11C
:102E800059B152B190F83C30012B08D0012380F8A1
:102E90003C300023036301F055BA01207047022043
:102EA00070477047704700002DE9F843044690F8DA
:102EB0003D001F4616460D4620284CD1C5B1BEB177
:102EC00094F83C00012846D0012084F83C004FF0E3
:102ED0000008C4F84080212084F83D00FEF7DAFEA7
:102EE000A6848146E684A068B0F5805F03D004E044
:102EF0000120BDE8F883206928B12E465FF0000567
:102F000084F83C800EE00026FAE78021204601F09C
:102F100051FAA0B9AEB116F8010B21684860E08CF7
:102F2000401EE084E08C4B464FF0000200970028E2
:102F3000EBD14FF04001204601F03CFA30B10320C4
:102F4000D7E735F8020BC0F30800E6E7202084F845
:102F50003D000020CDE70220CBE7000070B504461D
:102F600090F83D00202830D169B362B394F83C005A
:102F700001282AD0012084F83C002162A284E28446
:102F800000252564212084F83D00636B1048986279
:102F9000636B1048D862636B0F481863606B13460D
:102FA00045632668606B321DFEF702FC21686FF0F6
:102FB0004000086084F83C502068416941F080017D
:102FC0004161002070BD012070BD022070BD000075
:102FD0005D4100088B4100089F4000087047704722
:102FE000FEE703F00DB800000F22072817D8820073
:102FF0000F209040194A01290AD0002907D11168F1
:1030000081431160116800F0333001431160704753
:10301000116881431160116800F08830F5E70F28CE
:10302000F5D80838C3B20D48001D01290CD000297D
:10303000EDD199008A40016891430160016802F076
:10304000333211430160704799008A40016891430F
:103050000160016802F08832F3E70000000C0140D3
:103060007CB514460D4606466B4606224321682071
:1030700000F03EF900280BD1BDF8001049BA3180AC
:10308000BDF8021049BA2980BDF8041049BA218060
:103090007CBD000030B5094C0025C4F8805129469C
:1030A000012004F5C074FFF79FFF656000F008F889
:1030B0000120206000F004F8256030BD008021422E
:1030C0000020401CC0B20528FBD3704770470000A9
:1030D00030B5094C0025C4F880512946012004F57B
:1030E000C074FFF781FF01216160FFF7E9FF2160F4
:1030F000FFF7E6FF256030BD0080214270B5054630
:10310000012100240846FFF76FFF00210F4A0B46FC
:10311000012600BFC2F88031FFF7D2FFC2F88061FC
:103120006006040ED2F8040108B1641CE4B2FFF793
:10313000C7FF491CC9B20829ECD31DB1FFF7AAFF8C
:10314000204670BDFFF7C4FFFAE70000008021426F
:1031500030B5044600210120FFF746FF0B4900234C
:10316000C1F880311A460125E009C1F884016006E2
:10317000040EC1F88051FFF7A3FFC1F88031FFF7BB
:103180009FFF521CD2B2082AEED330BD00802142EC
:1031900000B500210120FFF727FF08490120C1F8F1
:1031A0008401C1F8800101F5C071FFF789FF002299
:1031B0004A60FFF785FF0A6000BD000000802142E1
:1031C00000B500210120FFF70FFF08490020C1F8DA
:1031D0008001C1F8840101F5C071FFF771FF012082
:1031E000086048605DF804EBFFF76ABF0080214289
:1031F00010B5012100240846FFF7F6FE0C49012214
:10320000C1F88421FFF75CFFC1F88021FFF758FF68
:1032100007E0641CE4B2FA2C03D9FFF7D1FF0120C8
:1032200010BDD1F804010028F3D1C1F8800110BD10
:10323000008021421E4910B50020C1F8A801FFF707
:1032400045FF80216B2000F0C2F8642002F03CFAB8
:1032500000216B2000F0BBF8032000F084F8002070
:1032600000F07CF84FF4967000F09AF800213820B6
:1032700000F0ADF800216A2000F0A9F80021232019
:1032800000F0A5F88021372000F0A1F8752000F0AB
:1032900011F8682801D0012010BD01216B2000F039
:1032A00096F800216C2000F092F8002010BD00007C
:1032B0000080214210B50446FFF76AFFD020FFF7D7
:1032C00047FFFFF795FF2046FFF742FFFFF790FF0C
:1032D000FFF75EFFD120FFF73BFFFFF789FF0020DC
:1032E000FFF70CFF0446FFF76BFF204610BD000000
:1032F0002DE9F0411D4614460F460646FFF748FFEC
:103300007006000EFFF724FFFFF772FF20B1FFF7F2
:1033100057FF0120BDE8F0813846FFF719FFFFF79E
:1033200067FFFFF735FF012000EB4600C0B2FFF753
:103330000FFFFFF75DFF09E0012C0DD05FF00100EA
:10334000FFF7DCFE641E05F8010BE4B2002CF3D19C
:10335000FFF736FF0020DDE70020F1E7C006010E91
:103360001C2000F034B8C006010E1B2000F02FB85E
:10337000BC2801D3012110E0622801D302210CE016
:103380002A2801D3032108E0142801D3042104E0F2
:103390000A2801D3052100E006211A2000F017B801
:1033A00010B504464FF47A70844201D9044602E015
:1033B000042C00D20424B0FBF4F0401EC1B219204A
:1033C00000F005F86008BDE81040FFF7D1BF70B508
:1033D0000C460546FFF7DCFED020FFF7B9FEFFF7ED
:1033E00007FF50B92846FFF7B3FEFFF701FF20465D
:1033F000FFF7AEFEFFF7FCFE18B1FFF7E1FE01207C
:1034000070BDFFF7DDFE002070BD2DE9F0411E46C6
:1034100015460F460446FFF7BBFE6006000EFFF799
:1034200097FEFFF7E5FE60B93846FFF791FEFFF71C
:10343000DFFE00240CE0305DFFF78AFEFFF7D8FEC8
:1034400020B1FFF7BDFE0120BDE8F081641CE4B2AD
:10345000AC42F0D3FFF7B4FE0020F5E7154808B5FD
:10346000416941F0010141614069002200F0010021
:10347000009011460E20FEF779FC0E20FEF768FC46
:10348000002211460F20FEF771FC0F20FEF760FCB2
:10349000002211461020FEF769FC1020FEF758FCB0
:1034A000002211461120FEF761FCBDE80840112002
:1034B000FEF74EBC001002402DE9F04385B0002419
:1034C0003D480094019402940394816941F01001F5
:1034D0008161816901F010010491816941F020014D
:1034E0008161816901F020010491816941F0040149
:1034F0008161816901F004010491816941F0080151
:1035000081618069DFF8B48000F008000490002237
:103510004FF486514046FEF7B8FBDFF8A490002236
:103520004FF203714846FEF7B0FBC0201127CDE9EA
:103530000007032569464046CDE90245FEF7B0FA8B
:103540004FF203400126CDE9000669464846CDE921
:103550000245FEF7A5FAF00200901A48CDE90106EF
:1035600069464846FEF79CFA3003CDE900066946F5
:103570004046CDE90245FEF793FAF0030090124869
:1035800001900220029069464046FEF789FA28021F
:10359000CDE9000769464846CDE90245FEF780FAC5
:1035A000002211462820FEF7E1FB2820FEF7D0FB81
:1035B00005B0BDE8F08300000010024000080140A3
:1035C000000C0140000021100000111010B596B051
:1035D00000240F9410941194129413941C216846A3
:1035E0001494FCF7B6FD202107A8FCF7B2FD2D4886
:1035F0002B4901604721C0E9011442F20F71C0E973
:1036000003148021C0E90541FEF7D0FE08B1FDF7A3
:1036100080FF4FF480500F900FA92248FEF74DFF16
:1036200008B1FDF776FF1F48FFF727F908B1FDF74E
:1036300070FF139413A91B481494FEF783FE08B17E
:10364000FDF767FF6020CDE9000402940394049421
:1036500005940022694613480694FFF7ABF808B1B9
:10366000FDF757FF0C2269460E48FFF7A3F808B193
:10367000FDF74FFF0794089409944FF400500A9403
:10368000CDE90B4007A907480E94FEF731FE08B1BB
:10369000FDF73FFF0348FFF765F816B010BD0000C7
:1036A000002C0140C006002010B586B0002416484A
:1036B000009401940294039404944FF08041059483
:1036C00001604721C0E901144FF6FF71C0E90314FE
:1036D0008461FEF76BFE08B1FDF71BFF4FF48050CD
:1036E000009069460848FEF7E8FE08B1FDF711FFB3
:1036F000049404A904480594FEF724FE002801D090
:10370000FDF707FF06B010BD0807002010B58CB00C
:1037100024216846FCF71DFD00241648099414492D
:103720000A94C0E900144FF6FF71C0E90241046138
:1037300084610320CDE900040120CDE90204049452
:10374000CDE90540079469460A480894FEF720FF32
:1037500008B1FDF7DEFE099409A906480A94FEF7B0
:10376000F1FD002801D0FDF7D4FE0CB010BD000023
:10377000000400405007002010B58CB0242168469A
:10378000FCF7E7FC00241648099414490A94C0E9A0
:1037900000144FF6FF71C0E9024104618461032007
:1037A000CDE900040120CDE902040494CDE90540EF
:1037B000079469460A480894FEF7EAFE08B1FDF747
:1037C000A8FE099409A906480A94FEF7BBFD002843
:1037D00001D0FDF79EFE0CB010BD000000080040B7
:1037E0009807002038B5154C13480C2120604FF481
:1037F000E13060600020A060E060C4E90401A061E5
:10380000E0612046FFF73AFA08B1FDF782FE4FF477
:1038100080720B490948FFF72FFB206802E001681E
:10382000416800910168C943C906F8D5C16841F0F3
:103830001001C16038BD000000380140E0090020DF
:10384000E007002038B5154C13480C2120604FF4D8
:10385000E13060600020A060E060C4E90401A06184
:10386000E0612046FFF70AFA08B1FDF752FE4FF477
:1038700080720B490948FFF7FFFA206802E00168EF
:10388000416800910168C943C906F8D5C16841F093
:103890001001C16038BD000000440040240A00202F
:1038A000E0080020FEE7000005480021C0F8B01144
:1038B000C0F8B411C0F8B811C0F8BC1170470000CE
:1038C00000802142FEE730B1012806D00722022104
:1038D000002000F086B8072200E001220021F7E76F
:1038E00010B54FF4007251102D48FFF77AFB0120FC
:1038F00001F006FFAE2000F093F8D52000F090F81C
:10390000802000F08DF8A82000F08AF83F2000F019
:1039100087F8D32000F084F8002000F081F8002020
:1039200000F07EF8102000F07BF8402000F078F8DE
:103930008D2000F075F8142000F072F8202000F0BF
:103940006FF8022000F06CF8A12000F069F8C820A0
:1039500000F066F8DA2000F063F8122000F060F85A
:10396000812000F05DF8EF2000F05AF8D92000F037
:1039700057F8F12000F054F8DB2000F051F8302027
:1039800000F04EF8A42000F04BF8A62000F048F814
:10399000AF2000F045F8BDE810400020FFF793BFCE
:1039A000000C01402DE9F047984617468246002654
:1039B0000C46DDF8209010E02146504600F0B4F8A7
:1039C000554606E019F80600761C00F06BF86D1CF1
:1039D000EDB2BD42F6D3641CE4B24445ECD3BDE87D
:1039E000F0872DE9F04116460C46074614E004F135
:1039F000B000C0B200F014F8002000F011F8102060
:103A000000F00EF80025384600F04CF86D1CEDB2C1
:103A1000802DF8D3641CE4B2B442E8D9BDE8F0814B
:103A20002DE9F0414FF400761D4D074674103246E3
:103A30002146284602F0D4FA334622462946782009
:103A400002F0ADFA32462146284602F0E2FAB8B951
:103A5000334622462946002002F0A1FA324621468A
:103A6000284602F0D6FA58B9334622462946384647
:103A700002F095FA32462146284602F0CAFA38B1D9
:103A800032462146284602F0BBFA0020BDE8F0810C
:103A900032462146284602F0B3FA0120F6E700003C
:103AA000000C01402DE9F0414FF400761D4D074612
:103AB000741032462146284602F092FA33462246D6
:103AC0002946782002F06BFA32462146284602F059
:103AD000A0FAB8B9334622462946402002F05FFAE0
:103AE00032462146284602F094FA58B93346224617
:103AF0002946384602F053FA32462146284602F05B
:103B000088FA38B132462146284602F079FA002078
:103B1000BDE8F08132462146284602F071FA0120C4
:103B2000F6E70000000C014010B50446B031C8B201
:103B3000FFF776FF102040EA1410FFF771FF04F042
:103B40000F00BDE8104040F00100FFF769BF000022
:103B50002DE9F0410F46804600255401FFF7E4FFB0
:103B60000C4E305DFFF79EFF6D1CEDB2641C102DF6
:103B7000F7D37F1CF9B24046FFF7D6FF0025305D32
:103B8000FFF790FF6D1CEDB2641C102DF7D3BDE85C
:103B9000F0810000440000200FB42DE9F04F99B0EF
:103BA000164689460446002526AB64216846259AB8
:103BB00000F048FD83466846012E1FD0DFF8BC8028
:103BC000022E54D14EE0203F7E2C04D909F1010091
:103BD000002400F0FF0949462046FFF7A5FF07EB48
:103BE000470000260AEB4007B85DFFF75BFF761C35
:103BF000062EF9DBA41DE4B26D1C02E0DFF880A004
:103C0000804618F80570002FDDD130E0203E782C7A
:103C100004D909F10100002400F0FF0949462046BB
:103C2000FFF782FF5FF0000707EB061118F80100AD
:103C3000FFF738FF7F1C082FF6DB09F10100C1B246
:103C40002046FFF771FF002707EB061101EB080084
:103C5000007AFFF727FF7F1C082FF5DB0834E4B25A
:103C60006D1C00E082461AF80560002ECED119B016
:103C70005846BDE8F00F5DF814FB0000B87100086D
:103C8000906F0008704700000FB470B5C0B00446D4
:103C900046AB4FF480716846459A00F0D3FC054668
:103CA0000C490D488C4201D1012103E00B498C42A3
:103CB00001D10221C17000246E4604E0315D08A0EC
:103CC00000F0B0FC641CAC42F8DB40B0284670BC8D
:103CD0005DF814FB003801402E060020004400402F
:103CE0002563000038B5002100910288064B6C4620
:103CF00055185D5D6554491C89B20429F8D3121D1D
:103D00000280009838BD0000E00800200021032850
:103D100003D0042803D000207047034A00E0034A80
:103D20001068116000B2704724040040240800406D
:103D30007047000010B5002801DB024600E0424257
:103D4000642A00DA0020002901DB0A4600E04A422A
:103D5000642A00DA00214B42012400222149002874
:103D600006DAC1F8B441C1F8B021C0F1000009E0A1
:103D7000C1F8B42102DDC1F8B04103E0C1F8B021BF
:103D80004FF00000002B06DAC1F8BC41C1F8B821A1
:103D9000C3F1000309E0C1F8BC2102DDC1F8B8415C
:103DA00003E0C1F8B8214FF000030F490968CA6A5F
:103DB000A2F57A72824202D2C86AA0F57A70CA6A03
:103DC000A2F57A729A4202D2CB6AA3F57A730749B6
:103DD000074AB1F9001008441060581804490C3122
:103DE000086010BD00802142C0060020F0050020C0
:103DF000342C0140FDF754BF30B58FB02821684600
:103E0000FCF7A7F914210AA8FCF7A3F9012108047B
:103E1000CDE900100024029402250491CDE9075059
:103E20004FF4E01009906846FEF7BEF808B172B68C
:103E3000FEE70F20CDE90A054FF48060CDE90C4084
:103E400002210AA80E94FDF7C3FF002801D072B624
:103E5000FEE70FB030BD7047F0B50268164B174C47
:103E6000174D4FF08047984205D0B84203D0A0428A
:103E700001D0A84203D122F070064A68324398422A
:103E800005D0B84203D0A04201D0A84203D122F409
:103E90004074CA6822434C6922F0800222430260C7
:103EA0008A68C2620A688262984201D10969016324
:103EB00001214161F0BD0000002C014000040040E0
:103EC0000008004010B501F01F030121046A994069
:103ED0008C430462016A9A401143016210BD10B51F
:103EE000846842EA032224F47F440A432243826026
:103EF00010BD826822F070020A4342F0070181601F
:103F00007047000030B5026A22F001020262026AC4
:103F10004368846924F073050C682C4322F0020581
:103F20008A682A430A4DA8420BD122F00805CA68C4
:103F300023F440732A434D6922F004021D438B6928
:103F40002B434360846149684163026230BD0000D5
:103F5000002C014030B5026A22F010020262026AAF
:103F6000436884690D6824F4E64444EA05248D68B6
:103F700022F0200242EA05120B4DA8420ED1CD6874
:103F800022F0800242EA05124D6923F4406343EABD
:103F900085038D6922F0400243EA85034360846112
:103FA00049688163026230BD002C014030B5026A6D
:103FB00022F480720262036A4268C46923F40073C7
:103FC00024F073050C682C438D6843EA05230C4DDF
:103FD000A8420ED1CD6823F4006343EA05234D695E
:103FE00022F4405242EA05128D6923F4806342EACA
:103FF00005124260C4614968C163036230BD0000BC
:10400000002C014030B5026A22F480520262046A38
:104010004268C3690D6823F4E64343EA05238D68CB
:1040200024F4005444EA0534064DA84204D14D69F5
:1040300022F4804242EA85124260C3614968016409
:10404000046230BD002C014010B5036A046A24F0FC
:1040500001040462846924F0F00444EA021423F0A9
:104060000A020A438461026210BD10B5036A23F09C
:10407000100303628369046A23F4704343EA023243
:1040800024F0A00343EA01118261016210BD10B562
:10409000406A0021C185C184FEF7BCFC10BD70B52B
:1040A000446A2068406994F83D10C0F3C0100025B0
:1040B000212904D118B1E584204600F083F8206856
:1040C000406994F83E10C0F38010222904D118B141
:1040D000E585204600F05EF8206C40F0100020647A
:1040E0002046FEF797FC70BD10B50146406A09688E
:1040F000096889061BD40021C1850168CA6822F4B9
:104100008072CA6001684A6922F001024A6101684E
:104110004A6922F040024A61202180F83E10016B7A
:10412000012904D10168CA6822F01002CA60016B3B
:10413000012902D0FEF7B5FE10BD818DFEF71AFCF5
:1041400010BD10B5406A016B012902D0FEF7AAFE2E
:1041500010BD818D4908FEF70DFC10BD10B501465C
:10416000406A0968096889060CD40021C184016885
:104170004A6922F080024A610068C16841F040014A
:10418000C16010BDFEF72AFF10BD10B5406AFEF7F2
:1041900026FF10BD0168CA6822F49072CA600168E7
:1041A0004A6922F001024A61016B012904D10168C8
:1041B000CA6822F01002CA60202180F83E10002157
:1041C000016370470168CA6822F0C002CA602021FA
:1041D00080F83D10704708B590F83E10222901D0B4
:1041E000022008BD82684FF480539A4201D10169D0
:1041F00021B1816A9A421BD04AB10AE00268816A01
:104200005268C2F308020A80816A891C08E00269C8
:1042100072B10268526802F07F020A70816A491C1A
:104220008162C18D491E0904090CC18503D019E0C2
:1042300002685268F1E70168CA6822F02002CA6089
:104240000168CA6822F48072CA6001684A6922F073
:1042500001024A61202180F83E10016B012903D040
:10426000FEF71FFE002008BD002101630168CA6837
:1042700022F01002CA6001680A68D20602D50A68F4
:1042800049680091818DFEF775FBEBE770B5044638
:1042900000680169E26821F440511143016121691C
:1042A000A0680843616908432168CA6841F20C6349
:1042B0009A430243CA6020684169A26921F44071AF
:1042C000114341611E492068884202D1FDF726FE54
:1042D00001E0FDF713FE00EBC00101EB0012606886
:1042E00064218000B2FBF0F3B3FBF1F36FF018062A
:1042F0007343B2FBF0F5B2FBF0F605EB8305322316
:1043000003EB0515B5FBF1F5B6FBF1F605F0F0058D
:1043100005EB0615B2FBF0F6B2FBF0F0B0FBF1F0E6
:104320006FF01802504306EB800003EB0010B0FB67
:10433000F1F0216800F00F002844886070BD000093
:104340000038014038B58162828500251346044655
:104350000564222084F83E00A26B13489062A26B91
:104360001248D062A26B12481063A06B0A464563E4
:104370002168A06B091DFDF71BFA206801684168E0
:10438000009184F83C50C16841F48071C16020689C
:10439000416941F0010141612068416941F04001FA
:1043A0004161002038BD0000E94000084341000899
:1043B0009F4000082DE9F041984617460E460446F6
:1043C000069D1DE0681C1BD02DB1FDF763FCA0EB22
:1043D0000800A84214D92068C16821F4D071C160D6
:1043E0002068416921F001014161202084F83D00ED
:1043F00084F83E00002084F83C000320BDE8F081F2
:104400002068006836EA000004D00020B842D9D005
:104410000020F3E70120F9E738B5104C2068006868
:10442000C043C00619D404F1CC0090F82100022842
:104430000FD00B4D287860B9204600F0A3F804F1A6
:1044400088000068406880B2C0F58070A8800120B4
:104450002870206801684068009038BDE00900209D
:104460002E06002010B50348FEF702FBBDE8104001
:10447000FFF7D2BFE009002070B5144D287800285E
:1044800023D0134C2068C16821F01001C160AA88B4
:10449000A4F500712046FEF761FD04F1CC00006830
:1044A00041680029FCD1A9880A48FBF752FE002088
:1044B000A88028704FF4807206490548FEF7DCFC9E
:1044C0002068C16841F01001C16070BD2E06002057
:1044D000E0090020E007002038B5104C2068006893
:1044E000C043C00619D404F1CC0090F82100022882
:1044F0000FD00B4D687860B9204600F043F804F502
:1045000088700068406880B2C0F58070E880012043
:104510006870206801684068009038BD240A002057
:104520002E06002010B50348FEF7A2FABDE81040A1
:10453000FFF7D2BF240A002070B5104C6078002825
:104540001BD00F4D2868C16821F01001C160FCF735
:104550002FFBE188A5F5A270FBF7FBFD0020E080B2
:1045600060704FF48072A5F5A2712846FEF784FCB6
:104570002868C16841F01001C16070BD2E0600209E
:10458000240A002010B504460068416994F83E20D2
:10459000C1F38011222A20D100291ED0416921F0C7
:1045A00040014161A06B08B1FCF7B5FF2068C1680C
:1045B00021F49071C1602068416921F001014161DD
:1045C000206B012804D12068C16821F01001C1606E
:1045D000202084F83E000020206310BD10B50D4C53
:1045E000D4F83C01012814D10B48FDF72BFF0A48F1
:1045F00000210268516242F21071006802E0426AD2
:104600008A4203D2D4F83C21002AF8D1406A0349F7
:10461000088010BD0000214208070020F40500209A
:10462000FEE700000FB4054B10B503A9044A029839
:1046300000F082F910BC5DF814FB0000D55E0008A4
:10464000480600207CB5044600201D461646002979
:104650000BD0491ECDE90041044B6A46294630463D
:1046600000F06AF9009A002111707CBD67500008C3
:10467000490050EAC12018BF04204A0D18BF40F07D
:10468000010040F2FF72B2EB515F08BF40F0020040
:10469000012808BF052070470907090E002804DB20
:1046A00000F1E02080F80014704700F00F0000F1E6
:1046B000E02080F8141D70472DE9F0414F1E00EBFB
:1046C000C7010446D1E9000115461E4637F006022F
:1046D0000DD02A463346FBF7D6FE7F1E04EBC703F8
:1046E000D3E90023FBF728FE37F00602F1D1022FB1
:1046F00025D0042F13D0062F18BFBDE8F0812A461D
:104700003346FBF7C0FED4E90A23FBF715FE2A4621
:104710003346FBF7B8FED4E90823FBF70DFE2A4623
:104720003346FBF7B0FED4E90623FBF705FE2A4625
:104730003346FBF7A8FED4E90423FBF7FDFD2A4628
:104740003346FBF7A0FED4E90223FBF7F5FD2A462A
:104750003346FBF798FED4E90023BDE8F041FBF7B0
:10476000EBBD0122FCF70AB9FBF7E6BD00221346B8
:1047700010461146FBF7F9BE024A00201107FCF76C
:10478000FDB8000001FDFFFF02E008C8121F08C1CC
:10479000002AFAD170477047002001E001C1121FC2
:1047A000002AFBD1704700000149086070470000F3
:1047B0004C0600202DE9FF5F82B00021DDE90430C6
:1047C000020DDDF840B0034318D044F61050A2F2B9
:1047D000FF3242431514119801281FD0A5EB0B009E
:1047E000401C5FEA000A4FF000064E4FDFF8389198
:1047F000B046504615D5CAF1000413E011980124C3
:104800004AA3012801D16FEA0B010298119AC0E96D
:104810000031C0E9024206B0BDE8F09FCBF10000D4
:10482000DFE704460021404A491842EB0450CDE935
:10483000001012E0E00707D032463B4640464946AA
:10484000FBF721FE8046894632463B461046194614
:10485000FBF719FE06460F466410002CEAD1DDE98D
:104860000401DDE90023BAF1000F06DAFBF70BFEC5
:1048700042464B46FBF707FE05E0FBF776FE424655
:104880004B46FBF772FE04460E460022284BFBF710
:104890003BFF03D84FF0FF30014607E00022254BD5
:1048A00020463146FBF748FDFCF77FF8102409E06D
:1048B000002C0ADB0A220023FBF77AFF039B30322D
:1048C0001A55641E50EA0102F2D1641C039AC4F125
:1048D00011031444119A012A03D0012208430DD177
:1048E0000AE0084304D000204FF0110B119072E74A
:1048F000A3EB0B056D1E0DE05B4504DD4FF00002E0
:1049000005F1010504E003DA4FF00002A5F101050D
:10491000002AECD002981199C0E90231C0E90045A3
:1049200079E70000000014400000F03F3000000074
:104930000000F0430000E03F2DE9FF4F95B09B469B
:104940008946064600250FE2252877D10024274610
:10495000F84A0121059400E0044316F8013F203B8A
:1049600001FA03F01042F7D130782A2811D06FF005
:104970002F033078A0F13002092A16D8059A44F0A6
:10498000020402EB820203EB42021044761C059003
:10499000EFE759F8042B0592002A03DA504244F459
:1049A0000054059044F00204761C30782E2816D16D
:1049B00016F8010F44F004042A280DD06FF02F02DE
:1049C0003078A0F13003092B09D807EB870302EBFD
:1049D0004303C718761CF3E759F8047B761C30783C
:1049E0006C280FD006DC4C2817D068280DD06A2818
:1049F00014D104E0742810D07A280FD10DE044F4CB
:104A000000140AE044F4801401E044F44014727885
:104A1000824202D104F58014761C761C3078662818
:104A20000BD013DC582877D009DC002875D0452836
:104A3000F6D04628F4D047281AD19DE118E0632823
:104A400035D0642879D0652812D195E1702873D0CB
:104A500008DC6728F1D069286FD06E280DD06F2848
:104A600006D1B5E073282CD0752875D0782874D07D
:104A70005A46179990476D1C75E1C4F302500228FD
:104A800009D003280DD0D9F8001004280DD00D60EE
:104A900009F1040967E1D9F80010EA17C1E90052E9
:104AA000F6E7D9F800100D80F2E70D70F0E719F87D
:104AB000041B8DF8001000208DF80100EA4601204B
:104AC00003E059F804AB4FF0FF3061074FF00001ED
:104AD00002D40DE008F101018846B9420FDA8045A1
:104AE000F8DB1AF808100029F4D108E008F10101F8
:104AF00088468142FADB1AF808100029F6D1059899
:104B00005B46A0EB080721463846179A00F094FA56
:104B1000284400EB080507E04DE029E10DE01AF814
:104B2000010B5A4617999047B8F10108F7D25B4636
:104B300021463846179A13E142E00A220092C4F354
:104B400002524FF0000A022A08D059F804CB032A77
:104B50004FEAEC710AD00DE029E02AE009F10701E3
:104B600021F00702F2E802C1914609E00FFA8CFC3D
:104B70004FEAEC71042A03D14FFA8CFC4FEAEC7136
:104B8000002907DA0A460021DCF1000C61EB020182
:104B90002D2202E0220504D52B228DF804200122CB
:104BA00003E0E20701D02022F7E7904659E00A210E
:104BB00002E010220DE010214FF0000A00910BE0FE
:104BC00010224FF0000A44F004040827009203E08A
:104BD00008224FF0000A0092C4F30252022A05D0C4
:104BE00059F804CB0021032A08D009E009F1070194
:104BF00021F00702F2E802C1914605E01FFA8CFCA1
:104C0000042A01D10CF0FF0C4FF00008220728D530
:104C1000702806D0009B83F0100353EA0A0305D0E6
:104C20000EE040228DF80420012208E05CEA010237
:104C300006D030228DF804208DF80500022290461F
:104C4000009B83F0080353EA0A030AD15CEA0102DD
:104C500001D1620705D530228DF804204FF00108FC
:104C60007F1E582804D034A003900EA802900DE0B7
:104C700036A0F9E753466046009AFBF799FD844653
:104C80000398825C0298401E029002705CEA010068
:104C9000F0D1029806A9081A00F1200A600702D58F
:104CA00024F4803400E00127574502DDA7EB0A0019
:104CB00000E0002000EB0A01009005984144401AF2
:104CC0000590E00306D45B462146179A059800F04C
:104CD000B3F90544002706E001A85A46C05D1799BC
:104CE00090476D1C7F1C4745F6DBE0030CD55B4607
:104CF0002146179A059800F09FF9054404E03020FA
:104D00005A46179990476D1C0099481E009000293B
:104D1000F5DC08E0029802995A460078491C029195
:104D2000179990476D1CBAF10001AAF1010AF1DC54
:104D300065E100000928010030313233343536375F
:104D400038396162636465660000000030313233D7
:104D50003435363738394142434445460000000077
:104D600000F058F90544761C307800287FF4ECAD4B
:104D700019B02846BDE8F08F620700D4062709F174
:104D8000070222F0070CFCE80223E14603F000488A
:104D90005FEA080C02D00FF2702C0DE05FEA045CB1
:104DA00002D50FF2682C07E05FEAC47C02D00FF254
:104DB000602C01E0AFF2700C4FF0FF3823F000439D
:104DC000CDF850C065280CD006DC452809D046280F
:104DD0001DD047283DD13DE0662818D067287ED1F8
:104DE00038E00021112F01DB112000E0781CCDE913
:104DF000000106A90EA8FFF7DDFCDDE90F010E9A00
:104E000003910021009207F1010A04914DE04FF057
:104E100000400097CDE9011006A90EA8FFF7CAFCD3
:104E2000DDE90F0203920E9B11990022DDF80CA020
:104E30000093049211B9791C00EB010AB7EB0A0048
:104E400004D4C0F1FF3007F1010A0490AAEB070077
:104E5000019044E0012F00DA01270021112F01DD2C
:104E6000112000E03846CDE9000106A90EA8FFF7A1
:104E7000A1FCDDE90F010E9A03910021049100923B
:104E8000BA4621070CD40399514500DA8A46BAF193
:104E9000010F05DD009AAAF10101515C302908D00B
:104EA000B84202DA10F1040F06DA0121CDE901104F
:104EB00015E0AAF10101E9E7002805DC04990144A5
:104EC0000491AAEB000102E0411C514500DD8A4635
:104ED0000499401A401C01904FF0004002902007B6
:104EE00004D40198504501DBCDF8048000208DF8F2
:104EF0004F0002980DF14F07B0F1004F25D02B2045
:104F00000E9002984FF0020800280CDA40420290FE
:104F10002D200E9007E00A210298FBF733FC303178
:104F2000029007F8011DB8F10001A8F10108F2DCB8
:104F300002980028EFD1791E0E980870307800F0A2
:104F4000200040F0450007F8020D12A8C01B00F138
:104F500007081498007800B1012000EB0A010198BD
:104F600001EBE07105984144401A401E0590E003B2
:104F700006D45B462146179A059800F05DF8054473
:104F80001498007818B15A46179990476D1CE003A1
:104F900024D55B462146179A059800F04DF8054444
:104FA0001CE00498002807DBDDE90301884203DDEB
:104FB0000098405C179901E0179930205A469047B5
:104FC000049805F10105401C04900198401E0190D1
:104FD00004D12E205A46179990476D1CBAF1000152
:104FE000AAF1010ADDDC05E017F8010B5A46179912
:104FF00090476D1CB8F10001A8F10108F4DC5B4694
:105000002146179A0598ABE62D0000002B00000002
:10501000200000002DE9F041044600251E461746F9
:10502000880404D405E039462020B0476D1C641E76
:10503000F9D52846BDE8F0812DE9F0410446002568
:105040001E469046C80301D5302700E0202788047B
:1050500004D505E041463846B0476D1C641EF9D5BD
:105060002846BDE8F0814A68002A06D00A68531C29
:105070000B6010704868401E486070472DE9F04D85
:105080008D4F21F0004A86B005460C46BA452ADB12
:10509000AAEB070028430AD08848824501DC1AD1D0
:1050A000CDB106B02846BDE8F04DFFF75ABB844AA3
:1050B000844B2846FBF7E7F907460E46824A834BA6
:1050C00028462146FBF7DFF906B03A463346BDE8ED
:1050D000F04DFBF731B90120FFF766FB06B0BDE8E4
:1050E000F04DFFF743BB7A48824542DABAF1795F67
:1050F0000BDA2846FFF7BCFA042808BFFFF73CFB91
:10510000284606B02146BDE8F08D2A460B461046DB
:10511000FBF7B9F9834602466E480E460B46062158
:105120007844FFF7C9FA5A463346FBF7ACF9804694
:1051300069488A465A46334604217844FFF7BCFA48
:105140005A463346FBF79FF900223B46FBF7F4F83B
:1051500002460B4640465146FBF707FA2A462346CD
:10516000FBF791F906B02A462346BDE8F04DFBF760
:10517000E3B8284624F0004100223D463B46FBF7B9
:105180007FF94FF0FF32FBF7F9FB06460246534822
:105190000F460B4606217844FFF78EFA32463B460F
:1051A000FBF771F9CDE900014D4832463B46042139
:1051B0007844FFF781FA32463B46FBF764F9002258
:1051C0002B46FBF7B9F8834602913046394601F089
:1051D00037FE804643480D46504517DCDDE90001A7
:1051E0005A46029BFBF7C1F942462B46FBF74BF9A7
:1051F00042462B46FBF7A0F80122FBF7BFFB304AE3
:10520000304BFBF73AF9304A304B4CE04FF0000A94
:1052100052460B464046FBF78FF8CDE90310524645
:105220002B4610461946FBF72EF932463B46FBF754
:1052300027F9DDE90332FBF798F906460F46DDE969
:1052400000015A46029BFBF790F983460091012228
:1052500030463946FBF792FB194A1A4BFBF710F917
:1052600006460F46012240462946FBF787FB5A4671
:10527000009BFBF708F932463B46FBF7FEF8064673
:105280000F46012250462946FBF778FB0E4DDFF80A
:1052900058802A464346FBF7F3F832463B46FBF775
:1052A000EFF82A464346FBF7EBF8002CD8BF81F015
:1052B000004106B0BDE8F08D0000F03F0000F07F37
:1052C000075C143326A6913C182D4454FB21F93F6A
:1052D0000000E03FE4320000FA3200006E320000CD
:1052E000843200003333EF3FFB21E93F2DE9F84FD3
:1052F00004460D4621F0004000917349814211DCC3
:105300007249884201DC06D12CB120462946BDE80D
:10531000F84FFFF726BA6E48002DCCBF6D496E4995
:10532000BDE8F88F6D49814211DD6D498142D8BFDA
:105330004FF0FF366DDD20462946FFF799F9042826
:1053400008BFFFF719FA20462946BDE8F88F6549DE
:10535000654F25F00045814233DD6449814219DD06
:10536000002632464FF0804320462946FAF7E4FFF4
:1053700080468A46012220462946FBF7FFFA002292
:105380003B46FBF77AF842465346FBF7EEF80446F5
:105390000D463EE001260022BA463B4620462946FD
:1053A000FAF7CAFF80460F46002253462046294698
:1053B000FBF763F842463B46FBF7D7F804460D4639
:1053C00027E04B4981421BDDDFF828A1022600229D
:1053D000534620462946FBF756F800223B46FAF78B
:1053E000ABFF80460F460022534620462946FBF776
:1053F00044F842463B46FBF7B8F804460D4608E041
:10540000032622462B4600203B49FBF7AEF8044614
:105410000D4622462B4610461946FBF734F88B46BC
:10542000824602460B46FBF72EF8074602463348F3
:1054300088460B4606217844FFF73EF952465B4604
:10544000FBF721F882462E488B463A464346052113
:105450007844FFF731F93A464346FBF714F8024621
:105460000B46002E504659460CDAFAF765FF2246E5
:105470002B46FBF708F801B022462B46BDE8F04F5B
:10548000FAF7FEBFFAF758FF22462B46FAF7FBFF62
:105490001C4A7A4402EBC603D3E90023FAF7EDFF76
:1054A00022462B46FAF7E9FF174A7A4402EBC60375
:1054B000D3E90023FAF7E4FF009A002AB8BF81F08D
:1054C0000041BDE8F88F0000000010440000F07FAC
:1054D000182D4454FB21F93FFB21F9BF0000DC3FAC
:1054E0000000203E0000F33F0000F03F0000E63FD8
:1054F000008003400000F83F0000F0BF863000004D
:1055000044300000E22F0000AA2F00002DE9F04DEA
:105510009446CCF1000423F000464CEA0404524FB8
:1055200046EAD4749A46884621F00042BC4206D826
:10553000454240EA050442EAD474BC4204D9BDE8BD
:10554000F04D6246FFF710B9AAF14055A5F17F650D
:1055500055EA0C040BD0022404EAAA74434DDFF888
:1055600010E144EAD87452EA000B04D00CE0BDE824
:10557000F04DFFF7BBBE002C14BF012CBDE8F08D31
:10558000022C30D0032C32D056EA0C0B0AD0BE428B
:1055900020D1BA4209D126F0804622F0804233461B
:1055A000114617E000291ADB25E0DFF8C8B0FB44FC
:1055B000002C04BFDBE90001BDE8F08D012C02BF27
:1055C000DBE9000181F00041BDE8F08D022C0AD03A
:1055D000032C0CD0BA4212D1B8F1000F0BDA2348D9
:1055E0002549BDE8F08D28462449BDE8F08D2846C0
:1055F0007146BDE8F08D1D482149BDE8F08D921B34
:1056000012153C2AC4BF19481D490EDCBAF1000F1F
:10561000BEBF12F13C0F0020014606DB6246FAF7DE
:10562000A4FF21F00041FFF761FE002C08BFBDE898
:10563000F08D012C04BF81F00041BDE8F08D114ACE
:10564000114B022C07D0FAF718FF2A46BDE8F04D9F
:105650000A4BFAF712BFFAF710FF2A46BDE8F04DE1
:10566000064BFAF70DBF00000000F07F182D4454E0
:10567000FB2109C03E2F0000FB21F9BFFB2109409F
:10568000FB21F93F075C143326A6A13C70B5044604
:105690000C4816460A4601681046FAF7CBFD216809
:1056A000FAF7C8FD0546A0693146FAF7C9FD064676
:1056B00020692946FAF7C4FD3146FAF7BBFDE061DF
:1056C000E06970BDEC05002070B50C4C0646002565
:1056D000206845622046FCF7B5FE00214FF47A723F
:1056E00005E02068436A9342FCD34562491CB142FD
:1056F000F7D3BDE870400148FCF7CCBE0807002096
:105700002DE9F04104460E48FCF79CFE0C4A0023AC
:10571000106843621D464CF2503709E000211668BC
:10572000706AB842FBD37362491C1429F7D36D1C0D
:10573000A542F3D3BDE8F0410148FCF7ABBE000041
:105740000807002008B560B120208DF8000028204F
:105750008DF8010030208DF8020038208DF803000C
:1057600004E0A32204216846FAF7ECFC6A4604210F
:1057700040F69E2001F00EFB01F044F808BD000049
:105780003EB5044602208DF80000CA208DF80100C5
:10579000E3208DF8020009208DF803006A460421F9
:1057A000682001F0F7FAA3208DF80000610609D502
:1057B000C0218DF80110C8218DF80210C2218DF88A
:1057C000031005E08DF801008DF802008DF803004C
:1057D00014F4C07F09D0C4218DF80410CC218DF8B9
:1057E0000510C6218DF8061005E08DF804008DF82F
:1057F00005008DF806008DF808008DF807008DF87B
:1058000009006A460A2140F6A72001F0C3FAA00762
:105810004FF0D80503D020208DF8000001E08DF86E
:1058200000506A46012140F6B62001F0B3FAA00606
:1058300001D5012000E0002000F08EF814F4C07FB4
:105840001ED0E0050AD5B2208DF800008B208DF81F
:105850000100B6208DF802009B2009E0B0208DF8F1
:10586000000080208DF80100B4208DF80200902007
:105870008DF803006A46042140F6A22001F08AFA5E
:10588000E1074FF40B6022D0F8218DF800106A4632
:10589000012101F07FFAFA21072000F067FA0720C2
:1058A00000F032FA012000F04FFA642000F0F2FA22
:1058B0004FF4FA7000F0FEFAC821254800F0ECF928
:1058C000282000F001FA0A2000F00EFA05E08DF819
:1058D00000506A46012101F05DFAA00703D5D920E6
:1058E0008DF8000001E08DF800506A46012140F279
:1058F0003D7001F04FFA600701D5012000E0002063
:1059000000F048F8E00601D5012000E00020FFF794
:1059100019FF104D44F00800688100F073FF00206B
:10592000A873600601D50620A87314F4C07F02D0C6
:10593000A87B801DA87314F0140F02D0A87B103030
:10594000A873A00702D0A87B001DA87300203EBD4D
:1059500009E3CA02B00600200EB54FF4976310B1F8
:1059600006A107C901E008A207CA8DE807006A4638
:105970000921184601F00EFA0EBD0000B8AAB38D39
:10598000B4980D355D000000B8AAAAAAB088C3C5B6
:10599000C700000008B560B1C0208DF80000C2202B
:1059A0008DF80100C4208DF80200C6208DF8030098
:1059B00004E08B2204216846FAF7C4FB6A460421FE
:1059C00040F6982001F0E6F900F01CFF08BD000049
:1059D000C8234FF48062024940F6F63000F0F4BD6F
:1059E000F87700082DE9FF4F89B01746DDE9165218
:1059F00000244C4E884681462C80A246B07B6946E6
:105A000000F08EFE4FF0FF3B18B158460DB0BDE8D8
:105A1000F08F708910F0140F3CD0009909BA21F072
:105A2000FF039DF803100B433B6001991B1409BA57
:105A300021F0FF029DF807105B430A437A60029948
:105A40009DF80B4009BA21F0FF012143B960039C86
:105A5000091424BA24F0FF0C9DF80F4012144CEAEC
:105A6000040CC7F80CC04FEA2C47494302FB023232
:105A700007FB071111441024A1F17061B1F1007FFF
:105A800004D900F0BFFEA5F800A0BEE7298841F4C4
:105A9000807129804206694611D50A19A41D138810
:105AA0005BBAA8F8003053885BBAA8F80230928835
:105AB00052BAA8F804202A8842F008022A8010F47A
:105AC000C07F11D00A19A41D13885BBAA9F8003051
:105AD00053885BBAA9F80230928852BAA9F8042018
